{
    "_format": "hh-sol-artifact-1",
    "contractName": "RandomSVG",
    "sourceName": "contracts/RandomSVG.sol",
    "abi": [
        {
            "inputs": [],
            "stateMutability": "nonpayable",
            "type": "constructor"
        },
        {
            "anonymous": false,
            "inputs": [
                {
                    "indexed": true,
                    "internalType": "address",
                    "name": "owner",
                    "type": "address"
                },
                {
                    "indexed": true,
                    "internalType": "address",
                    "name": "approved",
                    "type": "address"
                },
                {
                    "indexed": true,
                    "internalType": "uint256",
                    "name": "tokenId",
                    "type": "uint256"
                }
            ],
            "name": "Approval",
            "type": "event"
        },
        {
            "anonymous": false,
            "inputs": [
                {
                    "indexed": true,
                    "internalType": "address",
                    "name": "owner",
                    "type": "address"
                },
                {
                    "indexed": true,
                    "internalType": "address",
                    "name": "operator",
                    "type": "address"
                },
                {
                    "indexed": false,
                    "internalType": "bool",
                    "name": "approved",
                    "type": "bool"
                }
            ],
            "name": "ApprovalForAll",
            "type": "event"
        },
        {
            "anonymous": false,
            "inputs": [
                {
                    "indexed": true,
                    "internalType": "address",
                    "name": "sender",
                    "type": "address"
                },
                {
                    "indexed": true,
                    "internalType": "uint256",
                    "name": "tokenId",
                    "type": "uint256"
                },
                {
                    "indexed": true,
                    "internalType": "uint256",
                    "name": "rand",
                    "type": "uint256"
                }
            ],
            "name": "NewNFTMinted",
            "type": "event"
        },
        {
            "anonymous": false,
            "inputs": [
                {
                    "indexed": true,
                    "internalType": "address",
                    "name": "from",
                    "type": "address"
                },
                {
                    "indexed": true,
                    "internalType": "address",
                    "name": "to",
                    "type": "address"
                },
                {
                    "indexed": true,
                    "internalType": "uint256",
                    "name": "tokenId",
                    "type": "uint256"
                }
            ],
            "name": "Transfer",
            "type": "event"
        },
        {
            "inputs": [
                {
                    "internalType": "address",
                    "name": "to",
                    "type": "address"
                },
                {
                    "internalType": "uint256",
                    "name": "tokenId",
                    "type": "uint256"
                }
            ],
            "name": "approve",
            "outputs": [],
            "stateMutability": "nonpayable",
            "type": "function"
        },
        {
            "inputs": [
                {
                    "internalType": "address",
                    "name": "owner",
                    "type": "address"
                }
            ],
            "name": "balanceOf",
            "outputs": [
                {
                    "internalType": "uint256",
                    "name": "",
                    "type": "uint256"
                }
            ],
            "stateMutability": "view",
            "type": "function"
        },
        {
            "inputs": [
                {
                    "internalType": "uint256",
                    "name": "",
                    "type": "uint256"
                }
            ],
            "name": "colors",
            "outputs": [
                {
                    "internalType": "string",
                    "name": "",
                    "type": "string"
                }
            ],
            "stateMutability": "view",
            "type": "function"
        },
        {
            "inputs": [],
            "name": "create",
            "outputs": [],
            "stateMutability": "nonpayable",
            "type": "function"
        },
        {
            "inputs": [
                {
                    "internalType": "uint256",
                    "name": "_randomNumber",
                    "type": "uint256"
                }
            ],
            "name": "finishMint",
            "outputs": [
                {
                    "internalType": "string",
                    "name": "",
                    "type": "string"
                }
            ],
            "stateMutability": "view",
            "type": "function"
        },
        {
            "inputs": [
                {
                    "internalType": "string",
                    "name": "_imageURI",
                    "type": "string"
                }
            ],
            "name": "formatTokenURI",
            "outputs": [
                {
                    "internalType": "string",
                    "name": "",
                    "type": "string"
                }
            ],
            "stateMutability": "pure",
            "type": "function"
        },
        {
            "inputs": [
                {
                    "internalType": "uint256",
                    "name": "_randomNumber",
                    "type": "uint256"
                }
            ],
            "name": "generatePath",
            "outputs": [
                {
                    "internalType": "string",
                    "name": "pathSvg",
                    "type": "string"
                }
            ],
            "stateMutability": "view",
            "type": "function"
        },
        {
            "inputs": [
                {
                    "internalType": "uint256",
                    "name": "_randomNumber",
                    "type": "uint256"
                },
                {
                    "internalType": "uint256",
                    "name": "x",
                    "type": "uint256"
                }
            ],
            "name": "generatePathCommand",
            "outputs": [
                {
                    "internalType": "string",
                    "name": "pathCommand",
                    "type": "string"
                }
            ],
            "stateMutability": "view",
            "type": "function"
        },
        {
            "inputs": [
                {
                    "internalType": "uint256",
                    "name": "_randomNumber",
                    "type": "uint256"
                }
            ],
            "name": "generateSVG",
            "outputs": [
                {
                    "internalType": "string",
                    "name": "finalSVG",
                    "type": "string"
                }
            ],
            "stateMutability": "view",
            "type": "function"
        },
        {
            "inputs": [
                {
                    "internalType": "uint256",
                    "name": "tokenId",
                    "type": "uint256"
                }
            ],
            "name": "getApproved",
            "outputs": [
                {
                    "internalType": "address",
                    "name": "",
                    "type": "address"
                }
            ],
            "stateMutability": "view",
            "type": "function"
        },
        {
            "inputs": [
                {
                    "internalType": "address",
                    "name": "owner",
                    "type": "address"
                },
                {
                    "internalType": "address",
                    "name": "operator",
                    "type": "address"
                }
            ],
            "name": "isApprovedForAll",
            "outputs": [
                {
                    "internalType": "bool",
                    "name": "",
                    "type": "bool"
                }
            ],
            "stateMutability": "view",
            "type": "function"
        },
        {
            "inputs": [],
            "name": "maxNumberOfPathCommands",
            "outputs": [
                {
                    "internalType": "uint256",
                    "name": "",
                    "type": "uint256"
                }
            ],
            "stateMutability": "view",
            "type": "function"
        },
        {
            "inputs": [],
            "name": "maxNumberOfPaths",
            "outputs": [
                {
                    "internalType": "uint256",
                    "name": "",
                    "type": "uint256"
                }
            ],
            "stateMutability": "view",
            "type": "function"
        },
        {
            "inputs": [
                {
                    "internalType": "uint256",
                    "name": "_count",
                    "type": "uint256"
                }
            ],
            "name": "mintNFTs",
            "outputs": [],
            "stateMutability": "nonpayable",
            "type": "function"
        },
        {
            "inputs": [],
            "name": "name",
            "outputs": [
                {
                    "internalType": "string",
                    "name": "",
                    "type": "string"
                }
            ],
            "stateMutability": "view",
            "type": "function"
        },
        {
            "inputs": [
                {
                    "internalType": "uint256",
                    "name": "tokenId",
                    "type": "uint256"
                }
            ],
            "name": "ownerOf",
            "outputs": [
                {
                    "internalType": "address",
                    "name": "",
                    "type": "address"
                }
            ],
            "stateMutability": "view",
            "type": "function"
        },
        {
            "inputs": [
                {
                    "internalType": "uint256",
                    "name": "",
                    "type": "uint256"
                }
            ],
            "name": "pathCommands",
            "outputs": [
                {
                    "internalType": "string",
                    "name": "",
                    "type": "string"
                }
            ],
            "stateMutability": "view",
            "type": "function"
        },
        {
            "inputs": [
                {
                    "internalType": "address",
                    "name": "from",
                    "type": "address"
                },
                {
                    "internalType": "address",
                    "name": "to",
                    "type": "address"
                },
                {
                    "internalType": "uint256",
                    "name": "tokenId",
                    "type": "uint256"
                }
            ],
            "name": "safeTransferFrom",
            "outputs": [],
            "stateMutability": "nonpayable",
            "type": "function"
        },
        {
            "inputs": [
                {
                    "internalType": "address",
                    "name": "from",
                    "type": "address"
                },
                {
                    "internalType": "address",
                    "name": "to",
                    "type": "address"
                },
                {
                    "internalType": "uint256",
                    "name": "tokenId",
                    "type": "uint256"
                },
                {
                    "internalType": "bytes",
                    "name": "_data",
                    "type": "bytes"
                }
            ],
            "name": "safeTransferFrom",
            "outputs": [],
            "stateMutability": "nonpayable",
            "type": "function"
        },
        {
            "inputs": [
                {
                    "internalType": "address",
                    "name": "operator",
                    "type": "address"
                },
                {
                    "internalType": "bool",
                    "name": "approved",
                    "type": "bool"
                }
            ],
            "name": "setApprovalForAll",
            "outputs": [],
            "stateMutability": "nonpayable",
            "type": "function"
        },
        {
            "inputs": [],
            "name": "size",
            "outputs": [
                {
                    "internalType": "uint256",
                    "name": "",
                    "type": "uint256"
                }
            ],
            "stateMutability": "view",
            "type": "function"
        },
        {
            "inputs": [
                {
                    "internalType": "bytes4",
                    "name": "interfaceId",
                    "type": "bytes4"
                }
            ],
            "name": "supportsInterface",
            "outputs": [
                {
                    "internalType": "bool",
                    "name": "",
                    "type": "bool"
                }
            ],
            "stateMutability": "view",
            "type": "function"
        },
        {
            "inputs": [
                {
                    "internalType": "string",
                    "name": "_svg",
                    "type": "string"
                }
            ],
            "name": "svgToImageURI",
            "outputs": [
                {
                    "internalType": "string",
                    "name": "",
                    "type": "string"
                }
            ],
            "stateMutability": "view",
            "type": "function"
        },
        {
            "inputs": [],
            "name": "symbol",
            "outputs": [
                {
                    "internalType": "string",
                    "name": "",
                    "type": "string"
                }
            ],
            "stateMutability": "view",
            "type": "function"
        },
        {
            "inputs": [],
            "name": "tokenCounter",
            "outputs": [
                {
                    "internalType": "uint256",
                    "name": "",
                    "type": "uint256"
                }
            ],
            "stateMutability": "view",
            "type": "function"
        },
        {
            "inputs": [
                {
                    "internalType": "uint256",
                    "name": "tokenId",
                    "type": "uint256"
                }
            ],
            "name": "tokenURI",
            "outputs": [
                {
                    "internalType": "string",
                    "name": "",
                    "type": "string"
                }
            ],
            "stateMutability": "view",
            "type": "function"
        },
        {
            "inputs": [
                {
                    "internalType": "address",
                    "name": "from",
                    "type": "address"
                },
                {
                    "internalType": "address",
                    "name": "to",
                    "type": "address"
                },
                {
                    "internalType": "uint256",
                    "name": "tokenId",
                    "type": "uint256"
                }
            ],
            "name": "transferFrom",
            "outputs": [],
            "stateMutability": "nonpayable",
            "type": "function"
        }
    ],
    "bytecode": "0x60806040523480156200001157600080fd5b506040518060400160405280600d81526020017f426c7572726564204c696e6573000000000000000000000000000000000000008152506040518060400160405280600581526020017f626c4e46540000000000000000000000000000000000000000000000000000008152508160009080519060200190620000969291906200039b565b508060019080519060200190620000af9291906200039b565b5050506000600781905550600460088190555060066009819055506101f4600a8190555060405180604001604052806040518060400160405280600181526020017f4d0000000000000000000000000000000000000000000000000000000000000081525081526020016040518060400160405280600181526020017f4c00000000000000000000000000000000000000000000000000000000000000815250815250600b906002620001649291906200042c565b506040518061012001604052806040518060400160405280600381526020017f726564000000000000000000000000000000000000000000000000000000000081525081526020016040518060400160405280600481526020017f626c75650000000000000000000000000000000000000000000000000000000081525081526020016040518060400160405280600581526020017f677265656e00000000000000000000000000000000000000000000000000000081525081526020016040518060400160405280600681526020017f79656c6c6f77000000000000000000000000000000000000000000000000000081525081526020016040518060400160405280600581526020017f626c61636b00000000000000000000000000000000000000000000000000000081525081526020016040518060400160405280600481526020017f617175610000000000000000000000000000000000000000000000000000000081525081526020016040518060400160405280600581526020017f6b68616b6900000000000000000000000000000000000000000000000000000081525081526020016040518060400160405280600681526020017f707572706c65000000000000000000000000000000000000000000000000000081525081526020016040518060400160405280600681526020017f6f72616e67650000000000000000000000000000000000000000000000000000815250815250600c9060096200039492919062000493565b50620005ec565b828054620003a99062000587565b90600052602060002090601f016020900481019282620003cd576000855562000419565b82601f10620003e857805160ff191683800117855562000419565b8280016001018555821562000419579182015b8281111562000418578251825591602001919060010190620003fb565b5b509050620004289190620004fa565b5090565b82805482825590600052602060002090810192821562000480579160200282015b828111156200047f5782518290805190602001906200046e9291906200039b565b50916020019190600101906200044d565b5b5090506200048f919062000519565b5090565b828054828255906000526020600020908101928215620004e7579160200282015b82811115620004e6578251829080519060200190620004d59291906200039b565b5091602001919060010190620004b4565b5b509050620004f6919062000519565b5090565b5b8082111562000515576000816000905550600101620004fb565b5090565b5b808211156200053d576000818162000533919062000541565b506001016200051a565b5090565b5080546200054f9062000587565b6000825580601f1062000563575062000584565b601f016020900490600052602060002090810190620005839190620004fa565b5b50565b60006002820490506001821680620005a057607f821691505b60208210811415620005b757620005b6620005bd565b5b50919050565b7f4e487b7100000000000000000000000000000000000000000000000000000000600052602260045260246000fd5b61442180620005fc6000396000f3fe608060405234801561001057600080fd5b50600436106101a95760003560e01c80636dcee4ca116100f9578063b88d4fde11610097578063c87b56dd11610071578063c87b56dd1461052c578063d082e3811461055c578063e985e9c51461057a578063efc81a8c146105aa576101a9565b8063b88d4fde146104c2578063bd11f69d146104de578063c21bf36f1461050e576101a9565b8063949d225d116100d3578063949d225d1461043a578063955968d41461045857806395d89b4114610488578063a22cb465146104a6576101a9565b80636dcee4ca146103aa57806370a08231146103da57806371aee1931461040a576101a9565b806330d871c61161016657806342842e0e1161014057806342842e0e1461031057806348e896ab1461032c578063624194c71461034a5780636352211e1461037a576101a9565b806330d871c61461029457806333af5989146102c45780633b4b1381146102f4576101a9565b806301ffc9a7146101ae57806306fdde03146101de578063081812fc146101fc578063095ea7b31461022c57806311de5a061461024857806323b872dd14610278575b600080fd5b6101c860048036038101906101c39190612df0565b6105b4565b6040516101d59190613c0e565b60405180910390f35b6101e6610696565b6040516101f39190613c29565b60405180910390f35b61021660048036038101906102119190612e83565b610728565b6040516102239190613ba7565b60405180910390f35b61024660048036038101906102419190612db4565b6107ad565b005b610262600480360381019061025d9190612eac565b6108c5565b60405161026f9190613c29565b60405180910390f35b610292600480360381019061028d9190612cae565b610b18565b005b6102ae60048036038101906102a99190612e42565b610b78565b6040516102bb9190613c29565b60405180910390f35b6102de60048036038101906102d99190612e83565b610c96565b6040516102eb9190613c29565b60405180910390f35b61030e60048036038101906103099190612e83565b610e89565b005b61032a60048036038101906103259190612cae565b610ef6565b005b610334610f16565b6040516103419190613ea9565b60405180910390f35b610364600480360381019061035f9190612e83565b610f1c565b6040516103719190613c29565b60405180910390f35b610394600480360381019061038f9190612e83565b610f50565b6040516103a19190613ba7565b60405180910390f35b6103c460048036038101906103bf9190612e83565b611002565b6040516103d19190613c29565b60405180910390f35b6103f460048036038101906103ef9190612c49565b611104565b6040516104019190613ea9565b60405180910390f35b610424600480360381019061041f9190612e42565b6111bc565b6040516104319190613c29565b60405180910390f35b610442611218565b60405161044f9190613ea9565b60405180910390f35b610472600480360381019061046d9190612e83565b61121e565b60405161047f9190613c29565b60405180910390f35b6104906112ca565b60405161049d9190613c29565b60405180910390f35b6104c060048036038101906104bb9190612d78565b61135c565b005b6104dc60048036038101906104d79190612cfd565b611372565b005b6104f860048036038101906104f39190612e83565b6113d4565b6040516105059190613c29565b60405180910390f35b610516611480565b6040516105239190613ea9565b60405180910390f35b61054660048036038101906105419190612e83565b611486565b6040516105539190613c29565b60405180910390f35b6105646115d8565b6040516105719190613ea9565b60405180910390f35b610594600480360381019061058f9190612c72565b6115de565b6040516105a19190613c0e565b60405180910390f35b6105b2611672565b005b60007f80ac58cd000000000000000000000000000000000000000000000000000000007bffffffffffffffffffffffffffffffffffffffffffffffffffffffff1916827bffffffffffffffffffffffffffffffffffffffffffffffffffffffff1916148061067f57507f5b5e139f000000000000000000000000000000000000000000000000000000007bffffffffffffffffffffffffffffffffffffffffffffffffffffffff1916827bffffffffffffffffffffffffffffffffffffffffffffffffffffffff1916145b8061068f575061068e8261175d565b5b9050919050565b6060600080546106a5906141a7565b80601f01602080910402602001604051908101604052809291908181526020018280546106d1906141a7565b801561071e5780601f106106f35761010080835404028352916020019161071e565b820191906000526020600020905b81548152906001019060200180831161070157829003601f168201915b5050505050905090565b6000610733826117c7565b610772576040517f08c379a000000000000000000000000000000000000000000000000000000000815260040161076990613e09565b60405180910390fd5b6004600083815260200190815260200160002060009054906101000a900473ffffffffffffffffffffffffffffffffffffffff169050919050565b60006107b882610f50565b90508073ffffffffffffffffffffffffffffffffffffffff168373ffffffffffffffffffffffffffffffffffffffff161415610829576040517f08c379a000000000000000000000000000000000000000000000000000000000815260040161082090613e69565b60405180910390fd5b8073ffffffffffffffffffffffffffffffffffffffff16610848611833565b73ffffffffffffffffffffffffffffffffffffffff161480610877575061087681610871611833565b6115de565b5b6108b6576040517f08c379a00000000000000000000000000000000000000000000000000000000081526004016108ad90613d49565b60405180910390fd5b6108c0838361183b565b505050565b60606001821015610909576040518060400160405280600181526020017f4d0000000000000000000000000000000000000000000000000000000000000081525090505b6000821180156109195750600282105b1561095b576040518060400160405280600181526020017f4c000000000000000000000000000000000000000000000000000000000000008152509050610a44565b6001821115610a4357600b808054905084610976919061422c565b815481106109ad577f4e487b7100000000000000000000000000000000000000000000000000000000600052603260045260246000fd5b9060005260206000200180546109c2906141a7565b80601f01602080910402602001604051908101604052809291908181526020018280546109ee906141a7565b8015610a3b5780601f10610a1057610100808354040283529160200191610a3b565b820191906000526020600020905b815481529060010190602001808311610a1e57829003601f168201915b505050505090505b5b6000600a54846002600a54610a599190614056565b604051602001610a6a929190613b42565b6040516020818303038152906040528051906020012060001c610a8d919061422c565b90506000600a54856003600a54610aa49190614056565b604051602001610ab5929190613b42565b6040516020818303038152906040528051906020012060001c610ad8919061422c565b905082610ae4836118f4565b610aed836118f4565b604051602001610aff939291906139ea565b6040516020818303038152906040529250505092915050565b610b29610b23611833565b82611ac9565b610b68576040517f08c379a0000000000000000000000000000000000000000000000000000000008152600401610b5f90613e89565b60405180910390fd5b610b73838383611ba7565b505050565b606060006040518060400160405280601a81526020017f646174613a696d6167652f7376672b786d6c3b6261736536342c00000000000081525090506000610bde84604051602001610bca91906139af565b604051602081830303815290604052611e03565b905060008282604051602001610bf59291906139c6565b6040516020818303038152906040529050610c446040518060400160405280601581526020017f0a2d2d2d2d2d2d2d2d2d2d2d2d2d2d2d2d2d2d2d2d0000000000000000000000815250611fa2565b610c4d81611fa2565b610c8b6040518060400160405280601581526020017f2d2d2d2d2d2d2d2d2d2d2d2d2d2d2d2d2d2d2d2d0a0000000000000000000000815250611fa2565b809350505050919050565b60606000600360095484610caa919061422c565b610cb49190613f98565b90506040518060400160405280601a81526020017f3c70617468207374726f6b652d77696474683d27382720643d27000000000000815250915060005b81811015610d7d5760008482600a54610d0a9190613f98565b604051602001610d1b929190613b42565b6040516020818303038152906040528051906020012060001c90506000610d4282846108c5565b90508481604051602001610d579291906139c6565b604051602081830303815290604052945050508080610d75906141d9565b915050610cf1565b506000600c808054905085610d92919061422c565b81548110610dc9577f4e487b7100000000000000000000000000000000000000000000000000000000600052603260045260246000fd5b906000526020600020018054610dde906141a7565b80601f0160208091040260200160405190810160405280929190818152602001828054610e0a906141a7565b8015610e575780601f10610e2c57610100808354040283529160200191610e57565b820191906000526020600020905b815481529060010190602001808311610e3a57829003601f168201915b505050505090508281604051602001610e71929190613a31565b60405160208183030381529060405292505050919050565b60008111610ecc576040517f08c379a0000000000000000000000000000000000000000000000000000000008152600401610ec390613d09565b60405180910390fd5b60005b81811015610ef257610edf611672565b8080610eea906141d9565b915050610ecf565b5050565b610f1183838360405180602001604052806000815250611372565b505050565b60095481565b60606000610f2983611002565b90506000610f3682610b78565b90506000610f43826111bc565b9050809350505050919050565b6000806002600084815260200190815260200160002060009054906101000a900473ffffffffffffffffffffffffffffffffffffffff169050600073ffffffffffffffffffffffffffffffffffffffff168173ffffffffffffffffffffffffffffffffffffffff161415610ff9576040517f08c379a0000000000000000000000000000000000000000000000000000000008152600401610ff090613d89565b60405180910390fd5b80915050919050565b60606000600160085484611016919061422c565b6110209190613f98565b905061102d600a546118f4565b611038600a546118f4565b604051602001611049929190613adb565b604051602081830303815290604052915060005b818110156110db576000848260405160200161107a929190613b42565b6040516020818303038152906040528051906020012060001c905060006110a082610c96565b905084816040516020016110b59291906139c6565b6040516020818303038152906040529450505080806110d3906141d9565b91505061105d565b50816040516020016110ed9190613a6b565b604051602081830303815290604052915050919050565b60008073ffffffffffffffffffffffffffffffffffffffff168273ffffffffffffffffffffffffffffffffffffffff161415611175576040517f08c379a000000000000000000000000000000000000000000000000000000000815260040161116c90613d69565b60405180910390fd5b600360008373ffffffffffffffffffffffffffffffffffffffff1673ffffffffffffffffffffffffffffffffffffffff168152602001908152602001600020549050919050565b606060006111e8836040516020016111d49190613a8d565b604051602081830303815290604052611e03565b90506000816040516020016111fd9190613b20565b60405160208183030381529060405290508092505050919050565b600a5481565b600b818154811061122e57600080fd5b906000526020600020016000915090508054611249906141a7565b80601f0160208091040260200160405190810160405280929190818152602001828054611275906141a7565b80156112c25780601f10611297576101008083540402835291602001916112c2565b820191906000526020600020905b8154815290600101906020018083116112a557829003601f168201915b505050505081565b6060600180546112d9906141a7565b80601f0160208091040260200160405190810160405280929190818152602001828054611305906141a7565b80156113525780601f1061132757610100808354040283529160200191611352565b820191906000526020600020905b81548152906001019060200180831161133557829003601f168201915b5050505050905090565b61136e611367611833565b838361203b565b5050565b61138361137d611833565b83611ac9565b6113c2576040517f08c379a00000000000000000000000000000000000000000000000000000000081526004016113b990613e89565b60405180910390fd5b6113ce848484846121a8565b50505050565b600c81815481106113e457600080fd5b9060005260206000200160009150905080546113ff906141a7565b80601f016020809104026020016040519081016040528092919081815260200182805461142b906141a7565b80156114785780601f1061144d57610100808354040283529160200191611478565b820191906000526020600020905b81548152906001019060200180831161145b57829003601f168201915b505050505081565b60085481565b6060611491826117c7565b6114d0576040517f08c379a00000000000000000000000000000000000000000000000000000000081526004016114c790613de9565b60405180910390fd5b60006006600084815260200190815260200160002080546114f0906141a7565b80601f016020809104026020016040519081016040528092919081815260200182805461151c906141a7565b80156115695780601f1061153e57610100808354040283529160200191611569565b820191906000526020600020905b81548152906001019060200180831161154c57829003601f168201915b50505050509050600061157a612204565b90506000815114156115905781925050506115d3565b6000825111156115c55780826040516020016115ad9291906139c6565b604051602081830303815290604052925050506115d3565b6115ce8461221b565b925050505b919050565b60075481565b6000600560008473ffffffffffffffffffffffffffffffffffffffff1673ffffffffffffffffffffffffffffffffffffffff16815260200190815260200160002060008373ffffffffffffffffffffffffffffffffffffffff1673ffffffffffffffffffffffffffffffffffffffff16815260200190815260200160002060009054906101000a900460ff16905092915050565b6000600754905060016007546116889190613f98565b60078190555060006116c4444261169e856122c2565b6040516020016116b093929190613b6e565b60405160208183030381529060405261246f565b90506116cf816124a2565b60006116da82610f1c565b90506116e6338461253b565b6116f08382612559565b6117136040518060600160405280602581526020016143876025913984336125cd565b81833373ffffffffffffffffffffffffffffffffffffffff167f4954d8fa44ffc9645ee97eb424bce9a6fae447ab97e7f167ba6e1cb6136114b560405160405180910390a4505050565b60007f01ffc9a7000000000000000000000000000000000000000000000000000000007bffffffffffffffffffffffffffffffffffffffffffffffffffffffff1916827bffffffffffffffffffffffffffffffffffffffffffffffffffffffff1916149050919050565b60008073ffffffffffffffffffffffffffffffffffffffff166002600084815260200190815260200160002060009054906101000a900473ffffffffffffffffffffffffffffffffffffffff1673ffffffffffffffffffffffffffffffffffffffff1614159050919050565b600033905090565b816004600083815260200190815260200160002060006101000a81548173ffffffffffffffffffffffffffffffffffffffff021916908373ffffffffffffffffffffffffffffffffffffffff160217905550808273ffffffffffffffffffffffffffffffffffffffff166118ae83610f50565b73ffffffffffffffffffffffffffffffffffffffff167f8c5be1e5ebec7d5bd14f71427d1e84f3dd0314c0f7b2291e5b200ac8c7c3b92560405160405180910390a45050565b6060600082141561193c576040518060400160405280600181526020017f30000000000000000000000000000000000000000000000000000000000000008152509050611ac4565b600082905060005b6000821461196e578080611957906141d9565b915050600a826119679190614025565b9150611944565b60008167ffffffffffffffff8111156119b0577f4e487b7100000000000000000000000000000000000000000000000000000000600052604160045260246000fd5b6040519080825280601f01601f1916602001820160405280156119e25781602001600182028036833780820191505090505b50905060008290505b60008614611abc57600181611a0091906140b0565b90506000600a8088611a129190614025565b611a1c9190614056565b87611a2791906140b0565b6030611a339190613fee565b905060008160f81b905080848481518110611a77577f4e487b7100000000000000000000000000000000000000000000000000000000600052603260045260246000fd5b60200101907effffffffffffffffffffffffffffffffffffffffffffffffffffffffffffff1916908160001a905350600a88611ab39190614025565b975050506119eb565b819450505050505b919050565b6000611ad4826117c7565b611b13576040517f08c379a0000000000000000000000000000000000000000000000000000000008152600401611b0a90613d29565b60405180910390fd5b6000611b1e83610f50565b90508073ffffffffffffffffffffffffffffffffffffffff168473ffffffffffffffffffffffffffffffffffffffff161480611b8d57508373ffffffffffffffffffffffffffffffffffffffff16611b7584610728565b73ffffffffffffffffffffffffffffffffffffffff16145b80611b9e5750611b9d81856115de565b5b91505092915050565b8273ffffffffffffffffffffffffffffffffffffffff16611bc782610f50565b73ffffffffffffffffffffffffffffffffffffffff1614611c1d576040517f08c379a0000000000000000000000000000000000000000000000000000000008152600401611c1490613e29565b60405180910390fd5b600073ffffffffffffffffffffffffffffffffffffffff168273ffffffffffffffffffffffffffffffffffffffff161415611c8d576040517f08c379a0000000000000000000000000000000000000000000000000000000008152600401611c8490613cc9565b60405180910390fd5b611c9883838361266c565b611ca360008261183b565b6001600360008573ffffffffffffffffffffffffffffffffffffffff1673ffffffffffffffffffffffffffffffffffffffff1681526020019081526020016000206000828254611cf391906140b0565b925050819055506001600360008473ffffffffffffffffffffffffffffffffffffffff1673ffffffffffffffffffffffffffffffffffffffff1681526020019081526020016000206000828254611d4a9190613f98565b92505081905550816002600083815260200190815260200160002060006101000a81548173ffffffffffffffffffffffffffffffffffffffff021916908373ffffffffffffffffffffffffffffffffffffffff160217905550808273ffffffffffffffffffffffffffffffffffffffff168473ffffffffffffffffffffffffffffffffffffffff167fddf252ad1be2c89b69c2b068fc378daa952ba7f163c4a11628f55a4df523b3ef60405160405180910390a4505050565b6060600082511415611e2657604051806020016040528060008152509050611f9d565b60006040518060600160405280604081526020016143ac6040913990506000600360028551611e559190613f98565b611e5f9190614025565b6004611e6b9190614056565b90506000602082611e7c9190613f98565b67ffffffffffffffff811115611ebb577f4e487b7100000000000000000000000000000000000000000000000000000000600052604160045260246000fd5b6040519080825280601f01601f191660200182016040528015611eed5781602001600182028036833780820191505090505b509050818152600183018586518101602084015b81831015611f5c576003830192508251603f8160121c168501518253600182019150603f81600c1c168501518253600182019150603f8160061c168501518253600182019150603f8116850151825360018201915050611f01565b600389510660018114611f765760028114611f8657611f91565b613d3d60f01b6002830352611f91565b603d60f81b60018303525b50505050508093505050505b919050565b61203881604051602401611fb69190613c29565b6040516020818303038152906040527f41304fac000000000000000000000000000000000000000000000000000000007bffffffffffffffffffffffffffffffffffffffffffffffffffffffff19166020820180517bffffffffffffffffffffffffffffffffffffffffffffffffffffffff8381831617835250505050612671565b50565b8173ffffffffffffffffffffffffffffffffffffffff168373ffffffffffffffffffffffffffffffffffffffff1614156120aa576040517f08c379a00000000000000000000000000000000000000000000000000000000081526004016120a190613ce9565b60405180910390fd5b80600560008573ffffffffffffffffffffffffffffffffffffffff1673ffffffffffffffffffffffffffffffffffffffff16815260200190815260200160002060008473ffffffffffffffffffffffffffffffffffffffff1673ffffffffffffffffffffffffffffffffffffffff16815260200190815260200160002060006101000a81548160ff0219169083151502179055508173ffffffffffffffffffffffffffffffffffffffff168373ffffffffffffffffffffffffffffffffffffffff167f17307eab39ab6107e8899845ad3d59bd9653f200f220920489ca2b5937696c318360405161219b9190613c0e565b60405180910390a3505050565b6121b3848484611ba7565b6121bf8484848461269a565b6121fe576040517f08c379a00000000000000000000000000000000000000000000000000000000081526004016121f590613c89565b60405180910390fd5b50505050565b606060405180602001604052806000815250905090565b6060612226826117c7565b612265576040517f08c379a000000000000000000000000000000000000000000000000000000000815260040161225c90613e49565b60405180910390fd5b600061226f612204565b9050600081511161228f57604051806020016040528060008152506122ba565b80612299846122c2565b6040516020016122aa9291906139c6565b6040516020818303038152906040525b915050919050565b6060600082141561230a576040518060400160405280600181526020017f3000000000000000000000000000000000000000000000000000000000000000815250905061246a565b600082905060005b6000821461233c578080612325906141d9565b915050600a826123359190614025565b9150612312565b60008167ffffffffffffffff81111561237e577f4e487b7100000000000000000000000000000000000000000000000000000000600052604160045260246000fd5b6040519080825280601f01601f1916602001820160405280156123b05781602001600182028036833780820191505090505b5090505b60008514612463576001826123c991906140b0565b9150600a856123d8919061422c565b60306123e49190613f98565b60f81b818381518110612420577f4e487b7100000000000000000000000000000000000000000000000000000000600052603260045260246000fd5b60200101907effffffffffffffffffffffffffffffffffffffffffffffffffffffffffffff1916908160001a905350600a8561245c9190614025565b94506123b4565b8093505050505b919050565b60008160405160200161248291906139af565b6040516020818303038152906040528051906020012060001c9050919050565b612538816040516024016124b69190613ea9565b6040516020818303038152906040527ff5b1bba9000000000000000000000000000000000000000000000000000000007bffffffffffffffffffffffffffffffffffffffffffffffffffffffff19166020820180517bffffffffffffffffffffffffffffffffffffffffffffffffffffffff8381831617835250505050612671565b50565b612555828260405180602001604052806000815250612831565b5050565b612562826117c7565b6125a1576040517f08c379a000000000000000000000000000000000000000000000000000000000815260040161259890613da9565b60405180910390fd5b806006600084815260200190815260200160002090805190602001906125c8929190612a6d565b505050565b6126678383836040516024016125e593929190613c4b565b6040516020818303038152906040527fe3849f79000000000000000000000000000000000000000000000000000000007bffffffffffffffffffffffffffffffffffffffffffffffffffffffff19166020820180517bffffffffffffffffffffffffffffffffffffffffffffffffffffffff8381831617835250505050612671565b505050565b505050565b60008151905060006a636f6e736f6c652e6c6f679050602083016000808483855afa5050505050565b60006126bb8473ffffffffffffffffffffffffffffffffffffffff1661288c565b15612824578373ffffffffffffffffffffffffffffffffffffffff1663150b7a026126e4611833565b8786866040518563ffffffff1660e01b81526004016127069493929190613bc2565b602060405180830381600087803b15801561272057600080fd5b505af192505050801561275157506040513d601f19601f8201168201806040525081019061274e9190612e19565b60015b6127d4573d8060008114612781576040519150601f19603f3d011682016040523d82523d6000602084013e612786565b606091505b506000815114156127cc576040517f08c379a00000000000000000000000000000000000000000000000000000000081526004016127c390613c89565b60405180910390fd5b805181602001fd5b63150b7a0260e01b7bffffffffffffffffffffffffffffffffffffffffffffffffffffffff1916817bffffffffffffffffffffffffffffffffffffffffffffffffffffffff191614915050612829565b600190505b949350505050565b61283b838361289f565b612848600084848461269a565b612887576040517f08c379a000000000000000000000000000000000000000000000000000000000815260040161287e90613c89565b60405180910390fd5b505050565b600080823b905060008111915050919050565b600073ffffffffffffffffffffffffffffffffffffffff168273ffffffffffffffffffffffffffffffffffffffff16141561290f576040517f08c379a000000000000000000000000000000000000000000000000000000000815260040161290690613dc9565b60405180910390fd5b612918816117c7565b15612958576040517f08c379a000000000000000000000000000000000000000000000000000000000815260040161294f90613ca9565b60405180910390fd5b6129646000838361266c565b6001600360008473ffffffffffffffffffffffffffffffffffffffff1673ffffffffffffffffffffffffffffffffffffffff16815260200190815260200160002060008282546129b49190613f98565b92505081905550816002600083815260200190815260200160002060006101000a81548173ffffffffffffffffffffffffffffffffffffffff021916908373ffffffffffffffffffffffffffffffffffffffff160217905550808273ffffffffffffffffffffffffffffffffffffffff16600073ffffffffffffffffffffffffffffffffffffffff167fddf252ad1be2c89b69c2b068fc378daa952ba7f163c4a11628f55a4df523b3ef60405160405180910390a45050565b828054612a79906141a7565b90600052602060002090601f016020900481019282612a9b5760008555612ae2565b82601f10612ab457805160ff1916838001178555612ae2565b82800160010185558215612ae2579182015b82811115612ae1578251825591602001919060010190612ac6565b5b509050612aef9190612af3565b5090565b5b80821115612b0c576000816000905550600101612af4565b5090565b6000612b23612b1e84613ef5565b613ec4565b905082815260208101848484011115612b3b57600080fd5b612b46848285614165565b509392505050565b6000612b61612b5c84613f25565b613ec4565b905082815260208101848484011115612b7957600080fd5b612b84848285614165565b509392505050565b600081359050612b9b8161432a565b92915050565b600081359050612bb081614341565b92915050565b600081359050612bc581614358565b92915050565b600081519050612bda81614358565b92915050565b600082601f830112612bf157600080fd5b8135612c01848260208601612b10565b91505092915050565b600082601f830112612c1b57600080fd5b8135612c2b848260208601612b4e565b91505092915050565b600081359050612c438161436f565b92915050565b600060208284031215612c5b57600080fd5b6000612c6984828501612b8c565b91505092915050565b60008060408385031215612c8557600080fd5b6000612c9385828601612b8c565b9250506020612ca485828601612b8c565b9150509250929050565b600080600060608486031215612cc357600080fd5b6000612cd186828701612b8c565b9350506020612ce286828701612b8c565b9250506040612cf386828701612c34565b9150509250925092565b60008060008060808587031215612d1357600080fd5b6000612d2187828801612b8c565b9450506020612d3287828801612b8c565b9350506040612d4387828801612c34565b925050606085013567ffffffffffffffff811115612d6057600080fd5b612d6c87828801612be0565b91505092959194509250565b60008060408385031215612d8b57600080fd5b6000612d9985828601612b8c565b9250506020612daa85828601612ba1565b9150509250929050565b60008060408385031215612dc757600080fd5b6000612dd585828601612b8c565b9250506020612de685828601612c34565b9150509250929050565b600060208284031215612e0257600080fd5b6000612e1084828501612bb6565b91505092915050565b600060208284031215612e2b57600080fd5b6000612e3984828501612bcb565b91505092915050565b600060208284031215612e5457600080fd5b600082013567ffffffffffffffff811115612e6e57600080fd5b612e7a84828501612c0a565b91505092915050565b600060208284031215612e9557600080fd5b6000612ea384828501612c34565b91505092915050565b60008060408385031215612ebf57600080fd5b6000612ecd85828601612c34565b9250506020612ede85828601612c34565b9150509250929050565b612ef1816140e4565b82525050565b612f00816140f6565b82525050565b6000612f1182613f55565b612f1b8185613f6b565b9350612f2b818560208601614174565b612f3481614319565b840191505092915050565b6000612f4a82613f60565b612f548185613f7c565b9350612f64818560208601614174565b612f6d81614319565b840191505092915050565b6000612f8382613f60565b612f8d8185613f8d565b9350612f9d818560208601614174565b80840191505092915050565b6000612fb6601a83613f8d565b91507f7b226e616d65223a2022426c7572726564204c696e6573222c200000000000006000830152601a82019050919050565b6000612ff6603283613f7c565b91507f4552433732313a207472616e7366657220746f206e6f6e20455243373231526560008301527f63656976657220696d706c656d656e74657200000000000000000000000000006020830152604082019050919050565b600061305c601c83613f7c565b91507f4552433732313a20746f6b656e20616c7265616479206d696e746564000000006000830152602082019050919050565b600061309c602483613f7c565b91507f4552433732313a207472616e7366657220746f20746865207a65726f2061646460008301527f72657373000000000000000000000000000000000000000000000000000000006020830152604082019050919050565b6000613102601983613f7c565b91507f4552433732313a20617070726f766520746f2063616c6c6572000000000000006000830152602082019050919050565b6000613142602583613f7c565b91507f43616e6e6f74206d696e7420737065636966696564206e756d626572206f662060008301527f4e4654732e0000000000000000000000000000000000000000000000000000006020830152604082019050919050565b60006131a8602c83613f7c565b91507f4552433732313a206f70657261746f7220717565727920666f72206e6f6e657860008301527f697374656e7420746f6b656e00000000000000000000000000000000000000006020830152604082019050919050565b600061320e601d83613f8d565b91507f272066696c6c3d277472616e73706172656e7427207374726f6b653d270000006000830152601d82019050919050565b600061324e600183613f8d565b91507f20000000000000000000000000000000000000000000000000000000000000006000830152600182019050919050565b600061328e600383613f8d565b91507f272f3e00000000000000000000000000000000000000000000000000000000006000830152600382019050919050565b60006132ce603883613f7c565b91507f4552433732313a20617070726f76652063616c6c6572206973206e6f74206f7760008301527f6e6572206e6f7220617070726f76656420666f7220616c6c00000000000000006020830152604082019050919050565b6000613334602a83613f7c565b91507f4552433732313a2062616c616e636520717565727920666f7220746865207a6560008301527f726f2061646472657373000000000000000000000000000000000000000000006020830152604082019050919050565b600061339a602983613f7c565b91507f4552433732313a206f776e657220717565727920666f72206e6f6e657869737460008301527f656e7420746f6b656e00000000000000000000000000000000000000000000006020830152604082019050919050565b6000613400602e83613f7c565b91507f45524337323155524953746f726167653a2055524920736574206f66206e6f6e60008301527f6578697374656e7420746f6b656e0000000000000000000000000000000000006020830152604082019050919050565b6000613466600283613f8d565b91507f227d0000000000000000000000000000000000000000000000000000000000006000830152600282019050919050565b60006134a6602083613f7c565b91507f4552433732313a206d696e7420746f20746865207a65726f20616464726573736000830152602082019050919050565b60006134e6603183613f7c565b91507f45524337323155524953746f726167653a2055524920717565727920666f722060008301527f6e6f6e6578697374656e7420746f6b656e0000000000000000000000000000006020830152604082019050919050565b600061354c602c83613f7c565b91507f4552433732313a20617070726f76656420717565727920666f72206e6f6e657860008301527f697374656e7420746f6b656e00000000000000000000000000000000000000006020830152604082019050919050565b60006135b2602983613f7c565b91507f4552433732313a207472616e73666572206f6620746f6b656e2074686174206960008301527f73206e6f74206f776e00000000000000000000000000000000000000000000006020830152604082019050919050565b6000613618603083613f8d565b91507f3c73766720786d6c6e733d27687474703a2f2f7777772e77332e6f72672f323060008301527f30302f73766727206865696768743d27000000000000000000000000000000006020830152603082019050919050565b600061367e602f83613f7c565b91507f4552433732314d657461646174613a2055524920717565727920666f72206e6f60008301527f6e6578697374656e7420746f6b656e00000000000000000000000000000000006020830152604082019050919050565b60006136e4601283613f8d565b91507f2261747472696275746573223a2022222c2000000000000000000000000000006000830152601282019050919050565b6000613724602783613f8d565b91507f226465736372697074696f6e223a2022416e204e4654206261736564206f6e2060008301527f53564721222c20000000000000000000000000000000000000000000000000006020830152602782019050919050565b600061378a602183613f7c565b91507f4552433732313a20617070726f76616c20746f2063757272656e74206f776e6560008301527f72000000000000000000000000000000000000000000000000000000000000006020830152604082019050919050565b60006137f0601d83613f8d565b91507f646174613a6170706c69636174696f6e2f6a736f6e3b6261736536342c0000006000830152601d82019050919050565b6000613830603183613f7c565b91507f4552433732313a207472616e736665722063616c6c6572206973206e6f74206f60008301527f776e6572206e6f7220617070726f7665640000000000000000000000000000006020830152604082019050919050565b6000613896600283613f8d565b91507f273e0000000000000000000000000000000000000000000000000000000000006000830152600282019050919050565b60006138d6600a83613f8d565b91507f22696d616765223a2022000000000000000000000000000000000000000000006000830152600a82019050919050565b6000613916600683613f8d565b91507f3c2f7376673e00000000000000000000000000000000000000000000000000006000830152600682019050919050565b6000613956600983613f8d565b91507f272077696474683d2700000000000000000000000000000000000000000000006000830152600982019050919050565b6139928161414e565b82525050565b6139a96139a48261414e565b614222565b82525050565b60006139bb8284612f78565b915081905092915050565b60006139d28285612f78565b91506139de8284612f78565b91508190509392505050565b60006139f68286612f78565b9150613a028285612f78565b9150613a0d82613241565b9150613a198284612f78565b9150613a2482613241565b9150819050949350505050565b6000613a3d8285612f78565b9150613a4882613201565b9150613a548284612f78565b9150613a5f82613281565b91508190509392505050565b6000613a778284612f78565b9150613a8282613909565b915081905092915050565b6000613a9882612fa9565b9150613aa382613717565b9150613aae826136d7565b9150613ab9826138c9565b9150613ac58284612f78565b9150613ad082613459565b915081905092915050565b6000613ae68261360b565b9150613af28285612f78565b9150613afd82613949565b9150613b098284612f78565b9150613b1482613889565b91508190509392505050565b6000613b2b826137e3565b9150613b378284612f78565b915081905092915050565b6000613b4e8285613998565b602082019150613b5e8284613998565b6020820191508190509392505050565b6000613b7a8286613998565b602082019150613b8a8285613998565b602082019150613b9a8284612f78565b9150819050949350505050565b6000602082019050613bbc6000830184612ee8565b92915050565b6000608082019050613bd76000830187612ee8565b613be46020830186612ee8565b613bf16040830185613989565b8181036060830152613c038184612f06565b905095945050505050565b6000602082019050613c236000830184612ef7565b92915050565b60006020820190508181036000830152613c438184612f3f565b905092915050565b60006060820190508181036000830152613c658186612f3f565b9050613c746020830185613989565b613c816040830184612ee8565b949350505050565b60006020820190508181036000830152613ca281612fe9565b9050919050565b60006020820190508181036000830152613cc28161304f565b9050919050565b60006020820190508181036000830152613ce28161308f565b9050919050565b60006020820190508181036000830152613d02816130f5565b9050919050565b60006020820190508181036000830152613d2281613135565b9050919050565b60006020820190508181036000830152613d428161319b565b9050919050565b60006020820190508181036000830152613d62816132c1565b9050919050565b60006020820190508181036000830152613d8281613327565b9050919050565b60006020820190508181036000830152613da28161338d565b9050919050565b60006020820190508181036000830152613dc2816133f3565b9050919050565b60006020820190508181036000830152613de281613499565b9050919050565b60006020820190508181036000830152613e02816134d9565b9050919050565b60006020820190508181036000830152613e228161353f565b9050919050565b60006020820190508181036000830152613e42816135a5565b9050919050565b60006020820190508181036000830152613e6281613671565b9050919050565b60006020820190508181036000830152613e828161377d565b9050919050565b60006020820190508181036000830152613ea281613823565b9050919050565b6000602082019050613ebe6000830184613989565b92915050565b6000604051905081810181811067ffffffffffffffff82111715613eeb57613eea6142ea565b5b8060405250919050565b600067ffffffffffffffff821115613f1057613f0f6142ea565b5b601f19601f8301169050602081019050919050565b600067ffffffffffffffff821115613f4057613f3f6142ea565b5b601f19601f8301169050602081019050919050565b600081519050919050565b600081519050919050565b600082825260208201905092915050565b600082825260208201905092915050565b600081905092915050565b6000613fa38261414e565b9150613fae8361414e565b9250827fffffffffffffffffffffffffffffffffffffffffffffffffffffffffffffffff03821115613fe357613fe261425d565b5b828201905092915050565b6000613ff982614158565b915061400483614158565b92508260ff0382111561401a5761401961425d565b5b828201905092915050565b60006140308261414e565b915061403b8361414e565b92508261404b5761404a61428c565b5b828204905092915050565b60006140618261414e565b915061406c8361414e565b9250817fffffffffffffffffffffffffffffffffffffffffffffffffffffffffffffffff04831182151516156140a5576140a461425d565b5b828202905092915050565b60006140bb8261414e565b91506140c68361414e565b9250828210156140d9576140d861425d565b5b828203905092915050565b60006140ef8261412e565b9050919050565b60008115159050919050565b60007fffffffff0000000000000000000000000000000000000000000000000000000082169050919050565b600073ffffffffffffffffffffffffffffffffffffffff82169050919050565b6000819050919050565b600060ff82169050919050565b82818337600083830152505050565b60005b83811015614192578082015181840152602081019050614177565b838111156141a1576000848401525b50505050565b600060028204905060018216806141bf57607f821691505b602082108114156141d3576141d26142bb565b5b50919050565b60006141e48261414e565b91507fffffffffffffffffffffffffffffffffffffffffffffffffffffffffffffffff8214156142175761421661425d565b5b600182019050919050565b6000819050919050565b60006142378261414e565b91506142428361414e565b9250826142525761425161428c565b5b828206905092915050565b7f4e487b7100000000000000000000000000000000000000000000000000000000600052601160045260246000fd5b7f4e487b7100000000000000000000000000000000000000000000000000000000600052601260045260246000fd5b7f4e487b7100000000000000000000000000000000000000000000000000000000600052602260045260246000fd5b7f4e487b7100000000000000000000000000000000000000000000000000000000600052604160045260246000fd5b6000601f19601f8301169050919050565b614333816140e4565b811461433e57600080fd5b50565b61434a816140f6565b811461435557600080fd5b50565b61436181614102565b811461436c57600080fd5b50565b6143788161414e565b811461438357600080fd5b5056fe416e204e465420772f20494420257320686173206265656e206d696e74656420746f2025734142434445464748494a4b4c4d4e4f505152535455565758595a6162636465666768696a6b6c6d6e6f707172737475767778797a303132333435363738392b2fa26469706673582212207a93e672a72d1f2faff2b2fb3827d1f92c097f08cb02b823c31666137dd8d2ce64736f6c63430008000033",
    "linkReferences": {},
    "deployedLinkReferences": {}
}