{
  "address": "0x9f2012f45A4Fc525e7E950Bb33c4C26315777f69",
  "abi": [
    {
      "inputs": [],
      "stateMutability": "nonpayable",
      "type": "constructor"
    },
    {
      "anonymous": false,
      "inputs": [
        {
          "indexed": true,
          "internalType": "address",
          "name": "owner",
          "type": "address"
        },
        {
          "indexed": true,
          "internalType": "address",
          "name": "approved",
          "type": "address"
        },
        {
          "indexed": true,
          "internalType": "uint256",
          "name": "tokenId",
          "type": "uint256"
        }
      ],
      "name": "Approval",
      "type": "event"
    },
    {
      "anonymous": false,
      "inputs": [
        {
          "indexed": true,
          "internalType": "address",
          "name": "owner",
          "type": "address"
        },
        {
          "indexed": true,
          "internalType": "address",
          "name": "operator",
          "type": "address"
        },
        {
          "indexed": false,
          "internalType": "bool",
          "name": "approved",
          "type": "bool"
        }
      ],
      "name": "ApprovalForAll",
      "type": "event"
    },
    {
      "anonymous": false,
      "inputs": [
        {
          "indexed": true,
          "internalType": "uint256",
          "name": "tokenId",
          "type": "uint256"
        },
        {
          "indexed": false,
          "internalType": "string",
          "name": "tokenURI",
          "type": "string"
        }
      ],
      "name": "CreatedRandomSVG",
      "type": "event"
    },
    {
      "anonymous": false,
      "inputs": [
        {
          "indexed": true,
          "internalType": "address",
          "name": "sender",
          "type": "address"
        },
        {
          "indexed": true,
          "internalType": "uint256",
          "name": "tokenId",
          "type": "uint256"
        },
        {
          "indexed": true,
          "internalType": "uint256",
          "name": "rand",
          "type": "uint256"
        }
      ],
      "name": "NewNFTMinted",
      "type": "event"
    },
    {
      "anonymous": false,
      "inputs": [
        {
          "indexed": true,
          "internalType": "address",
          "name": "from",
          "type": "address"
        },
        {
          "indexed": true,
          "internalType": "address",
          "name": "to",
          "type": "address"
        },
        {
          "indexed": true,
          "internalType": "uint256",
          "name": "tokenId",
          "type": "uint256"
        }
      ],
      "name": "Transfer",
      "type": "event"
    },
    {
      "inputs": [
        {
          "internalType": "address",
          "name": "to",
          "type": "address"
        },
        {
          "internalType": "uint256",
          "name": "tokenId",
          "type": "uint256"
        }
      ],
      "name": "approve",
      "outputs": [],
      "stateMutability": "nonpayable",
      "type": "function"
    },
    {
      "inputs": [
        {
          "internalType": "address",
          "name": "owner",
          "type": "address"
        }
      ],
      "name": "balanceOf",
      "outputs": [
        {
          "internalType": "uint256",
          "name": "",
          "type": "uint256"
        }
      ],
      "stateMutability": "view",
      "type": "function"
    },
    {
      "inputs": [
        {
          "internalType": "uint256",
          "name": "",
          "type": "uint256"
        }
      ],
      "name": "colors",
      "outputs": [
        {
          "internalType": "string",
          "name": "",
          "type": "string"
        }
      ],
      "stateMutability": "view",
      "type": "function"
    },
    {
      "inputs": [],
      "name": "create",
      "outputs": [],
      "stateMutability": "nonpayable",
      "type": "function"
    },
    {
      "inputs": [
        {
          "internalType": "string",
          "name": "_imageURI",
          "type": "string"
        }
      ],
      "name": "formatTokenURI",
      "outputs": [
        {
          "internalType": "string",
          "name": "",
          "type": "string"
        }
      ],
      "stateMutability": "pure",
      "type": "function"
    },
    {
      "inputs": [
        {
          "internalType": "uint256",
          "name": "_randomNumber",
          "type": "uint256"
        }
      ],
      "name": "generatePath",
      "outputs": [
        {
          "internalType": "string",
          "name": "pathSvg",
          "type": "string"
        }
      ],
      "stateMutability": "view",
      "type": "function"
    },
    {
      "inputs": [
        {
          "internalType": "uint256",
          "name": "_randomNumber",
          "type": "uint256"
        }
      ],
      "name": "generatePathCommand",
      "outputs": [
        {
          "internalType": "string",
          "name": "pathCommand",
          "type": "string"
        }
      ],
      "stateMutability": "view",
      "type": "function"
    },
    {
      "inputs": [
        {
          "internalType": "uint256",
          "name": "_randomNumber",
          "type": "uint256"
        }
      ],
      "name": "generateSVG",
      "outputs": [
        {
          "internalType": "string",
          "name": "finalSVG",
          "type": "string"
        }
      ],
      "stateMutability": "view",
      "type": "function"
    },
    {
      "inputs": [
        {
          "internalType": "uint256",
          "name": "tokenId",
          "type": "uint256"
        }
      ],
      "name": "getApproved",
      "outputs": [
        {
          "internalType": "address",
          "name": "",
          "type": "address"
        }
      ],
      "stateMutability": "view",
      "type": "function"
    },
    {
      "inputs": [
        {
          "internalType": "address",
          "name": "owner",
          "type": "address"
        },
        {
          "internalType": "address",
          "name": "operator",
          "type": "address"
        }
      ],
      "name": "isApprovedForAll",
      "outputs": [
        {
          "internalType": "bool",
          "name": "",
          "type": "bool"
        }
      ],
      "stateMutability": "view",
      "type": "function"
    },
    {
      "inputs": [],
      "name": "maxNumberOfPathCommands",
      "outputs": [
        {
          "internalType": "uint256",
          "name": "",
          "type": "uint256"
        }
      ],
      "stateMutability": "view",
      "type": "function"
    },
    {
      "inputs": [],
      "name": "maxNumberOfPaths",
      "outputs": [
        {
          "internalType": "uint256",
          "name": "",
          "type": "uint256"
        }
      ],
      "stateMutability": "view",
      "type": "function"
    },
    {
      "inputs": [],
      "name": "name",
      "outputs": [
        {
          "internalType": "string",
          "name": "",
          "type": "string"
        }
      ],
      "stateMutability": "view",
      "type": "function"
    },
    {
      "inputs": [
        {
          "internalType": "uint256",
          "name": "tokenId",
          "type": "uint256"
        }
      ],
      "name": "ownerOf",
      "outputs": [
        {
          "internalType": "address",
          "name": "",
          "type": "address"
        }
      ],
      "stateMutability": "view",
      "type": "function"
    },
    {
      "inputs": [
        {
          "internalType": "uint256",
          "name": "",
          "type": "uint256"
        }
      ],
      "name": "pathCommands",
      "outputs": [
        {
          "internalType": "string",
          "name": "",
          "type": "string"
        }
      ],
      "stateMutability": "view",
      "type": "function"
    },
    {
      "inputs": [
        {
          "internalType": "address",
          "name": "from",
          "type": "address"
        },
        {
          "internalType": "address",
          "name": "to",
          "type": "address"
        },
        {
          "internalType": "uint256",
          "name": "tokenId",
          "type": "uint256"
        }
      ],
      "name": "safeTransferFrom",
      "outputs": [],
      "stateMutability": "nonpayable",
      "type": "function"
    },
    {
      "inputs": [
        {
          "internalType": "address",
          "name": "from",
          "type": "address"
        },
        {
          "internalType": "address",
          "name": "to",
          "type": "address"
        },
        {
          "internalType": "uint256",
          "name": "tokenId",
          "type": "uint256"
        },
        {
          "internalType": "bytes",
          "name": "_data",
          "type": "bytes"
        }
      ],
      "name": "safeTransferFrom",
      "outputs": [],
      "stateMutability": "nonpayable",
      "type": "function"
    },
    {
      "inputs": [
        {
          "internalType": "address",
          "name": "operator",
          "type": "address"
        },
        {
          "internalType": "bool",
          "name": "approved",
          "type": "bool"
        }
      ],
      "name": "setApprovalForAll",
      "outputs": [],
      "stateMutability": "nonpayable",
      "type": "function"
    },
    {
      "inputs": [],
      "name": "size",
      "outputs": [
        {
          "internalType": "uint256",
          "name": "",
          "type": "uint256"
        }
      ],
      "stateMutability": "view",
      "type": "function"
    },
    {
      "inputs": [
        {
          "internalType": "bytes4",
          "name": "interfaceId",
          "type": "bytes4"
        }
      ],
      "name": "supportsInterface",
      "outputs": [
        {
          "internalType": "bool",
          "name": "",
          "type": "bool"
        }
      ],
      "stateMutability": "view",
      "type": "function"
    },
    {
      "inputs": [
        {
          "internalType": "string",
          "name": "_svg",
          "type": "string"
        }
      ],
      "name": "svgToImageURI",
      "outputs": [
        {
          "internalType": "string",
          "name": "",
          "type": "string"
        }
      ],
      "stateMutability": "pure",
      "type": "function"
    },
    {
      "inputs": [],
      "name": "symbol",
      "outputs": [
        {
          "internalType": "string",
          "name": "",
          "type": "string"
        }
      ],
      "stateMutability": "view",
      "type": "function"
    },
    {
      "inputs": [],
      "name": "tokenCounter",
      "outputs": [
        {
          "internalType": "uint256",
          "name": "",
          "type": "uint256"
        }
      ],
      "stateMutability": "view",
      "type": "function"
    },
    {
      "inputs": [
        {
          "internalType": "uint256",
          "name": "tokenId",
          "type": "uint256"
        }
      ],
      "name": "tokenURI",
      "outputs": [
        {
          "internalType": "string",
          "name": "",
          "type": "string"
        }
      ],
      "stateMutability": "view",
      "type": "function"
    },
    {
      "inputs": [
        {
          "internalType": "address",
          "name": "from",
          "type": "address"
        },
        {
          "internalType": "address",
          "name": "to",
          "type": "address"
        },
        {
          "internalType": "uint256",
          "name": "tokenId",
          "type": "uint256"
        }
      ],
      "name": "transferFrom",
      "outputs": [],
      "stateMutability": "nonpayable",
      "type": "function"
    }
  ],
  "transactionHash": "0x5cdf5754955f87c6ae965f8dd6a8f151d23d034de6fcc8e6e64ae0a2adc2ef76",
  "args": [],
  "numDeployments": 7,
  "solcInputHash": "e7131a2594a48bdeb81c837eb662b24a",
  "bytecode": "0x60806040523480156200001157600080fd5b506040518060400160405280600981526020017f52616e646f6d53564700000000000000000000000000000000000000000000008152506040518060400160405280600581526020017f72734e4654000000000000000000000000000000000000000000000000000000815250816000908051906020019062000096929190620002e9565b508060019080519060200190620000af929190620002e9565b5050506000600781905550600a60088190555060056009819055506101f4600a8190555060405180604001604052806040518060400160405280600181526020017f4d0000000000000000000000000000000000000000000000000000000000000081525081526020016040518060400160405280600181526020017f4c00000000000000000000000000000000000000000000000000000000000000815250815250600b906002620001649291906200037a565b506040518060c001604052806040518060400160405280600381526020017f726564000000000000000000000000000000000000000000000000000000000081525081526020016040518060400160405280600481526020017f626c75650000000000000000000000000000000000000000000000000000000081525081526020016040518060400160405280600581526020017f677265656e00000000000000000000000000000000000000000000000000000081525081526020016040518060400160405280600681526020017f79656c6c6f77000000000000000000000000000000000000000000000000000081525081526020016040518060400160405280600581526020017f626c61636b00000000000000000000000000000000000000000000000000000081525081526020016040518060400160405280600581526020017f7768697465000000000000000000000000000000000000000000000000000000815250815250600c906006620002e2929190620003e1565b506200053a565b828054620002f790620004d5565b90600052602060002090601f0160209004810192826200031b576000855562000367565b82601f106200033657805160ff191683800117855562000367565b8280016001018555821562000367579182015b828111156200036657825182559160200191906001019062000349565b5b50905062000376919062000448565b5090565b828054828255906000526020600020908101928215620003ce579160200282015b82811115620003cd578251829080519060200190620003bc929190620002e9565b50916020019190600101906200039b565b5b509050620003dd919062000467565b5090565b82805482825590600052602060002090810192821562000435579160200282015b828111156200043457825182908051906020019062000423929190620002e9565b509160200191906001019062000402565b5b50905062000444919062000467565b5090565b5b808211156200046357600081600090555060010162000449565b5090565b5b808211156200048b57600081816200048191906200048f565b5060010162000468565b5090565b5080546200049d90620004d5565b6000825580601f10620004b15750620004d2565b601f016020900490600052602060002090810190620004d1919062000448565b5b50565b60006002820490506001821680620004ee57607f821691505b602082108114156200050557620005046200050b565b5b50919050565b7f4e487b7100000000000000000000000000000000000000000000000000000000600052602260045260246000fd5b6141da806200054a6000396000f3fe608060405234801561001057600080fd5b50600436106101735760003560e01c806371aee193116100de578063bd11f69d11610097578063c87b56dd11610071578063c87b56dd146104aa578063d082e381146104da578063e985e9c5146104f8578063efc81a8c1461052857610173565b8063bd11f69d1461042c578063c21bf36f1461045c578063c68b49d11461047a57610173565b806371aee19314610358578063949d225d14610388578063955968d4146103a657806395d89b41146103d6578063a22cb465146103f4578063b88d4fde1461041057610173565b806333af59891161013057806333af59891461025e57806342842e0e1461028e57806348e896ab146102aa5780636352211e146102c85780636dcee4ca146102f857806370a082311461032857610173565b806301ffc9a71461017857806306fdde03146101a8578063081812fc146101c6578063095ea7b3146101f657806323b872dd1461021257806330d871c61461022e575b600080fd5b610192600480360381019061018d9190612b5f565b610532565b60405161019f91906139a7565b60405180910390f35b6101b0610614565b6040516101bd91906139c2565b60405180910390f35b6101e060048036038101906101db9190612bf2565b6106a6565b6040516101ed9190613940565b60405180910390f35b610210600480360381019061020b9190612b23565b61072b565b005b61022c60048036038101906102279190612a1d565b610843565b005b61024860048036038101906102439190612bb1565b6108a3565b60405161025591906139c2565b60405180910390f35b61027860048036038101906102739190612bf2565b61093c565b60405161028591906139c2565b60405180910390f35b6102a860048036038101906102a39190612a1d565b610b2e565b005b6102b2610b4e565b6040516102bf9190613c62565b60405180910390f35b6102e260048036038101906102dd9190612bf2565b610b54565b6040516102ef9190613940565b60405180910390f35b610312600480360381019061030d9190612bf2565b610c06565b60405161031f91906139c2565b60405180910390f35b610342600480360381019061033d91906129b8565b610d08565b60405161034f9190613c62565b60405180910390f35b610372600480360381019061036d9190612bb1565b610dc0565b60405161037f91906139c2565b60405180910390f35b610390610e1c565b60405161039d9190613c62565b60405180910390f35b6103c060048036038101906103bb9190612bf2565b610e22565b6040516103cd91906139c2565b60405180910390f35b6103de610ece565b6040516103eb91906139c2565b60405180910390f35b61040e60048036038101906104099190612ae7565b610f60565b005b61042a60048036038101906104259190612a6c565b610f76565b005b61044660048036038101906104419190612bf2565b610fd8565b60405161045391906139c2565b60405180910390f35b610464611084565b6040516104719190613c62565b60405180910390f35b610494600480360381019061048f9190612bf2565b61108a565b6040516104a191906139c2565b60405180910390f35b6104c460048036038101906104bf9190612bf2565b61123d565b6040516104d191906139c2565b60405180910390f35b6104e261138f565b6040516104ef9190613c62565b60405180910390f35b610512600480360381019061050d91906129e1565b611395565b60405161051f91906139a7565b60405180910390f35b610530611429565b005b60007f80ac58cd000000000000000000000000000000000000000000000000000000007bffffffffffffffffffffffffffffffffffffffffffffffffffffffff1916827bffffffffffffffffffffffffffffffffffffffffffffffffffffffff191614806105fd57507f5b5e139f000000000000000000000000000000000000000000000000000000007bffffffffffffffffffffffffffffffffffffffffffffffffffffffff1916827bffffffffffffffffffffffffffffffffffffffffffffffffffffffff1916145b8061060d575061060c826114fd565b5b9050919050565b60606000805461062390613f60565b80601f016020809104026020016040519081016040528092919081815260200182805461064f90613f60565b801561069c5780601f106106715761010080835404028352916020019161069c565b820191906000526020600020905b81548152906001019060200180831161067f57829003601f168201915b5050505050905090565b60006106b182611567565b6106f0576040517f08c379a00000000000000000000000000000000000000000000000000000000081526004016106e790613ba2565b60405180910390fd5b6004600083815260200190815260200160002060009054906101000a900473ffffffffffffffffffffffffffffffffffffffff169050919050565b600061073682610b54565b90508073ffffffffffffffffffffffffffffffffffffffff168373ffffffffffffffffffffffffffffffffffffffff1614156107a7576040517f08c379a000000000000000000000000000000000000000000000000000000000815260040161079e90613c22565b60405180910390fd5b8073ffffffffffffffffffffffffffffffffffffffff166107c66115d3565b73ffffffffffffffffffffffffffffffffffffffff1614806107f557506107f4816107ef6115d3565b611395565b5b610834576040517f08c379a000000000000000000000000000000000000000000000000000000000815260040161082b90613ae2565b60405180910390fd5b61083e83836115db565b505050565b61085461084e6115d3565b82611694565b610893576040517f08c379a000000000000000000000000000000000000000000000000000000000815260040161088a90613c42565b60405180910390fd5b61089e838383611772565b505050565b606060006040518060400160405280601a81526020017f646174613a696d6167652f7376672b786d6c3b6261736536342c00000000000081525090506000610909846040516020016108f59190613748565b6040516020818303038152906040526119ce565b90506000828260405160200161092092919061375f565b6040516020818303038152906040529050809350505050919050565b606060006001600954846109509190613fe5565b61095a9190613d51565b90506040518060400160405280601a81526020017f3c70617468207374726f6b652d77696474683d27382720643d27000000000000815250915060005b81811015610a225760008482600a546109b09190613d51565b6040516020016109c19291906138db565b6040516020818303038152906040528051906020012060001c905060006109e78261108a565b905084816040516020016109fc92919061375f565b604051602081830303815290604052945050508080610a1a90613f92565b915050610997565b506000600c808054905085610a379190613fe5565b81548110610a6e577f4e487b7100000000000000000000000000000000000000000000000000000000600052603260045260246000fd5b906000526020600020018054610a8390613f60565b80601f0160208091040260200160405190810160405280929190818152602001828054610aaf90613f60565b8015610afc5780601f10610ad157610100808354040283529160200191610afc565b820191906000526020600020905b815481529060010190602001808311610adf57829003601f168201915b505050505090508281604051602001610b169291906137ca565b60405160208183030381529060405292505050919050565b610b4983838360405180602001604052806000815250610f76565b505050565b60095481565b6000806002600084815260200190815260200160002060009054906101000a900473ffffffffffffffffffffffffffffffffffffffff169050600073ffffffffffffffffffffffffffffffffffffffff168173ffffffffffffffffffffffffffffffffffffffff161415610bfd576040517f08c379a0000000000000000000000000000000000000000000000000000000008152600401610bf490613b22565b60405180910390fd5b80915050919050565b60606000600160085484610c1a9190613fe5565b610c249190613d51565b9050610c31600a54611b6d565b610c3c600a54611b6d565b604051602001610c4d929190613874565b604051602081830303815290604052915060005b81811015610cdf5760008482604051602001610c7e9291906138db565b6040516020818303038152906040528051906020012060001c90506000610ca48261093c565b90508481604051602001610cb992919061375f565b604051602081830303815290604052945050508080610cd790613f92565b915050610c61565b5081604051602001610cf19190613804565b604051602081830303815290604052915050919050565b60008073ffffffffffffffffffffffffffffffffffffffff168273ffffffffffffffffffffffffffffffffffffffff161415610d79576040517f08c379a0000000000000000000000000000000000000000000000000000000008152600401610d7090613b02565b60405180910390fd5b600360008373ffffffffffffffffffffffffffffffffffffffff1673ffffffffffffffffffffffffffffffffffffffff168152602001908152602001600020549050919050565b60606000610dec83604051602001610dd89190613826565b6040516020818303038152906040526119ce565b9050600081604051602001610e0191906138b9565b60405160208183030381529060405290508092505050919050565b600a5481565b600b8181548110610e3257600080fd5b906000526020600020016000915090508054610e4d90613f60565b80601f0160208091040260200160405190810160405280929190818152602001828054610e7990613f60565b8015610ec65780601f10610e9b57610100808354040283529160200191610ec6565b820191906000526020600020905b815481529060010190602001808311610ea957829003601f168201915b505050505081565b606060018054610edd90613f60565b80601f0160208091040260200160405190810160405280929190818152602001828054610f0990613f60565b8015610f565780601f10610f2b57610100808354040283529160200191610f56565b820191906000526020600020905b815481529060010190602001808311610f3957829003601f168201915b5050505050905090565b610f72610f6b6115d3565b8383611d42565b5050565b610f87610f816115d3565b83611694565b610fc6576040517f08c379a0000000000000000000000000000000000000000000000000000000008152600401610fbd90613c42565b60405180910390fd5b610fd284848484611eaf565b50505050565b600c8181548110610fe857600080fd5b90600052602060002001600091509050805461100390613f60565b80601f016020809104026020016040519081016040528092919081815260200182805461102f90613f60565b801561107c5780601f106110515761010080835404028352916020019161107c565b820191906000526020600020905b81548152906001019060200180831161105f57829003601f168201915b505050505081565b60085481565b6060600b80805490508361109e9190613fe5565b815481106110d5577f4e487b7100000000000000000000000000000000000000000000000000000000600052603260045260246000fd5b9060005260206000200180546110ea90613f60565b80601f016020809104026020016040519081016040528092919081815260200182805461111690613f60565b80156111635780601f1061113857610100808354040283529160200191611163565b820191906000526020600020905b81548152906001019060200180831161114657829003601f168201915b505050505090506000600a54836002600a5461117f9190613e0f565b6040516020016111909291906138db565b6040516020818303038152906040528051906020012060001c6111b39190613fe5565b90506000600a54846003600a546111ca9190613e0f565b6040516020016111db9291906138db565b6040516020818303038152906040528051906020012060001c6111fe9190613fe5565b90508261120a83611b6d565b61121383611b6d565b60405160200161122593929190613783565b60405160208183030381529060405292505050919050565b606061124882611567565b611287576040517f08c379a000000000000000000000000000000000000000000000000000000000815260040161127e90613b82565b60405180910390fd5b60006006600084815260200190815260200160002080546112a790613f60565b80601f01602080910402602001604051908101604052809291908181526020018280546112d390613f60565b80156113205780601f106112f557610100808354040283529160200191611320565b820191906000526020600020905b81548152906001019060200180831161130357829003601f168201915b505050505090506000611331611f0b565b905060008151141561134757819250505061138a565b60008251111561137c57808260405160200161136492919061375f565b6040516020818303038152906040529250505061138a565b61138584611f22565b925050505b919050565b60075481565b6000600560008473ffffffffffffffffffffffffffffffffffffffff1673ffffffffffffffffffffffffffffffffffffffff16815260200190815260200160002060008373ffffffffffffffffffffffffffffffffffffffff1673ffffffffffffffffffffffffffffffffffffffff16815260200190815260200160002060009054906101000a900460ff16905092915050565b60006007549050600160075461143f9190613d51565b60078190555061144f3382611fc9565b611472604051806060016040528060258152602001614140602591398233611fe7565b60006114a8444261148285612086565b60405160200161149493929190613907565b604051602081830303815290604052612233565b905080823373ffffffffffffffffffffffffffffffffffffffff167f4954d8fa44ffc9645ee97eb424bce9a6fae447ab97e7f167ba6e1cb6136114b560405160405180910390a46114f98282612266565b5050565b60007f01ffc9a7000000000000000000000000000000000000000000000000000000007bffffffffffffffffffffffffffffffffffffffffffffffffffffffff1916827bffffffffffffffffffffffffffffffffffffffffffffffffffffffff1916149050919050565b60008073ffffffffffffffffffffffffffffffffffffffff166002600084815260200190815260200160002060009054906101000a900473ffffffffffffffffffffffffffffffffffffffff1673ffffffffffffffffffffffffffffffffffffffff1614159050919050565b600033905090565b816004600083815260200190815260200160002060006101000a81548173ffffffffffffffffffffffffffffffffffffffff021916908373ffffffffffffffffffffffffffffffffffffffff160217905550808273ffffffffffffffffffffffffffffffffffffffff1661164e83610b54565b73ffffffffffffffffffffffffffffffffffffffff167f8c5be1e5ebec7d5bd14f71427d1e84f3dd0314c0f7b2291e5b200ac8c7c3b92560405160405180910390a45050565b600061169f82611567565b6116de576040517f08c379a00000000000000000000000000000000000000000000000000000000081526004016116d590613aa2565b60405180910390fd5b60006116e983610b54565b90508073ffffffffffffffffffffffffffffffffffffffff168473ffffffffffffffffffffffffffffffffffffffff16148061175857508373ffffffffffffffffffffffffffffffffffffffff16611740846106a6565b73ffffffffffffffffffffffffffffffffffffffff16145b8061176957506117688185611395565b5b91505092915050565b8273ffffffffffffffffffffffffffffffffffffffff1661179282610b54565b73ffffffffffffffffffffffffffffffffffffffff16146117e8576040517f08c379a00000000000000000000000000000000000000000000000000000000081526004016117df90613bc2565b60405180910390fd5b600073ffffffffffffffffffffffffffffffffffffffff168273ffffffffffffffffffffffffffffffffffffffff161415611858576040517f08c379a000000000000000000000000000000000000000000000000000000000815260040161184f90613a62565b60405180910390fd5b611863838383612367565b61186e6000826115db565b6001600360008573ffffffffffffffffffffffffffffffffffffffff1673ffffffffffffffffffffffffffffffffffffffff16815260200190815260200160002060008282546118be9190613e69565b925050819055506001600360008473ffffffffffffffffffffffffffffffffffffffff1673ffffffffffffffffffffffffffffffffffffffff16815260200190815260200160002060008282546119159190613d51565b92505081905550816002600083815260200190815260200160002060006101000a81548173ffffffffffffffffffffffffffffffffffffffff021916908373ffffffffffffffffffffffffffffffffffffffff160217905550808273ffffffffffffffffffffffffffffffffffffffff168473ffffffffffffffffffffffffffffffffffffffff167fddf252ad1be2c89b69c2b068fc378daa952ba7f163c4a11628f55a4df523b3ef60405160405180910390a4505050565b60606000825114156119f157604051806020016040528060008152509050611b68565b60006040518060600160405280604081526020016141656040913990506000600360028551611a209190613d51565b611a2a9190613dde565b6004611a369190613e0f565b90506000602082611a479190613d51565b67ffffffffffffffff811115611a86577f4e487b7100000000000000000000000000000000000000000000000000000000600052604160045260246000fd5b6040519080825280601f01601f191660200182016040528015611ab85781602001600182028036833780820191505090505b509050818152600183018586518101602084015b81831015611b27576003830192508251603f8160121c168501518253600182019150603f81600c1c168501518253600182019150603f8160061c168501518253600182019150603f8116850151825360018201915050611acc565b600389510660018114611b415760028114611b5157611b5c565b613d3d60f01b6002830352611b5c565b603d60f81b60018303525b50505050508093505050505b919050565b60606000821415611bb5576040518060400160405280600181526020017f30000000000000000000000000000000000000000000000000000000000000008152509050611d3d565b600082905060005b60008214611be7578080611bd090613f92565b915050600a82611be09190613dde565b9150611bbd565b60008167ffffffffffffffff811115611c29577f4e487b7100000000000000000000000000000000000000000000000000000000600052604160045260246000fd5b6040519080825280601f01601f191660200182016040528015611c5b5781602001600182028036833780820191505090505b50905060008290505b60008614611d3557600181611c799190613e69565b90506000600a8088611c8b9190613dde565b611c959190613e0f565b87611ca09190613e69565b6030611cac9190613da7565b905060008160f81b905080848481518110611cf0577f4e487b7100000000000000000000000000000000000000000000000000000000600052603260045260246000fd5b60200101907effffffffffffffffffffffffffffffffffffffffffffffffffffffffffffff1916908160001a905350600a88611d2c9190613dde565b97505050611c64565b819450505050505b919050565b8173ffffffffffffffffffffffffffffffffffffffff168373ffffffffffffffffffffffffffffffffffffffff161415611db1576040517f08c379a0000000000000000000000000000000000000000000000000000000008152600401611da890613a82565b60405180910390fd5b80600560008573ffffffffffffffffffffffffffffffffffffffff1673ffffffffffffffffffffffffffffffffffffffff16815260200190815260200160002060008473ffffffffffffffffffffffffffffffffffffffff1673ffffffffffffffffffffffffffffffffffffffff16815260200190815260200160002060006101000a81548160ff0219169083151502179055508173ffffffffffffffffffffffffffffffffffffffff168373ffffffffffffffffffffffffffffffffffffffff167f17307eab39ab6107e8899845ad3d59bd9653f200f220920489ca2b5937696c3183604051611ea291906139a7565b60405180910390a3505050565b611eba848484611772565b611ec68484848461236c565b611f05576040517f08c379a0000000000000000000000000000000000000000000000000000000008152600401611efc90613a22565b60405180910390fd5b50505050565b606060405180602001604052806000815250905090565b6060611f2d82611567565b611f6c576040517f08c379a0000000000000000000000000000000000000000000000000000000008152600401611f6390613be2565b60405180910390fd5b6000611f76611f0b565b90506000815111611f965760405180602001604052806000815250611fc1565b80611fa084612086565b604051602001611fb192919061375f565b6040516020818303038152906040525b915050919050565b611fe3828260405180602001604052806000815250612503565b5050565b612081838383604051602401611fff939291906139e4565b6040516020818303038152906040527fe3849f79000000000000000000000000000000000000000000000000000000007bffffffffffffffffffffffffffffffffffffffffffffffffffffffff19166020820180517bffffffffffffffffffffffffffffffffffffffffffffffffffffffff838183161783525050505061255e565b505050565b606060008214156120ce576040518060400160405280600181526020017f3000000000000000000000000000000000000000000000000000000000000000815250905061222e565b600082905060005b600082146121005780806120e990613f92565b915050600a826120f99190613dde565b91506120d6565b60008167ffffffffffffffff811115612142577f4e487b7100000000000000000000000000000000000000000000000000000000600052604160045260246000fd5b6040519080825280601f01601f1916602001820160405280156121745781602001600182028036833780820191505090505b5090505b600085146122275760018261218d9190613e69565b9150600a8561219c9190613fe5565b60306121a89190613d51565b60f81b8183815181106121e4577f4e487b7100000000000000000000000000000000000000000000000000000000600052603260045260246000fd5b60200101907effffffffffffffffffffffffffffffffffffffffffffffffffffffffffffff1916908160001a905350600a856122209190613dde565b9450612178565b8093505050505b919050565b6000816040516020016122469190613748565b6040516020818303038152906040528051906020012060001c9050919050565b60006122718361123d565b5111156122b3576040517f08c379a00000000000000000000000000000000000000000000000000000000081526004016122aa90613c02565b60405180910390fd5b81600754116122f7576040517f08c379a00000000000000000000000000000000000000000000000000000000081526004016122ee90613ac2565b60405180910390fd5b600061230282610c06565b9050600061230f826108a3565b9050600061231c82610dc0565b90506123288582612587565b847f15a6487b7915a7116ce2a61d43b17e9b47484b1931f3c79f2f3d139b307b38938260405161235891906139c2565b60405180910390a25050505050565b505050565b600061238d8473ffffffffffffffffffffffffffffffffffffffff166125fb565b156124f6578373ffffffffffffffffffffffffffffffffffffffff1663150b7a026123b66115d3565b8786866040518563ffffffff1660e01b81526004016123d8949392919061395b565b602060405180830381600087803b1580156123f257600080fd5b505af192505050801561242357506040513d601f19601f820116820180604052508101906124209190612b88565b60015b6124a6573d8060008114612453576040519150601f19603f3d011682016040523d82523d6000602084013e612458565b606091505b5060008151141561249e576040517f08c379a000000000000000000000000000000000000000000000000000000000815260040161249590613a22565b60405180910390fd5b805181602001fd5b63150b7a0260e01b7bffffffffffffffffffffffffffffffffffffffffffffffffffffffff1916817bffffffffffffffffffffffffffffffffffffffffffffffffffffffff1916149150506124fb565b600190505b949350505050565b61250d838361260e565b61251a600084848461236c565b612559576040517f08c379a000000000000000000000000000000000000000000000000000000000815260040161255090613a22565b60405180910390fd5b505050565b60008151905060006a636f6e736f6c652e6c6f679050602083016000808483855afa5050505050565b61259082611567565b6125cf576040517f08c379a00000000000000000000000000000000000000000000000000000000081526004016125c690613b42565b60405180910390fd5b806006600084815260200190815260200160002090805190602001906125f69291906127dc565b505050565b600080823b905060008111915050919050565b600073ffffffffffffffffffffffffffffffffffffffff168273ffffffffffffffffffffffffffffffffffffffff16141561267e576040517f08c379a000000000000000000000000000000000000000000000000000000000815260040161267590613b62565b60405180910390fd5b61268781611567565b156126c7576040517f08c379a00000000000000000000000000000000000000000000000000000000081526004016126be90613a42565b60405180910390fd5b6126d360008383612367565b6001600360008473ffffffffffffffffffffffffffffffffffffffff1673ffffffffffffffffffffffffffffffffffffffff16815260200190815260200160002060008282546127239190613d51565b92505081905550816002600083815260200190815260200160002060006101000a81548173ffffffffffffffffffffffffffffffffffffffff021916908373ffffffffffffffffffffffffffffffffffffffff160217905550808273ffffffffffffffffffffffffffffffffffffffff16600073ffffffffffffffffffffffffffffffffffffffff167fddf252ad1be2c89b69c2b068fc378daa952ba7f163c4a11628f55a4df523b3ef60405160405180910390a45050565b8280546127e890613f60565b90600052602060002090601f01602090048101928261280a5760008555612851565b82601f1061282357805160ff1916838001178555612851565b82800160010185558215612851579182015b82811115612850578251825591602001919060010190612835565b5b50905061285e9190612862565b5090565b5b8082111561287b576000816000905550600101612863565b5090565b600061289261288d84613cae565b613c7d565b9050828152602081018484840111156128aa57600080fd5b6128b5848285613f1e565b509392505050565b60006128d06128cb84613cde565b613c7d565b9050828152602081018484840111156128e857600080fd5b6128f3848285613f1e565b509392505050565b60008135905061290a816140e3565b92915050565b60008135905061291f816140fa565b92915050565b60008135905061293481614111565b92915050565b60008151905061294981614111565b92915050565b600082601f83011261296057600080fd5b813561297084826020860161287f565b91505092915050565b600082601f83011261298a57600080fd5b813561299a8482602086016128bd565b91505092915050565b6000813590506129b281614128565b92915050565b6000602082840312156129ca57600080fd5b60006129d8848285016128fb565b91505092915050565b600080604083850312156129f457600080fd5b6000612a02858286016128fb565b9250506020612a13858286016128fb565b9150509250929050565b600080600060608486031215612a3257600080fd5b6000612a40868287016128fb565b9350506020612a51868287016128fb565b9250506040612a62868287016129a3565b9150509250925092565b60008060008060808587031215612a8257600080fd5b6000612a90878288016128fb565b9450506020612aa1878288016128fb565b9350506040612ab2878288016129a3565b925050606085013567ffffffffffffffff811115612acf57600080fd5b612adb8782880161294f565b91505092959194509250565b60008060408385031215612afa57600080fd5b6000612b08858286016128fb565b9250506020612b1985828601612910565b9150509250929050565b60008060408385031215612b3657600080fd5b6000612b44858286016128fb565b9250506020612b55858286016129a3565b9150509250929050565b600060208284031215612b7157600080fd5b6000612b7f84828501612925565b91505092915050565b600060208284031215612b9a57600080fd5b6000612ba88482850161293a565b91505092915050565b600060208284031215612bc357600080fd5b600082013567ffffffffffffffff811115612bdd57600080fd5b612be984828501612979565b91505092915050565b600060208284031215612c0457600080fd5b6000612c12848285016129a3565b91505092915050565b612c2481613e9d565b82525050565b612c3381613eaf565b82525050565b6000612c4482613d0e565b612c4e8185613d24565b9350612c5e818560208601613f2d565b612c67816140d2565b840191505092915050565b6000612c7d82613d19565b612c878185613d35565b9350612c97818560208601613f2d565b612ca0816140d2565b840191505092915050565b6000612cb682613d19565b612cc08185613d46565b9350612cd0818560208601613f2d565b80840191505092915050565b6000612ce9603283613d35565b91507f4552433732313a207472616e7366657220746f206e6f6e20455243373231526560008301527f63656976657220696d706c656d656e74657200000000000000000000000000006020830152604082019050919050565b6000612d4f601c83613d35565b91507f4552433732313a20746f6b656e20616c7265616479206d696e746564000000006000830152602082019050919050565b6000612d8f601483613d46565b91507f7b226e616d65223a2022535647204e4654222c200000000000000000000000006000830152601482019050919050565b6000612dcf602483613d35565b91507f4552433732313a207472616e7366657220746f20746865207a65726f2061646460008301527f72657373000000000000000000000000000000000000000000000000000000006020830152604082019050919050565b6000612e35601983613d35565b91507f4552433732313a20617070726f766520746f2063616c6c6572000000000000006000830152602082019050919050565b6000612e75602c83613d35565b91507f4552433732313a206f70657261746f7220717565727920666f72206e6f6e657860008301527f697374656e7420746f6b656e00000000000000000000000000000000000000006020830152604082019050919050565b6000612edb601d83613d46565b91507f272066696c6c3d277472616e73706172656e7427207374726f6b653d270000006000830152601d82019050919050565b6000612f1b602383613d35565b91507f74686520746f6b656e496420686173206e6f74206265656e206d696e7465642060008301527f79657400000000000000000000000000000000000000000000000000000000006020830152604082019050919050565b6000612f81600183613d46565b91507f20000000000000000000000000000000000000000000000000000000000000006000830152600182019050919050565b6000612fc1600383613d46565b91507f272f3e00000000000000000000000000000000000000000000000000000000006000830152600382019050919050565b6000613001603883613d35565b91507f4552433732313a20617070726f76652063616c6c6572206973206e6f74206f7760008301527f6e6572206e6f7220617070726f76656420666f7220616c6c00000000000000006020830152604082019050919050565b6000613067602a83613d35565b91507f4552433732313a2062616c616e636520717565727920666f7220746865207a6560008301527f726f2061646472657373000000000000000000000000000000000000000000006020830152604082019050919050565b60006130cd602983613d35565b91507f4552433732313a206f776e657220717565727920666f72206e6f6e657869737460008301527f656e7420746f6b656e00000000000000000000000000000000000000000000006020830152604082019050919050565b6000613133602e83613d35565b91507f45524337323155524953746f726167653a2055524920736574206f66206e6f6e60008301527f6578697374656e7420746f6b656e0000000000000000000000000000000000006020830152604082019050919050565b6000613199600283613d46565b91507f227d0000000000000000000000000000000000000000000000000000000000006000830152600282019050919050565b60006131d9602083613d35565b91507f4552433732313a206d696e7420746f20746865207a65726f20616464726573736000830152602082019050919050565b6000613219603183613d35565b91507f45524337323155524953746f726167653a2055524920717565727920666f722060008301527f6e6f6e6578697374656e7420746f6b656e0000000000000000000000000000006020830152604082019050919050565b600061327f602c83613d35565b91507f4552433732313a20617070726f76656420717565727920666f72206e6f6e657860008301527f697374656e7420746f6b656e00000000000000000000000000000000000000006020830152604082019050919050565b60006132e5602983613d35565b91507f4552433732313a207472616e73666572206f6620746f6b656e2074686174206960008301527f73206e6f74206f776e00000000000000000000000000000000000000000000006020830152604082019050919050565b600061334b603083613d46565b91507f3c73766720786d6c6e733d27687474703a2f2f7777772e77332e6f72672f323060008301527f30302f73766727206865696768743d27000000000000000000000000000000006020830152603082019050919050565b60006133b1602f83613d35565b91507f4552433732314d657461646174613a2055524920717565727920666f72206e6f60008301527f6e6578697374656e7420746f6b656e00000000000000000000000000000000006020830152604082019050919050565b6000613417601283613d46565b91507f2261747472696275746573223a2022222c2000000000000000000000000000006000830152601282019050919050565b6000613457602783613d46565b91507f226465736372697074696f6e223a2022416e204e4654206261736564206f6e2060008301527f53564721222c20000000000000000000000000000000000000000000000000006020830152602782019050919050565b60006134bd603083613d35565b91507f54686520746f6b656e55524920697320616c726561647920616c6c207365742060008301527f666f72207468697320746f6b656e4964000000000000000000000000000000006020830152604082019050919050565b6000613523602183613d35565b91507f4552433732313a20617070726f76616c20746f2063757272656e74206f776e6560008301527f72000000000000000000000000000000000000000000000000000000000000006020830152604082019050919050565b6000613589601d83613d46565b91507f646174613a6170706c69636174696f6e2f6a736f6e3b6261736536342c0000006000830152601d82019050919050565b60006135c9603183613d35565b91507f4552433732313a207472616e736665722063616c6c6572206973206e6f74206f60008301527f776e6572206e6f7220617070726f7665640000000000000000000000000000006020830152604082019050919050565b600061362f600283613d46565b91507f273e0000000000000000000000000000000000000000000000000000000000006000830152600282019050919050565b600061366f600a83613d46565b91507f22696d616765223a2022000000000000000000000000000000000000000000006000830152600a82019050919050565b60006136af600683613d46565b91507f3c2f7376673e00000000000000000000000000000000000000000000000000006000830152600682019050919050565b60006136ef600983613d46565b91507f272077696474683d2700000000000000000000000000000000000000000000006000830152600982019050919050565b61372b81613f07565b82525050565b61374261373d82613f07565b613fdb565b82525050565b60006137548284612cab565b915081905092915050565b600061376b8285612cab565b91506137778284612cab565b91508190509392505050565b600061378f8286612cab565b915061379b8285612cab565b91506137a682612f74565b91506137b28284612cab565b91506137bd82612f74565b9150819050949350505050565b60006137d68285612cab565b91506137e182612ece565b91506137ed8284612cab565b91506137f882612fb4565b91508190509392505050565b60006138108284612cab565b915061381b826136a2565b915081905092915050565b600061383182612d82565b915061383c8261344a565b91506138478261340a565b915061385282613662565b915061385e8284612cab565b91506138698261318c565b915081905092915050565b600061387f8261333e565b915061388b8285612cab565b9150613896826136e2565b91506138a28284612cab565b91506138ad82613622565b91508190509392505050565b60006138c48261357c565b91506138d08284612cab565b915081905092915050565b60006138e78285613731565b6020820191506138f78284613731565b6020820191508190509392505050565b60006139138286613731565b6020820191506139238285613731565b6020820191506139338284612cab565b9150819050949350505050565b60006020820190506139556000830184612c1b565b92915050565b60006080820190506139706000830187612c1b565b61397d6020830186612c1b565b61398a6040830185613722565b818103606083015261399c8184612c39565b905095945050505050565b60006020820190506139bc6000830184612c2a565b92915050565b600060208201905081810360008301526139dc8184612c72565b905092915050565b600060608201905081810360008301526139fe8186612c72565b9050613a0d6020830185613722565b613a1a6040830184612c1b565b949350505050565b60006020820190508181036000830152613a3b81612cdc565b9050919050565b60006020820190508181036000830152613a5b81612d42565b9050919050565b60006020820190508181036000830152613a7b81612dc2565b9050919050565b60006020820190508181036000830152613a9b81612e28565b9050919050565b60006020820190508181036000830152613abb81612e68565b9050919050565b60006020820190508181036000830152613adb81612f0e565b9050919050565b60006020820190508181036000830152613afb81612ff4565b9050919050565b60006020820190508181036000830152613b1b8161305a565b9050919050565b60006020820190508181036000830152613b3b816130c0565b9050919050565b60006020820190508181036000830152613b5b81613126565b9050919050565b60006020820190508181036000830152613b7b816131cc565b9050919050565b60006020820190508181036000830152613b9b8161320c565b9050919050565b60006020820190508181036000830152613bbb81613272565b9050919050565b60006020820190508181036000830152613bdb816132d8565b9050919050565b60006020820190508181036000830152613bfb816133a4565b9050919050565b60006020820190508181036000830152613c1b816134b0565b9050919050565b60006020820190508181036000830152613c3b81613516565b9050919050565b60006020820190508181036000830152613c5b816135bc565b9050919050565b6000602082019050613c776000830184613722565b92915050565b6000604051905081810181811067ffffffffffffffff82111715613ca457613ca36140a3565b5b8060405250919050565b600067ffffffffffffffff821115613cc957613cc86140a3565b5b601f19601f8301169050602081019050919050565b600067ffffffffffffffff821115613cf957613cf86140a3565b5b601f19601f8301169050602081019050919050565b600081519050919050565b600081519050919050565b600082825260208201905092915050565b600082825260208201905092915050565b600081905092915050565b6000613d5c82613f07565b9150613d6783613f07565b9250827fffffffffffffffffffffffffffffffffffffffffffffffffffffffffffffffff03821115613d9c57613d9b614016565b5b828201905092915050565b6000613db282613f11565b9150613dbd83613f11565b92508260ff03821115613dd357613dd2614016565b5b828201905092915050565b6000613de982613f07565b9150613df483613f07565b925082613e0457613e03614045565b5b828204905092915050565b6000613e1a82613f07565b9150613e2583613f07565b9250817fffffffffffffffffffffffffffffffffffffffffffffffffffffffffffffffff0483118215151615613e5e57613e5d614016565b5b828202905092915050565b6000613e7482613f07565b9150613e7f83613f07565b925082821015613e9257613e91614016565b5b828203905092915050565b6000613ea882613ee7565b9050919050565b60008115159050919050565b60007fffffffff0000000000000000000000000000000000000000000000000000000082169050919050565b600073ffffffffffffffffffffffffffffffffffffffff82169050919050565b6000819050919050565b600060ff82169050919050565b82818337600083830152505050565b60005b83811015613f4b578082015181840152602081019050613f30565b83811115613f5a576000848401525b50505050565b60006002820490506001821680613f7857607f821691505b60208210811415613f8c57613f8b614074565b5b50919050565b6000613f9d82613f07565b91507fffffffffffffffffffffffffffffffffffffffffffffffffffffffffffffffff821415613fd057613fcf614016565b5b600182019050919050565b6000819050919050565b6000613ff082613f07565b9150613ffb83613f07565b92508261400b5761400a614045565b5b828206905092915050565b7f4e487b7100000000000000000000000000000000000000000000000000000000600052601160045260246000fd5b7f4e487b7100000000000000000000000000000000000000000000000000000000600052601260045260246000fd5b7f4e487b7100000000000000000000000000000000000000000000000000000000600052602260045260246000fd5b7f4e487b7100000000000000000000000000000000000000000000000000000000600052604160045260246000fd5b6000601f19601f8301169050919050565b6140ec81613e9d565b81146140f757600080fd5b50565b61410381613eaf565b811461410e57600080fd5b50565b61411a81613ebb565b811461412557600080fd5b50565b61413181613f07565b811461413c57600080fd5b5056fe416e204e465420772f20494420257320686173206265656e206d696e74656420746f2025734142434445464748494a4b4c4d4e4f505152535455565758595a6162636465666768696a6b6c6d6e6f707172737475767778797a303132333435363738392b2fa264697066735822122017dbfaffc95c60bf3b798264b33d0a01df9798586936d44c154fe9dc2bb3985e64736f6c63430008000033",
  "devdoc": {
    "kind": "dev",
    "methods": {
      "approve(address,uint256)": {
        "details": "See {IERC721-approve}."
      },
      "balanceOf(address)": {
        "details": "See {IERC721-balanceOf}."
      },
      "getApproved(uint256)": {
        "details": "See {IERC721-getApproved}."
      },
      "isApprovedForAll(address,address)": {
        "details": "See {IERC721-isApprovedForAll}."
      },
      "name()": {
        "details": "See {IERC721Metadata-name}."
      },
      "ownerOf(uint256)": {
        "details": "See {IERC721-ownerOf}."
      },
      "safeTransferFrom(address,address,uint256)": {
        "details": "See {IERC721-safeTransferFrom}."
      },
      "safeTransferFrom(address,address,uint256,bytes)": {
        "details": "See {IERC721-safeTransferFrom}."
      },
      "setApprovalForAll(address,bool)": {
        "details": "See {IERC721-setApprovalForAll}."
      },
      "supportsInterface(bytes4)": {
        "details": "See {IERC165-supportsInterface}."
      },
      "symbol()": {
        "details": "See {IERC721Metadata-symbol}."
      },
      "tokenURI(uint256)": {
        "details": "See {IERC721Metadata-tokenURI}."
      },
      "transferFrom(address,address,uint256)": {
        "details": "See {IERC721-transferFrom}."
      }
    },
    "version": 1
  },
  "userdoc": {
    "kind": "user",
    "methods": {},
    "version": 1
  },
  "storageLayout": {
    "storage": [
      {
        "astId": 25,
        "contract": "contracts/RandomSVG.sol:RandomSVG",
        "label": "_name",
        "offset": 0,
        "slot": "0",
        "type": "t_string_storage"
      },
      {
        "astId": 27,
        "contract": "contracts/RandomSVG.sol:RandomSVG",
        "label": "_symbol",
        "offset": 0,
        "slot": "1",
        "type": "t_string_storage"
      },
      {
        "astId": 31,
        "contract": "contracts/RandomSVG.sol:RandomSVG",
        "label": "_owners",
        "offset": 0,
        "slot": "2",
        "type": "t_mapping(t_uint256,t_address)"
      },
      {
        "astId": 35,
        "contract": "contracts/RandomSVG.sol:RandomSVG",
        "label": "_balances",
        "offset": 0,
        "slot": "3",
        "type": "t_mapping(t_address,t_uint256)"
      },
      {
        "astId": 39,
        "contract": "contracts/RandomSVG.sol:RandomSVG",
        "label": "_tokenApprovals",
        "offset": 0,
        "slot": "4",
        "type": "t_mapping(t_uint256,t_address)"
      },
      {
        "astId": 45,
        "contract": "contracts/RandomSVG.sol:RandomSVG",
        "label": "_operatorApprovals",
        "offset": 0,
        "slot": "5",
        "type": "t_mapping(t_address,t_mapping(t_address,t_bool))"
      },
      {
        "astId": 977,
        "contract": "contracts/RandomSVG.sol:RandomSVG",
        "label": "_tokenURIs",
        "offset": 0,
        "slot": "6",
        "type": "t_mapping(t_uint256,t_string_storage)"
      },
      {
        "astId": 1801,
        "contract": "contracts/RandomSVG.sol:RandomSVG",
        "label": "tokenCounter",
        "offset": 0,
        "slot": "7",
        "type": "t_uint256"
      },
      {
        "astId": 1803,
        "contract": "contracts/RandomSVG.sol:RandomSVG",
        "label": "maxNumberOfPaths",
        "offset": 0,
        "slot": "8",
        "type": "t_uint256"
      },
      {
        "astId": 1805,
        "contract": "contracts/RandomSVG.sol:RandomSVG",
        "label": "maxNumberOfPathCommands",
        "offset": 0,
        "slot": "9",
        "type": "t_uint256"
      },
      {
        "astId": 1807,
        "contract": "contracts/RandomSVG.sol:RandomSVG",
        "label": "size",
        "offset": 0,
        "slot": "10",
        "type": "t_uint256"
      },
      {
        "astId": 1810,
        "contract": "contracts/RandomSVG.sol:RandomSVG",
        "label": "pathCommands",
        "offset": 0,
        "slot": "11",
        "type": "t_array(t_string_storage)dyn_storage"
      },
      {
        "astId": 1813,
        "contract": "contracts/RandomSVG.sol:RandomSVG",
        "label": "colors",
        "offset": 0,
        "slot": "12",
        "type": "t_array(t_string_storage)dyn_storage"
      }
    ],
    "types": {
      "t_address": {
        "encoding": "inplace",
        "label": "address",
        "numberOfBytes": "20"
      },
      "t_array(t_string_storage)dyn_storage": {
        "base": "t_string_storage",
        "encoding": "dynamic_array",
        "label": "string[]",
        "numberOfBytes": "32"
      },
      "t_bool": {
        "encoding": "inplace",
        "label": "bool",
        "numberOfBytes": "1"
      },
      "t_mapping(t_address,t_bool)": {
        "encoding": "mapping",
        "key": "t_address",
        "label": "mapping(address => bool)",
        "numberOfBytes": "32",
        "value": "t_bool"
      },
      "t_mapping(t_address,t_mapping(t_address,t_bool))": {
        "encoding": "mapping",
        "key": "t_address",
        "label": "mapping(address => mapping(address => bool))",
        "numberOfBytes": "32",
        "value": "t_mapping(t_address,t_bool)"
      },
      "t_mapping(t_address,t_uint256)": {
        "encoding": "mapping",
        "key": "t_address",
        "label": "mapping(address => uint256)",
        "numberOfBytes": "32",
        "value": "t_uint256"
      },
      "t_mapping(t_uint256,t_address)": {
        "encoding": "mapping",
        "key": "t_uint256",
        "label": "mapping(uint256 => address)",
        "numberOfBytes": "32",
        "value": "t_address"
      },
      "t_mapping(t_uint256,t_string_storage)": {
        "encoding": "mapping",
        "key": "t_uint256",
        "label": "mapping(uint256 => string)",
        "numberOfBytes": "32",
        "value": "t_string_storage"
      },
      "t_string_storage": {
        "encoding": "bytes",
        "label": "string",
        "numberOfBytes": "32"
      },
      "t_uint256": {
        "encoding": "inplace",
        "label": "uint256",
        "numberOfBytes": "32"
      }
    }
  }
}