{
  "address": "0xED9312600BC76Afc54C64F552B25Ed479DB25822",
  "abi": [
    {
      "inputs": [
        {
          "internalType": "address",
          "name": "_VRFCoordinator",
          "type": "address"
        },
        {
          "internalType": "address",
          "name": "_LinkToken",
          "type": "address"
        },
        {
          "internalType": "bytes32",
          "name": "_keyHash",
          "type": "bytes32"
        },
        {
          "internalType": "uint256",
          "name": "_fee",
          "type": "uint256"
        }
      ],
      "stateMutability": "nonpayable",
      "type": "constructor"
    },
    {
      "anonymous": false,
      "inputs": [
        {
          "indexed": true,
          "internalType": "address",
          "name": "owner",
          "type": "address"
        },
        {
          "indexed": true,
          "internalType": "address",
          "name": "approved",
          "type": "address"
        },
        {
          "indexed": true,
          "internalType": "uint256",
          "name": "tokenId",
          "type": "uint256"
        }
      ],
      "name": "Approval",
      "type": "event"
    },
    {
      "anonymous": false,
      "inputs": [
        {
          "indexed": true,
          "internalType": "address",
          "name": "owner",
          "type": "address"
        },
        {
          "indexed": true,
          "internalType": "address",
          "name": "operator",
          "type": "address"
        },
        {
          "indexed": false,
          "internalType": "bool",
          "name": "approved",
          "type": "bool"
        }
      ],
      "name": "ApprovalForAll",
      "type": "event"
    },
    {
      "anonymous": false,
      "inputs": [
        {
          "indexed": true,
          "internalType": "uint256",
          "name": "tokenId",
          "type": "uint256"
        },
        {
          "indexed": false,
          "internalType": "string",
          "name": "tokenURI",
          "type": "string"
        }
      ],
      "name": "CreatedRandomSVG",
      "type": "event"
    },
    {
      "anonymous": false,
      "inputs": [
        {
          "indexed": true,
          "internalType": "uint256",
          "name": "tokenId",
          "type": "uint256"
        },
        {
          "indexed": false,
          "internalType": "uint256",
          "name": "randomNumber",
          "type": "uint256"
        }
      ],
      "name": "CreatedUnfinishedSVG",
      "type": "event"
    },
    {
      "anonymous": false,
      "inputs": [
        {
          "indexed": true,
          "internalType": "address",
          "name": "from",
          "type": "address"
        },
        {
          "indexed": true,
          "internalType": "address",
          "name": "to",
          "type": "address"
        },
        {
          "indexed": true,
          "internalType": "uint256",
          "name": "tokenId",
          "type": "uint256"
        }
      ],
      "name": "Transfer",
      "type": "event"
    },
    {
      "anonymous": false,
      "inputs": [
        {
          "indexed": true,
          "internalType": "bytes32",
          "name": "requestId",
          "type": "bytes32"
        },
        {
          "indexed": true,
          "internalType": "uint256",
          "name": "tokenId",
          "type": "uint256"
        }
      ],
      "name": "requestedRandomSVG",
      "type": "event"
    },
    {
      "inputs": [
        {
          "internalType": "address",
          "name": "to",
          "type": "address"
        },
        {
          "internalType": "uint256",
          "name": "tokenId",
          "type": "uint256"
        }
      ],
      "name": "approve",
      "outputs": [],
      "stateMutability": "nonpayable",
      "type": "function"
    },
    {
      "inputs": [
        {
          "internalType": "address",
          "name": "owner",
          "type": "address"
        }
      ],
      "name": "balanceOf",
      "outputs": [
        {
          "internalType": "uint256",
          "name": "",
          "type": "uint256"
        }
      ],
      "stateMutability": "view",
      "type": "function"
    },
    {
      "inputs": [
        {
          "internalType": "uint256",
          "name": "",
          "type": "uint256"
        }
      ],
      "name": "colors",
      "outputs": [
        {
          "internalType": "string",
          "name": "",
          "type": "string"
        }
      ],
      "stateMutability": "view",
      "type": "function"
    },
    {
      "inputs": [],
      "name": "create",
      "outputs": [
        {
          "internalType": "bytes32",
          "name": "requestId",
          "type": "bytes32"
        }
      ],
      "stateMutability": "nonpayable",
      "type": "function"
    },
    {
      "inputs": [],
      "name": "fee",
      "outputs": [
        {
          "internalType": "uint256",
          "name": "",
          "type": "uint256"
        }
      ],
      "stateMutability": "view",
      "type": "function"
    },
    {
      "inputs": [
        {
          "internalType": "uint256",
          "name": "_tokenId",
          "type": "uint256"
        }
      ],
      "name": "finishMint",
      "outputs": [],
      "stateMutability": "nonpayable",
      "type": "function"
    },
    {
      "inputs": [
        {
          "internalType": "string",
          "name": "_imageURI",
          "type": "string"
        }
      ],
      "name": "formatTokenURI",
      "outputs": [
        {
          "internalType": "string",
          "name": "",
          "type": "string"
        }
      ],
      "stateMutability": "pure",
      "type": "function"
    },
    {
      "inputs": [
        {
          "internalType": "uint256",
          "name": "_randomNumber",
          "type": "uint256"
        }
      ],
      "name": "generatePath",
      "outputs": [
        {
          "internalType": "string",
          "name": "pathSvg",
          "type": "string"
        }
      ],
      "stateMutability": "view",
      "type": "function"
    },
    {
      "inputs": [
        {
          "internalType": "uint256",
          "name": "_randomNumber",
          "type": "uint256"
        }
      ],
      "name": "generatePathCommand",
      "outputs": [
        {
          "internalType": "string",
          "name": "pathCommand",
          "type": "string"
        }
      ],
      "stateMutability": "view",
      "type": "function"
    },
    {
      "inputs": [
        {
          "internalType": "uint256",
          "name": "_randomNumber",
          "type": "uint256"
        }
      ],
      "name": "generateSVG",
      "outputs": [
        {
          "internalType": "string",
          "name": "finalSVG",
          "type": "string"
        }
      ],
      "stateMutability": "view",
      "type": "function"
    },
    {
      "inputs": [
        {
          "internalType": "uint256",
          "name": "tokenId",
          "type": "uint256"
        }
      ],
      "name": "getApproved",
      "outputs": [
        {
          "internalType": "address",
          "name": "",
          "type": "address"
        }
      ],
      "stateMutability": "view",
      "type": "function"
    },
    {
      "inputs": [
        {
          "internalType": "address",
          "name": "owner",
          "type": "address"
        },
        {
          "internalType": "address",
          "name": "operator",
          "type": "address"
        }
      ],
      "name": "isApprovedForAll",
      "outputs": [
        {
          "internalType": "bool",
          "name": "",
          "type": "bool"
        }
      ],
      "stateMutability": "view",
      "type": "function"
    },
    {
      "inputs": [],
      "name": "keyHash",
      "outputs": [
        {
          "internalType": "bytes32",
          "name": "",
          "type": "bytes32"
        }
      ],
      "stateMutability": "view",
      "type": "function"
    },
    {
      "inputs": [],
      "name": "maxNumberOfPathCommands",
      "outputs": [
        {
          "internalType": "uint256",
          "name": "",
          "type": "uint256"
        }
      ],
      "stateMutability": "view",
      "type": "function"
    },
    {
      "inputs": [],
      "name": "maxNumberOfPaths",
      "outputs": [
        {
          "internalType": "uint256",
          "name": "",
          "type": "uint256"
        }
      ],
      "stateMutability": "view",
      "type": "function"
    },
    {
      "inputs": [],
      "name": "name",
      "outputs": [
        {
          "internalType": "string",
          "name": "",
          "type": "string"
        }
      ],
      "stateMutability": "view",
      "type": "function"
    },
    {
      "inputs": [
        {
          "internalType": "uint256",
          "name": "tokenId",
          "type": "uint256"
        }
      ],
      "name": "ownerOf",
      "outputs": [
        {
          "internalType": "address",
          "name": "",
          "type": "address"
        }
      ],
      "stateMutability": "view",
      "type": "function"
    },
    {
      "inputs": [
        {
          "internalType": "uint256",
          "name": "",
          "type": "uint256"
        }
      ],
      "name": "pathCommands",
      "outputs": [
        {
          "internalType": "string",
          "name": "",
          "type": "string"
        }
      ],
      "stateMutability": "view",
      "type": "function"
    },
    {
      "inputs": [
        {
          "internalType": "bytes32",
          "name": "requestId",
          "type": "bytes32"
        },
        {
          "internalType": "uint256",
          "name": "randomness",
          "type": "uint256"
        }
      ],
      "name": "rawFulfillRandomness",
      "outputs": [],
      "stateMutability": "nonpayable",
      "type": "function"
    },
    {
      "inputs": [
        {
          "internalType": "bytes32",
          "name": "",
          "type": "bytes32"
        }
      ],
      "name": "requestIdToSender",
      "outputs": [
        {
          "internalType": "address",
          "name": "",
          "type": "address"
        }
      ],
      "stateMutability": "view",
      "type": "function"
    },
    {
      "inputs": [
        {
          "internalType": "bytes32",
          "name": "",
          "type": "bytes32"
        }
      ],
      "name": "requestIdToTokenId",
      "outputs": [
        {
          "internalType": "uint256",
          "name": "",
          "type": "uint256"
        }
      ],
      "stateMutability": "view",
      "type": "function"
    },
    {
      "inputs": [
        {
          "internalType": "address",
          "name": "from",
          "type": "address"
        },
        {
          "internalType": "address",
          "name": "to",
          "type": "address"
        },
        {
          "internalType": "uint256",
          "name": "tokenId",
          "type": "uint256"
        }
      ],
      "name": "safeTransferFrom",
      "outputs": [],
      "stateMutability": "nonpayable",
      "type": "function"
    },
    {
      "inputs": [
        {
          "internalType": "address",
          "name": "from",
          "type": "address"
        },
        {
          "internalType": "address",
          "name": "to",
          "type": "address"
        },
        {
          "internalType": "uint256",
          "name": "tokenId",
          "type": "uint256"
        },
        {
          "internalType": "bytes",
          "name": "_data",
          "type": "bytes"
        }
      ],
      "name": "safeTransferFrom",
      "outputs": [],
      "stateMutability": "nonpayable",
      "type": "function"
    },
    {
      "inputs": [
        {
          "internalType": "address",
          "name": "operator",
          "type": "address"
        },
        {
          "internalType": "bool",
          "name": "approved",
          "type": "bool"
        }
      ],
      "name": "setApprovalForAll",
      "outputs": [],
      "stateMutability": "nonpayable",
      "type": "function"
    },
    {
      "inputs": [],
      "name": "size",
      "outputs": [
        {
          "internalType": "uint256",
          "name": "",
          "type": "uint256"
        }
      ],
      "stateMutability": "view",
      "type": "function"
    },
    {
      "inputs": [
        {
          "internalType": "bytes4",
          "name": "interfaceId",
          "type": "bytes4"
        }
      ],
      "name": "supportsInterface",
      "outputs": [
        {
          "internalType": "bool",
          "name": "",
          "type": "bool"
        }
      ],
      "stateMutability": "view",
      "type": "function"
    },
    {
      "inputs": [
        {
          "internalType": "string",
          "name": "_svg",
          "type": "string"
        }
      ],
      "name": "svgToImageURI",
      "outputs": [
        {
          "internalType": "string",
          "name": "",
          "type": "string"
        }
      ],
      "stateMutability": "pure",
      "type": "function"
    },
    {
      "inputs": [],
      "name": "symbol",
      "outputs": [
        {
          "internalType": "string",
          "name": "",
          "type": "string"
        }
      ],
      "stateMutability": "view",
      "type": "function"
    },
    {
      "inputs": [],
      "name": "tokenCounter",
      "outputs": [
        {
          "internalType": "uint256",
          "name": "",
          "type": "uint256"
        }
      ],
      "stateMutability": "view",
      "type": "function"
    },
    {
      "inputs": [
        {
          "internalType": "uint256",
          "name": "",
          "type": "uint256"
        }
      ],
      "name": "tokenIdToRandomNumber",
      "outputs": [
        {
          "internalType": "uint256",
          "name": "",
          "type": "uint256"
        }
      ],
      "stateMutability": "view",
      "type": "function"
    },
    {
      "inputs": [
        {
          "internalType": "uint256",
          "name": "tokenId",
          "type": "uint256"
        }
      ],
      "name": "tokenURI",
      "outputs": [
        {
          "internalType": "string",
          "name": "",
          "type": "string"
        }
      ],
      "stateMutability": "view",
      "type": "function"
    },
    {
      "inputs": [
        {
          "internalType": "address",
          "name": "from",
          "type": "address"
        },
        {
          "internalType": "address",
          "name": "to",
          "type": "address"
        },
        {
          "internalType": "uint256",
          "name": "tokenId",
          "type": "uint256"
        }
      ],
      "name": "transferFrom",
      "outputs": [],
      "stateMutability": "nonpayable",
      "type": "function"
    }
  ],
  "transactionHash": "0x8870feaed330f469ca174857942ee56ff7b4ea44fbb6fdaa9c0e78bc9fefb095",
  "args": [
    "0xb3dCcb4Cf7a26f6cf6B120Cf5A73875B7BBc655B",
    "0x01BE23585060835E02B77ef475b0Cc51aA1e0709",
    "0x2ed0feb3e7fd2022120aa84fab1945545a9f2ffc9076fd6156fa96eaff4c1311",
    "100000000000000000"
  ],
  "numDeployments": 4,
  "solcInputHash": "6834ae1baf0114d7c648d9b79331c30a",
  "bytecode": "0x60c06040523480156200001157600080fd5b506040516200502d3803806200502d8339818101604052810190620000379190620005c3565b83836040518060400160405280600981526020017f52616e646f6d53564700000000000000000000000000000000000000000000008152506040518060400160405280600581526020017f72734e46540000000000000000000000000000000000000000000000000000008152508160009080519060200190620000bd92919062000392565b508060019080519060200190620000d692919062000392565b5050508173ffffffffffffffffffffffffffffffffffffffff1660a08173ffffffffffffffffffffffffffffffffffffffff1660601b815250508073ffffffffffffffffffffffffffffffffffffffff1660808173ffffffffffffffffffffffffffffffffffffffff1660601b81525050505080600981905550816008819055506000600a81905550600a600b819055506005600c819055506101f4600d8190555060405180604001604052806040518060400160405280600181526020017f4d0000000000000000000000000000000000000000000000000000000000000081525081526020016040518060400160405280600181526020017f4c00000000000000000000000000000000000000000000000000000000000000815250815250600e9060026200020992919062000423565b506040518060c001604052806040518060400160405280600381526020017f726564000000000000000000000000000000000000000000000000000000000081525081526020016040518060400160405280600481526020017f626c75650000000000000000000000000000000000000000000000000000000081525081526020016040518060400160405280600581526020017f677265656e00000000000000000000000000000000000000000000000000000081525081526020016040518060400160405280600681526020017f79656c6c6f77000000000000000000000000000000000000000000000000000081525081526020016040518060400160405280600581526020017f626c61636b00000000000000000000000000000000000000000000000000000081525081526020016040518060400160405280600581526020017f7768697465000000000000000000000000000000000000000000000000000000815250815250600f906006620003879291906200048a565b50505050506200072a565b828054620003a09062000677565b90600052602060002090601f016020900481019282620003c4576000855562000410565b82601f10620003df57805160ff191683800117855562000410565b8280016001018555821562000410579182015b828111156200040f578251825591602001919060010190620003f2565b5b5090506200041f9190620004f1565b5090565b82805482825590600052602060002090810192821562000477579160200282015b82811115620004765782518290805190602001906200046592919062000392565b509160200191906001019062000444565b5b50905062000486919062000510565b5090565b828054828255906000526020600020908101928215620004de579160200282015b82811115620004dd578251829080519060200190620004cc92919062000392565b5091602001919060010190620004ab565b5b509050620004ed919062000510565b5090565b5b808211156200050c576000816000905550600101620004f2565b5090565b5b808211156200053457600081816200052a919062000538565b5060010162000511565b5090565b508054620005469062000677565b6000825580601f106200055a57506200057b565b601f0160209004906000526020600020908101906200057a9190620004f1565b5b50565b6000815190506200058f81620006dc565b92915050565b600081519050620005a681620006f6565b92915050565b600081519050620005bd8162000710565b92915050565b60008060008060808587031215620005da57600080fd5b6000620005ea878288016200057e565b9450506020620005fd878288016200057e565b9350506040620006108782880162000595565b92505060606200062387828801620005ac565b91505092959194509250565b60006200063c826200064d565b9050919050565b6000819050919050565b600073ffffffffffffffffffffffffffffffffffffffff82169050919050565b6000819050919050565b600060028204905060018216806200069057607f821691505b60208210811415620006a757620006a6620006ad565b5b50919050565b7f4e487b7100000000000000000000000000000000000000000000000000000000600052602260045260246000fd5b620006e7816200062f565b8114620006f357600080fd5b50565b620007018162000643565b81146200070d57600080fd5b50565b6200071b816200066d565b81146200072757600080fd5b50565b60805160601c60a05160601c6148d06200075d600039600081816111730152612532015260006124f601526148d06000f3fe608060405234801561001057600080fd5b50600436106101f05760003560e01c806371aee1931161010f578063bd11f69d116100a2578063d082e38111610071578063d082e3811461063d578063ddca3f431461065b578063e985e9c514610679578063efc81a8c146106a9576101f0565b8063bd11f69d1461058f578063c21bf36f146105bf578063c68b49d1146105dd578063c87b56dd1461060d576101f0565b806395d89b41116100de57806395d89b41146105095780639c1cd79514610527578063a22cb46514610557578063b88d4fde14610573576101f0565b806371aee1931461046f57806394985ddd1461049f578063949d225d146104bb578063955968d4146104d9576101f0565b806333af598911610187578063624194c711610156578063624194c7146103c35780636352211e146103df5780636dcee4ca1461040f57806370a082311461043f576101f0565b806333af59891461033b57806342842e0e1461036b57806348e896ab1461038757806361728f39146103a5576101f0565b8063219c0eee116101c3578063219c0eee1461028f57806322881f88146102bf57806323b872dd146102ef57806330d871c61461030b576101f0565b806301ffc9a7146101f557806306fdde0314610225578063081812fc14610243578063095ea7b314610273575b600080fd5b61020f600480360381019061020a91906130a1565b6106c7565b60405161021c919061400c565b60405180910390f35b61022d6107a9565b60405161023a91906140b0565b60405180910390f35b61025d60048036038101906102589190613134565b61083b565b60405161026a9190613f67565b60405180910390f35b61028d60048036038101906102889190612fd7565b6108c0565b005b6102a960048036038101906102a4919061303c565b6109d8565b6040516102b69190613f67565b60405180910390f35b6102d960048036038101906102d4919061303c565b610a0b565b6040516102e69190614352565b60405180910390f35b61030960048036038101906103049190612ed1565b610a23565b005b610325600480360381019061032091906130f3565b610a83565b60405161033291906140b0565b60405180910390f35b61035560048036038101906103509190613134565b610b1c565b60405161036291906140b0565b60405180910390f35b61038560048036038101906103809190612ed1565b610d0e565b005b61038f610d2e565b60405161039c9190614352565b60405180910390f35b6103ad610d34565b6040516103ba9190614027565b60405180910390f35b6103dd60048036038101906103d89190613134565b610d3a565b005b6103f960048036038101906103f49190613134565b610ea9565b6040516104069190613f67565b60405180910390f35b61042960048036038101906104249190613134565b610f5b565b60405161043691906140b0565b60405180910390f35b61045960048036038101906104549190612e6c565b61105d565b6040516104669190614352565b60405180910390f35b610489600480360381019061048491906130f3565b611115565b60405161049691906140b0565b60405180910390f35b6104b960048036038101906104b49190613065565b611171565b005b6104c361120d565b6040516104d09190614352565b60405180910390f35b6104f360048036038101906104ee9190613134565b611213565b60405161050091906140b0565b60405180910390f35b6105116112bf565b60405161051e91906140b0565b60405180910390f35b610541600480360381019061053c9190613134565b611351565b60405161054e9190614352565b60405180910390f35b610571600480360381019061056c9190612f9b565b611369565b005b61058d60048036038101906105889190612f20565b61137f565b005b6105a960048036038101906105a49190613134565b6113e1565b6040516105b691906140b0565b60405180910390f35b6105c761148d565b6040516105d49190614352565b60405180910390f35b6105f760048036038101906105f29190613134565b611493565b60405161060491906140b0565b60405180910390f35b61062760048036038101906106229190613134565b611646565b60405161063491906140b0565b60405180910390f35b610645611798565b6040516106529190614352565b60405180910390f35b61066361179e565b6040516106709190614352565b60405180910390f35b610693600480360381019061068e9190612e95565b6117a4565b6040516106a0919061400c565b60405180910390f35b6106b1611838565b6040516106be9190614027565b60405180910390f35b60007f80ac58cd000000000000000000000000000000000000000000000000000000007bffffffffffffffffffffffffffffffffffffffffffffffffffffffff1916827bffffffffffffffffffffffffffffffffffffffffffffffffffffffff1916148061079257507f5b5e139f000000000000000000000000000000000000000000000000000000007bffffffffffffffffffffffffffffffffffffffffffffffffffffffff1916827bffffffffffffffffffffffffffffffffffffffffffffffffffffffff1916145b806107a257506107a182611902565b5b9050919050565b6060600080546107b89061465a565b80601f01602080910402602001604051908101604052809291908181526020018280546107e49061465a565b80156108315780601f1061080657610100808354040283529160200191610831565b820191906000526020600020905b81548152906001019060200180831161081457829003601f168201915b5050505050905090565b60006108468261196c565b610885576040517f08c379a000000000000000000000000000000000000000000000000000000000815260040161087c90614272565b60405180910390fd5b6004600083815260200190815260200160002060009054906101000a900473ffffffffffffffffffffffffffffffffffffffff169050919050565b60006108cb82610ea9565b90508073ffffffffffffffffffffffffffffffffffffffff168373ffffffffffffffffffffffffffffffffffffffff16141561093c576040517f08c379a000000000000000000000000000000000000000000000000000000000815260040161093390614312565b60405180910390fd5b8073ffffffffffffffffffffffffffffffffffffffff1661095b6119d8565b73ffffffffffffffffffffffffffffffffffffffff16148061098a5750610989816109846119d8565b6117a4565b5b6109c9576040517f08c379a00000000000000000000000000000000000000000000000000000000081526004016109c0906141b2565b60405180910390fd5b6109d383836119e0565b505050565b60106020528060005260406000206000915054906101000a900473ffffffffffffffffffffffffffffffffffffffff1681565b60116020528060005260406000206000915090505481565b610a34610a2e6119d8565b82611a99565b610a73576040517f08c379a0000000000000000000000000000000000000000000000000000000008152600401610a6a90614332565b60405180910390fd5b610a7e838383611b77565b505050565b606060006040518060400160405280601a81526020017f646174613a696d6167652f7376672b786d6c3b6261736536342c00000000000081525090506000610ae984604051602001610ad59190613da8565b604051602081830303815290604052611dd3565b905060008282604051602001610b00929190613dbf565b6040516020818303038152906040529050809350505050919050565b606060006001600c5484610b3091906146e9565b610b3a9190614441565b90506040518060400160405280600981526020017f3c7061746820643d270000000000000000000000000000000000000000000000815250915060005b81811015610c025760008482600d54610b909190614441565b604051602001610ba1929190613f3b565b6040516020818303038152906040528051906020012060001c90506000610bc782611493565b90508481604051602001610bdc929190613dbf565b604051602081830303815290604052945050508080610bfa9061468c565b915050610b77565b506000600f808054905085610c1791906146e9565b81548110610c4e577f4e487b7100000000000000000000000000000000000000000000000000000000600052603260045260246000fd5b906000526020600020018054610c639061465a565b80601f0160208091040260200160405190810160405280929190818152602001828054610c8f9061465a565b8015610cdc5780601f10610cb157610100808354040283529160200191610cdc565b820191906000526020600020905b815481529060010190602001808311610cbf57829003601f168201915b505050505090508281604051602001610cf6929190613e2a565b60405160208183030381529060405292505050919050565b610d298383836040518060200160405280600081525061137f565b505050565b600c5481565b60085481565b6000610d4582611646565b511115610d87576040517f08c379a0000000000000000000000000000000000000000000000000000000008152600401610d7e906142f2565b60405180910390fd5b80600a5411610dcb576040517f08c379a0000000000000000000000000000000000000000000000000000000008152600401610dc290614192565b60405180910390fd5b6000601260008381526020019081526020016000205411610e21576040517f08c379a0000000000000000000000000000000000000000000000000000000008152600401610e18906140f2565b60405180910390fd5b6000601260008381526020019081526020016000205490506000610e4482610f5b565b90506000610e5182610a83565b90506000610e5e82611115565b9050610e6a8582611f72565b847f15a6487b7915a7116ce2a61d43b17e9b47484b1931f3c79f2f3d139b307b389382604051610e9a91906140b0565b60405180910390a25050505050565b6000806002600084815260200190815260200160002060009054906101000a900473ffffffffffffffffffffffffffffffffffffffff169050600073ffffffffffffffffffffffffffffffffffffffff168173ffffffffffffffffffffffffffffffffffffffff161415610f52576040517f08c379a0000000000000000000000000000000000000000000000000000000008152600401610f49906141f2565b60405180910390fd5b80915050919050565b606060006001600b5484610f6f91906146e9565b610f799190614441565b9050610f86600d54611fe6565b610f91600d54611fe6565b604051602001610fa2929190613ed4565b604051602081830303815290604052915060005b818110156110345760008482604051602001610fd3929190613f3b565b6040516020818303038152906040528051906020012060001c90506000610ff982610b1c565b9050848160405160200161100e929190613dbf565b60405160208183030381529060405294505050808061102c9061468c565b915050610fb6565b50816040516020016110469190613e64565b604051602081830303815290604052915050919050565b60008073ffffffffffffffffffffffffffffffffffffffff168273ffffffffffffffffffffffffffffffffffffffff1614156110ce576040517f08c379a00000000000000000000000000000000000000000000000000000000081526004016110c5906141d2565b60405180910390fd5b600360008373ffffffffffffffffffffffffffffffffffffffff1673ffffffffffffffffffffffffffffffffffffffff168152602001908152602001600020549050919050565b606060006111418360405160200161112d9190613e86565b604051602081830303815290604052611dd3565b90506000816040516020016111569190613f19565b60405160208183030381529060405290508092505050919050565b7f000000000000000000000000000000000000000000000000000000000000000073ffffffffffffffffffffffffffffffffffffffff163373ffffffffffffffffffffffffffffffffffffffff16146111ff576040517f08c379a00000000000000000000000000000000000000000000000000000000081526004016111f6906142d2565b60405180910390fd5b61120982826121bb565b5050565b600d5481565b600e818154811061122357600080fd5b90600052602060002001600091509050805461123e9061465a565b80601f016020809104026020016040519081016040528092919081815260200182805461126a9061465a565b80156112b75780601f1061128c576101008083540402835291602001916112b7565b820191906000526020600020905b81548152906001019060200180831161129a57829003601f168201915b505050505081565b6060600180546112ce9061465a565b80601f01602080910402602001604051908101604052809291908181526020018280546112fa9061465a565b80156113475780601f1061131c57610100808354040283529160200191611347565b820191906000526020600020905b81548152906001019060200180831161132a57829003601f168201915b5050505050905090565b60126020528060005260406000206000915090505481565b61137b6113746119d8565b838361226b565b5050565b61139061138a6119d8565b83611a99565b6113cf576040517f08c379a00000000000000000000000000000000000000000000000000000000081526004016113c690614332565b60405180910390fd5b6113db848484846123d8565b50505050565b600f81815481106113f157600080fd5b90600052602060002001600091509050805461140c9061465a565b80601f01602080910402602001604051908101604052809291908181526020018280546114389061465a565b80156114855780601f1061145a57610100808354040283529160200191611485565b820191906000526020600020905b81548152906001019060200180831161146857829003601f168201915b505050505081565b600b5481565b6060600e8080549050836114a791906146e9565b815481106114de577f4e487b7100000000000000000000000000000000000000000000000000000000600052603260045260246000fd5b9060005260206000200180546114f39061465a565b80601f016020809104026020016040519081016040528092919081815260200182805461151f9061465a565b801561156c5780601f106115415761010080835404028352916020019161156c565b820191906000526020600020905b81548152906001019060200180831161154f57829003601f168201915b505050505090506000600d54836002600d5461158891906144ff565b604051602001611599929190613f3b565b6040516020818303038152906040528051906020012060001c6115bc91906146e9565b90506000600d54846003600d546115d391906144ff565b6040516020016115e4929190613f3b565b6040516020818303038152906040528051906020012060001c61160791906146e9565b90508261161383611fe6565b61161c83611fe6565b60405160200161162e93929190613de3565b60405160208183030381529060405292505050919050565b60606116518261196c565b611690576040517f08c379a000000000000000000000000000000000000000000000000000000000815260040161168790614252565b60405180910390fd5b60006006600084815260200190815260200160002080546116b09061465a565b80601f01602080910402602001604051908101604052809291908181526020018280546116dc9061465a565b80156117295780601f106116fe57610100808354040283529160200191611729565b820191906000526020600020905b81548152906001019060200180831161170c57829003601f168201915b50505050509050600061173a612434565b9050600081511415611750578192505050611793565b60008251111561178557808260405160200161176d929190613dbf565b60405160208183030381529060405292505050611793565b61178e8461244b565b925050505b919050565b600a5481565b60095481565b6000600560008473ffffffffffffffffffffffffffffffffffffffff1673ffffffffffffffffffffffffffffffffffffffff16815260200190815260200160002060008373ffffffffffffffffffffffffffffffffffffffff1673ffffffffffffffffffffffffffffffffffffffff16815260200190815260200160002060009054906101000a900460ff16905092915050565b60006118486008546009546124f2565b9050336010600083815260200190815260200160002060006101000a81548173ffffffffffffffffffffffffffffffffffffffff021916908373ffffffffffffffffffffffffffffffffffffffff1602179055506000600a5490508060116000848152602001908152602001600020819055506001600a546118ca9190614441565b600a8190555080827fb97343f1f2afc4959f818046ccae28fd7b05fcd2b7a7dc651cbb52a096cae03560405160405180910390a35090565b60007f01ffc9a7000000000000000000000000000000000000000000000000000000007bffffffffffffffffffffffffffffffffffffffffffffffffffffffff1916827bffffffffffffffffffffffffffffffffffffffffffffffffffffffff1916149050919050565b60008073ffffffffffffffffffffffffffffffffffffffff166002600084815260200190815260200160002060009054906101000a900473ffffffffffffffffffffffffffffffffffffffff1673ffffffffffffffffffffffffffffffffffffffff1614159050919050565b600033905090565b816004600083815260200190815260200160002060006101000a81548173ffffffffffffffffffffffffffffffffffffffff021916908373ffffffffffffffffffffffffffffffffffffffff160217905550808273ffffffffffffffffffffffffffffffffffffffff16611a5383610ea9565b73ffffffffffffffffffffffffffffffffffffffff167f8c5be1e5ebec7d5bd14f71427d1e84f3dd0314c0f7b2291e5b200ac8c7c3b92560405160405180910390a45050565b6000611aa48261196c565b611ae3576040517f08c379a0000000000000000000000000000000000000000000000000000000008152600401611ada90614172565b60405180910390fd5b6000611aee83610ea9565b90508073ffffffffffffffffffffffffffffffffffffffff168473ffffffffffffffffffffffffffffffffffffffff161480611b5d57508373ffffffffffffffffffffffffffffffffffffffff16611b458461083b565b73ffffffffffffffffffffffffffffffffffffffff16145b80611b6e5750611b6d81856117a4565b5b91505092915050565b8273ffffffffffffffffffffffffffffffffffffffff16611b9782610ea9565b73ffffffffffffffffffffffffffffffffffffffff1614611bed576040517f08c379a0000000000000000000000000000000000000000000000000000000008152600401611be490614292565b60405180910390fd5b600073ffffffffffffffffffffffffffffffffffffffff168273ffffffffffffffffffffffffffffffffffffffff161415611c5d576040517f08c379a0000000000000000000000000000000000000000000000000000000008152600401611c5490614132565b60405180910390fd5b611c68838383612654565b611c736000826119e0565b6001600360008573ffffffffffffffffffffffffffffffffffffffff1673ffffffffffffffffffffffffffffffffffffffff1681526020019081526020016000206000828254611cc39190614559565b925050819055506001600360008473ffffffffffffffffffffffffffffffffffffffff1673ffffffffffffffffffffffffffffffffffffffff1681526020019081526020016000206000828254611d1a9190614441565b92505081905550816002600083815260200190815260200160002060006101000a81548173ffffffffffffffffffffffffffffffffffffffff021916908373ffffffffffffffffffffffffffffffffffffffff160217905550808273ffffffffffffffffffffffffffffffffffffffff168473ffffffffffffffffffffffffffffffffffffffff167fddf252ad1be2c89b69c2b068fc378daa952ba7f163c4a11628f55a4df523b3ef60405160405180910390a4505050565b6060600082511415611df657604051806020016040528060008152509050611f6d565b600060405180606001604052806040815260200161485b6040913990506000600360028551611e259190614441565b611e2f91906144ce565b6004611e3b91906144ff565b90506000602082611e4c9190614441565b67ffffffffffffffff811115611e8b577f4e487b7100000000000000000000000000000000000000000000000000000000600052604160045260246000fd5b6040519080825280601f01601f191660200182016040528015611ebd5781602001600182028036833780820191505090505b509050818152600183018586518101602084015b81831015611f2c576003830192508251603f8160121c168501518253600182019150603f81600c1c168501518253600182019150603f8160061c168501518253600182019150603f8116850151825360018201915050611ed1565b600389510660018114611f465760028114611f5657611f61565b613d3d60f01b6002830352611f61565b603d60f81b60018303525b50505050508093505050505b919050565b611f7b8261196c565b611fba576040517f08c379a0000000000000000000000000000000000000000000000000000000008152600401611fb190614212565b60405180910390fd5b80600660008481526020019081526020016000209080519060200190611fe1929190612c66565b505050565b6060600082141561202e576040518060400160405280600181526020017f300000000000000000000000000000000000000000000000000000000000000081525090506121b6565b600082905060005b600082146120605780806120499061468c565b915050600a8261205991906144ce565b9150612036565b60008167ffffffffffffffff8111156120a2577f4e487b7100000000000000000000000000000000000000000000000000000000600052604160045260246000fd5b6040519080825280601f01601f1916602001820160405280156120d45781602001600182028036833780820191505090505b50905060008290505b600086146121ae576001816120f29190614559565b90506000600a808861210491906144ce565b61210e91906144ff565b876121199190614559565b60306121259190614497565b905060008160f81b905080848481518110612169577f4e487b7100000000000000000000000000000000000000000000000000000000600052603260045260246000fd5b60200101907effffffffffffffffffffffffffffffffffffffffffffffffffffffffffffff1916908160001a905350600a886121a591906144ce565b975050506120dd565b819450505050505b919050565b60006010600084815260200190815260200160002060009054906101000a900473ffffffffffffffffffffffffffffffffffffffff1690506000601160008581526020019081526020016000205490506122158282612659565b826012600083815260200190815260200160002081905550807fc58c9f48f62f00d6dbb43335e84043f12dbf76dc70abcdd19909664404ca788c8460405161225d9190614352565b60405180910390a250505050565b8173ffffffffffffffffffffffffffffffffffffffff168373ffffffffffffffffffffffffffffffffffffffff1614156122da576040517f08c379a00000000000000000000000000000000000000000000000000000000081526004016122d190614152565b60405180910390fd5b80600560008573ffffffffffffffffffffffffffffffffffffffff1673ffffffffffffffffffffffffffffffffffffffff16815260200190815260200160002060008473ffffffffffffffffffffffffffffffffffffffff1673ffffffffffffffffffffffffffffffffffffffff16815260200190815260200160002060006101000a81548160ff0219169083151502179055508173ffffffffffffffffffffffffffffffffffffffff168373ffffffffffffffffffffffffffffffffffffffff167f17307eab39ab6107e8899845ad3d59bd9653f200f220920489ca2b5937696c31836040516123cb919061400c565b60405180910390a3505050565b6123e3848484611b77565b6123ef84848484612677565b61242e576040517f08c379a0000000000000000000000000000000000000000000000000000000008152600401612425906140d2565b60405180910390fd5b50505050565b606060405180602001604052806000815250905090565b60606124568261196c565b612495576040517f08c379a000000000000000000000000000000000000000000000000000000000815260040161248c906142b2565b60405180910390fd5b600061249f612434565b905060008151116124bf57604051806020016040528060008152506124ea565b806124c98461280e565b6040516020016124da929190613dbf565b6040516020818303038152906040525b915050919050565b60007f000000000000000000000000000000000000000000000000000000000000000073ffffffffffffffffffffffffffffffffffffffff16634000aea07f000000000000000000000000000000000000000000000000000000000000000084866000604051602001612566929190614042565b6040516020818303038152906040526040518463ffffffff1660e01b815260040161259393929190613fce565b602060405180830381600087803b1580156125ad57600080fd5b505af11580156125c1573d6000803e3d6000fd5b505050506040513d601f19601f820116820180604052508101906125e59190613013565b5060006126088460003060076000898152602001908152602001600020546129bb565b90506001600760008681526020019081526020016000205461262a9190614441565b600760008681526020019081526020016000208190555061264b84826129f7565b91505092915050565b505050565b612673828260405180602001604052806000815250612a2a565b5050565b60006126988473ffffffffffffffffffffffffffffffffffffffff16612a85565b15612801578373ffffffffffffffffffffffffffffffffffffffff1663150b7a026126c16119d8565b8786866040518563ffffffff1660e01b81526004016126e39493929190613f82565b602060405180830381600087803b1580156126fd57600080fd5b505af192505050801561272e57506040513d601f19601f8201168201806040525081019061272b91906130ca565b60015b6127b1573d806000811461275e576040519150601f19603f3d011682016040523d82523d6000602084013e612763565b606091505b506000815114156127a9576040517f08c379a00000000000000000000000000000000000000000000000000000000081526004016127a0906140d2565b60405180910390fd5b805181602001fd5b63150b7a0260e01b7bffffffffffffffffffffffffffffffffffffffffffffffffffffffff1916817bffffffffffffffffffffffffffffffffffffffffffffffffffffffff191614915050612806565b600190505b949350505050565b60606000821415612856576040518060400160405280600181526020017f300000000000000000000000000000000000000000000000000000000000000081525090506129b6565b600082905060005b600082146128885780806128719061468c565b915050600a8261288191906144ce565b915061285e565b60008167ffffffffffffffff8111156128ca577f4e487b7100000000000000000000000000000000000000000000000000000000600052604160045260246000fd5b6040519080825280601f01601f1916602001820160405280156128fc5781602001600182028036833780820191505090505b5090505b600085146129af576001826129159190614559565b9150600a8561292491906146e9565b60306129309190614441565b60f81b81838151811061296c577f4e487b7100000000000000000000000000000000000000000000000000000000600052603260045260246000fd5b60200101907effffffffffffffffffffffffffffffffffffffffffffffffffffffffffffff1916908160001a905350600a856129a891906144ce565b9450612900565b8093505050505b919050565b6000848484846040516020016129d4949392919061406b565b6040516020818303038152906040528051906020012060001c9050949350505050565b60008282604051602001612a0c929190613d7c565b60405160208183030381529060405280519060200120905092915050565b612a348383612a98565b612a416000848484612677565b612a80576040517f08c379a0000000000000000000000000000000000000000000000000000000008152600401612a77906140d2565b60405180910390fd5b505050565b600080823b905060008111915050919050565b600073ffffffffffffffffffffffffffffffffffffffff168273ffffffffffffffffffffffffffffffffffffffff161415612b08576040517f08c379a0000000000000000000000000000000000000000000000000000000008152600401612aff90614232565b60405180910390fd5b612b118161196c565b15612b51576040517f08c379a0000000000000000000000000000000000000000000000000000000008152600401612b4890614112565b60405180910390fd5b612b5d60008383612654565b6001600360008473ffffffffffffffffffffffffffffffffffffffff1673ffffffffffffffffffffffffffffffffffffffff1681526020019081526020016000206000828254612bad9190614441565b92505081905550816002600083815260200190815260200160002060006101000a81548173ffffffffffffffffffffffffffffffffffffffff021916908373ffffffffffffffffffffffffffffffffffffffff160217905550808273ffffffffffffffffffffffffffffffffffffffff16600073ffffffffffffffffffffffffffffffffffffffff167fddf252ad1be2c89b69c2b068fc378daa952ba7f163c4a11628f55a4df523b3ef60405160405180910390a45050565b828054612c729061465a565b90600052602060002090601f016020900481019282612c945760008555612cdb565b82601f10612cad57805160ff1916838001178555612cdb565b82800160010185558215612cdb579182015b82811115612cda578251825591602001919060010190612cbf565b5b509050612ce89190612cec565b5090565b5b80821115612d05576000816000905550600101612ced565b5090565b6000612d1c612d178461439e565b61436d565b905082815260208101848484011115612d3457600080fd5b612d3f848285614618565b509392505050565b6000612d5a612d55846143ce565b61436d565b905082815260208101848484011115612d7257600080fd5b612d7d848285614618565b509392505050565b600081359050612d94816147e7565b92915050565b600081359050612da9816147fe565b92915050565b600081519050612dbe816147fe565b92915050565b600081359050612dd381614815565b92915050565b600081359050612de88161482c565b92915050565b600081519050612dfd8161482c565b92915050565b600082601f830112612e1457600080fd5b8135612e24848260208601612d09565b91505092915050565b600082601f830112612e3e57600080fd5b8135612e4e848260208601612d47565b91505092915050565b600081359050612e6681614843565b92915050565b600060208284031215612e7e57600080fd5b6000612e8c84828501612d85565b91505092915050565b60008060408385031215612ea857600080fd5b6000612eb685828601612d85565b9250506020612ec785828601612d85565b9150509250929050565b600080600060608486031215612ee657600080fd5b6000612ef486828701612d85565b9350506020612f0586828701612d85565b9250506040612f1686828701612e57565b9150509250925092565b60008060008060808587031215612f3657600080fd5b6000612f4487828801612d85565b9450506020612f5587828801612d85565b9350506040612f6687828801612e57565b925050606085013567ffffffffffffffff811115612f8357600080fd5b612f8f87828801612e03565b91505092959194509250565b60008060408385031215612fae57600080fd5b6000612fbc85828601612d85565b9250506020612fcd85828601612d9a565b9150509250929050565b60008060408385031215612fea57600080fd5b6000612ff885828601612d85565b925050602061300985828601612e57565b9150509250929050565b60006020828403121561302557600080fd5b600061303384828501612daf565b91505092915050565b60006020828403121561304e57600080fd5b600061305c84828501612dc4565b91505092915050565b6000806040838503121561307857600080fd5b600061308685828601612dc4565b925050602061309785828601612e57565b9150509250929050565b6000602082840312156130b357600080fd5b60006130c184828501612dd9565b91505092915050565b6000602082840312156130dc57600080fd5b60006130ea84828501612dee565b91505092915050565b60006020828403121561310557600080fd5b600082013567ffffffffffffffff81111561311f57600080fd5b61312b84828501612e2d565b91505092915050565b60006020828403121561314657600080fd5b600061315484828501612e57565b91505092915050565b6131668161458d565b82525050565b6131758161459f565b82525050565b613184816145ab565b82525050565b61319b613196826145ab565b6146d5565b82525050565b60006131ac826143fe565b6131b68185614414565b93506131c6818560208601614627565b6131cf816147d6565b840191505092915050565b60006131e582614409565b6131ef8185614425565b93506131ff818560208601614627565b613208816147d6565b840191505092915050565b600061321e82614409565b6132288185614436565b9350613238818560208601614627565b80840191505092915050565b6000613251603283614425565b91507f4552433732313a207472616e7366657220746f206e6f6e20455243373231526560008301527f63656976657220696d706c656d656e74657200000000000000000000000000006020830152604082019050919050565b60006132b7604283614425565b91507f596f75206e65656420746f207761697420666f722074686520436861696e6c6960008301527f6e6b2056524620746f2067656e657261746520612072616e646f6d206e756d6260208301527f65720000000000000000000000000000000000000000000000000000000000006040830152606082019050919050565b6000613343601c83614425565b91507f4552433732313a20746f6b656e20616c7265616479206d696e746564000000006000830152602082019050919050565b6000613383601483614436565b91507f7b226e616d65223a2022535647204e4654222c200000000000000000000000006000830152601482019050919050565b60006133c3602483614425565b91507f4552433732313a207472616e7366657220746f20746865207a65726f2061646460008301527f72657373000000000000000000000000000000000000000000000000000000006020830152604082019050919050565b6000613429601983614425565b91507f4552433732313a20617070726f766520746f2063616c6c6572000000000000006000830152602082019050919050565b6000613469602c83614425565b91507f4552433732313a206f70657261746f7220717565727920666f72206e6f6e657860008301527f697374656e7420746f6b656e00000000000000000000000000000000000000006020830152604082019050919050565b60006134cf601d83614436565b91507f272066696c6c3d277472616e73706172656e7427207374726f6b653d270000006000830152601d82019050919050565b600061350f602383614425565b91507f74686520746f6b656e496420686173206e6f74206265656e206d696e7465642060008301527f79657400000000000000000000000000000000000000000000000000000000006020830152604082019050919050565b6000613575600183614436565b91507f20000000000000000000000000000000000000000000000000000000000000006000830152600182019050919050565b60006135b5600383614436565b91507f272f3e00000000000000000000000000000000000000000000000000000000006000830152600382019050919050565b60006135f5603883614425565b91507f4552433732313a20617070726f76652063616c6c6572206973206e6f74206f7760008301527f6e6572206e6f7220617070726f76656420666f7220616c6c00000000000000006020830152604082019050919050565b600061365b602a83614425565b91507f4552433732313a2062616c616e636520717565727920666f7220746865207a6560008301527f726f2061646472657373000000000000000000000000000000000000000000006020830152604082019050919050565b60006136c1602983614425565b91507f4552433732313a206f776e657220717565727920666f72206e6f6e657869737460008301527f656e7420746f6b656e00000000000000000000000000000000000000000000006020830152604082019050919050565b6000613727602e83614425565b91507f45524337323155524953746f726167653a2055524920736574206f66206e6f6e60008301527f6578697374656e7420746f6b656e0000000000000000000000000000000000006020830152604082019050919050565b600061378d600283614436565b91507f227d0000000000000000000000000000000000000000000000000000000000006000830152600282019050919050565b60006137cd602083614425565b91507f4552433732313a206d696e7420746f20746865207a65726f20616464726573736000830152602082019050919050565b600061380d603183614425565b91507f45524337323155524953746f726167653a2055524920717565727920666f722060008301527f6e6f6e6578697374656e7420746f6b656e0000000000000000000000000000006020830152604082019050919050565b6000613873602c83614425565b91507f4552433732313a20617070726f76656420717565727920666f72206e6f6e657860008301527f697374656e7420746f6b656e00000000000000000000000000000000000000006020830152604082019050919050565b60006138d9602983614425565b91507f4552433732313a207472616e73666572206f6620746f6b656e2074686174206960008301527f73206e6f74206f776e00000000000000000000000000000000000000000000006020830152604082019050919050565b600061393f603083614436565b91507f3c73766720786d6c6e733d27687474703a2f2f7777772e77332e6f72672f323060008301527f30302f73766727206865696768743d27000000000000000000000000000000006020830152603082019050919050565b60006139a5602f83614425565b91507f4552433732314d657461646174613a2055524920717565727920666f72206e6f60008301527f6e6578697374656e7420746f6b656e00000000000000000000000000000000006020830152604082019050919050565b6000613a0b601f83614425565b91507f4f6e6c7920565246436f6f7264696e61746f722063616e2066756c66696c6c006000830152602082019050919050565b6000613a4b601283614436565b91507f2261747472696275746573223a2022222c2000000000000000000000000000006000830152601282019050919050565b6000613a8b602783614436565b91507f226465736372697074696f6e223a2022416e204e4654206261736564206f6e2060008301527f53564721222c20000000000000000000000000000000000000000000000000006020830152602782019050919050565b6000613af1603083614425565b91507f54686520746f6b656e55524920697320616c726561647920616c6c207365742060008301527f666f72207468697320746f6b656e4964000000000000000000000000000000006020830152604082019050919050565b6000613b57602183614425565b91507f4552433732313a20617070726f76616c20746f2063757272656e74206f776e6560008301527f72000000000000000000000000000000000000000000000000000000000000006020830152604082019050919050565b6000613bbd601d83614436565b91507f646174613a6170706c69636174696f6e2f6a736f6e3b6261736536342c0000006000830152601d82019050919050565b6000613bfd603183614425565b91507f4552433732313a207472616e736665722063616c6c6572206973206e6f74206f60008301527f776e6572206e6f7220617070726f7665640000000000000000000000000000006020830152604082019050919050565b6000613c63600283614436565b91507f273e0000000000000000000000000000000000000000000000000000000000006000830152600282019050919050565b6000613ca3600a83614436565b91507f22696d616765223a2022000000000000000000000000000000000000000000006000830152600a82019050919050565b6000613ce3600683614436565b91507f3c2f7376673e00000000000000000000000000000000000000000000000000006000830152600682019050919050565b6000613d23600983614436565b91507f272077696474683d2700000000000000000000000000000000000000000000006000830152600982019050919050565b613d5f81614601565b82525050565b613d76613d7182614601565b6146df565b82525050565b6000613d88828561318a565b602082019150613d988284613d65565b6020820191508190509392505050565b6000613db48284613213565b915081905092915050565b6000613dcb8285613213565b9150613dd78284613213565b91508190509392505050565b6000613def8286613213565b9150613dfb8285613213565b9150613e0682613568565b9150613e128284613213565b9150613e1d82613568565b9150819050949350505050565b6000613e368285613213565b9150613e41826134c2565b9150613e4d8284613213565b9150613e58826135a8565b91508190509392505050565b6000613e708284613213565b9150613e7b82613cd6565b915081905092915050565b6000613e9182613376565b9150613e9c82613a7e565b9150613ea782613a3e565b9150613eb282613c96565b9150613ebe8284613213565b9150613ec982613780565b915081905092915050565b6000613edf82613932565b9150613eeb8285613213565b9150613ef682613d16565b9150613f028284613213565b9150613f0d82613c56565b91508190509392505050565b6000613f2482613bb0565b9150613f308284613213565b915081905092915050565b6000613f478285613d65565b602082019150613f578284613d65565b6020820191508190509392505050565b6000602082019050613f7c600083018461315d565b92915050565b6000608082019050613f97600083018761315d565b613fa4602083018661315d565b613fb16040830185613d56565b8181036060830152613fc381846131a1565b905095945050505050565b6000606082019050613fe3600083018661315d565b613ff06020830185613d56565b818103604083015261400281846131a1565b9050949350505050565b6000602082019050614021600083018461316c565b92915050565b600060208201905061403c600083018461317b565b92915050565b6000604082019050614057600083018561317b565b6140646020830184613d56565b9392505050565b6000608082019050614080600083018761317b565b61408d6020830186613d56565b61409a604083018561315d565b6140a76060830184613d56565b95945050505050565b600060208201905081810360008301526140ca81846131da565b905092915050565b600060208201905081810360008301526140eb81613244565b9050919050565b6000602082019050818103600083015261410b816132aa565b9050919050565b6000602082019050818103600083015261412b81613336565b9050919050565b6000602082019050818103600083015261414b816133b6565b9050919050565b6000602082019050818103600083015261416b8161341c565b9050919050565b6000602082019050818103600083015261418b8161345c565b9050919050565b600060208201905081810360008301526141ab81613502565b9050919050565b600060208201905081810360008301526141cb816135e8565b9050919050565b600060208201905081810360008301526141eb8161364e565b9050919050565b6000602082019050818103600083015261420b816136b4565b9050919050565b6000602082019050818103600083015261422b8161371a565b9050919050565b6000602082019050818103600083015261424b816137c0565b9050919050565b6000602082019050818103600083015261426b81613800565b9050919050565b6000602082019050818103600083015261428b81613866565b9050919050565b600060208201905081810360008301526142ab816138cc565b9050919050565b600060208201905081810360008301526142cb81613998565b9050919050565b600060208201905081810360008301526142eb816139fe565b9050919050565b6000602082019050818103600083015261430b81613ae4565b9050919050565b6000602082019050818103600083015261432b81613b4a565b9050919050565b6000602082019050818103600083015261434b81613bf0565b9050919050565b60006020820190506143676000830184613d56565b92915050565b6000604051905081810181811067ffffffffffffffff82111715614394576143936147a7565b5b8060405250919050565b600067ffffffffffffffff8211156143b9576143b86147a7565b5b601f19601f8301169050602081019050919050565b600067ffffffffffffffff8211156143e9576143e86147a7565b5b601f19601f8301169050602081019050919050565b600081519050919050565b600081519050919050565b600082825260208201905092915050565b600082825260208201905092915050565b600081905092915050565b600061444c82614601565b915061445783614601565b9250827fffffffffffffffffffffffffffffffffffffffffffffffffffffffffffffffff0382111561448c5761448b61471a565b5b828201905092915050565b60006144a28261460b565b91506144ad8361460b565b92508260ff038211156144c3576144c261471a565b5b828201905092915050565b60006144d982614601565b91506144e483614601565b9250826144f4576144f3614749565b5b828204905092915050565b600061450a82614601565b915061451583614601565b9250817fffffffffffffffffffffffffffffffffffffffffffffffffffffffffffffffff048311821515161561454e5761454d61471a565b5b828202905092915050565b600061456482614601565b915061456f83614601565b9250828210156145825761458161471a565b5b828203905092915050565b6000614598826145e1565b9050919050565b60008115159050919050565b6000819050919050565b60007fffffffff0000000000000000000000000000000000000000000000000000000082169050919050565b600073ffffffffffffffffffffffffffffffffffffffff82169050919050565b6000819050919050565b600060ff82169050919050565b82818337600083830152505050565b60005b8381101561464557808201518184015260208101905061462a565b83811115614654576000848401525b50505050565b6000600282049050600182168061467257607f821691505b6020821081141561468657614685614778565b5b50919050565b600061469782614601565b91507fffffffffffffffffffffffffffffffffffffffffffffffffffffffffffffffff8214156146ca576146c961471a565b5b600182019050919050565b6000819050919050565b6000819050919050565b60006146f482614601565b91506146ff83614601565b92508261470f5761470e614749565b5b828206905092915050565b7f4e487b7100000000000000000000000000000000000000000000000000000000600052601160045260246000fd5b7f4e487b7100000000000000000000000000000000000000000000000000000000600052601260045260246000fd5b7f4e487b7100000000000000000000000000000000000000000000000000000000600052602260045260246000fd5b7f4e487b7100000000000000000000000000000000000000000000000000000000600052604160045260246000fd5b6000601f19601f8301169050919050565b6147f08161458d565b81146147fb57600080fd5b50565b6148078161459f565b811461481257600080fd5b50565b61481e816145ab565b811461482957600080fd5b50565b614835816145b5565b811461484057600080fd5b50565b61484c81614601565b811461485757600080fd5b5056fe4142434445464748494a4b4c4d4e4f505152535455565758595a6162636465666768696a6b6c6d6e6f707172737475767778797a303132333435363738392b2fa26469706673582212205625dc0dedb4884bfb815288608da011994bd319f15e96875e7c1825f32ee6ad64736f6c63430008000033",
  "devdoc": {
    "kind": "dev",
    "methods": {
      "approve(address,uint256)": {
        "details": "See {IERC721-approve}."
      },
      "balanceOf(address)": {
        "details": "See {IERC721-balanceOf}."
      },
      "getApproved(uint256)": {
        "details": "See {IERC721-getApproved}."
      },
      "isApprovedForAll(address,address)": {
        "details": "See {IERC721-isApprovedForAll}."
      },
      "name()": {
        "details": "See {IERC721Metadata-name}."
      },
      "ownerOf(uint256)": {
        "details": "See {IERC721-ownerOf}."
      },
      "safeTransferFrom(address,address,uint256)": {
        "details": "See {IERC721-safeTransferFrom}."
      },
      "safeTransferFrom(address,address,uint256,bytes)": {
        "details": "See {IERC721-safeTransferFrom}."
      },
      "setApprovalForAll(address,bool)": {
        "details": "See {IERC721-setApprovalForAll}."
      },
      "supportsInterface(bytes4)": {
        "details": "See {IERC165-supportsInterface}."
      },
      "symbol()": {
        "details": "See {IERC721Metadata-symbol}."
      },
      "tokenURI(uint256)": {
        "details": "See {IERC721Metadata-tokenURI}."
      },
      "transferFrom(address,address,uint256)": {
        "details": "See {IERC721-transferFrom}."
      }
    },
    "version": 1
  },
  "userdoc": {
    "kind": "user",
    "methods": {},
    "version": 1
  },
  "storageLayout": {
    "storage": [
      {
        "astId": 291,
        "contract": "contracts/RandomSVG.sol:RandomSVG",
        "label": "_name",
        "offset": 0,
        "slot": "0",
        "type": "t_string_storage"
      },
      {
        "astId": 293,
        "contract": "contracts/RandomSVG.sol:RandomSVG",
        "label": "_symbol",
        "offset": 0,
        "slot": "1",
        "type": "t_string_storage"
      },
      {
        "astId": 297,
        "contract": "contracts/RandomSVG.sol:RandomSVG",
        "label": "_owners",
        "offset": 0,
        "slot": "2",
        "type": "t_mapping(t_uint256,t_address)"
      },
      {
        "astId": 301,
        "contract": "contracts/RandomSVG.sol:RandomSVG",
        "label": "_balances",
        "offset": 0,
        "slot": "3",
        "type": "t_mapping(t_address,t_uint256)"
      },
      {
        "astId": 305,
        "contract": "contracts/RandomSVG.sol:RandomSVG",
        "label": "_tokenApprovals",
        "offset": 0,
        "slot": "4",
        "type": "t_mapping(t_uint256,t_address)"
      },
      {
        "astId": 311,
        "contract": "contracts/RandomSVG.sol:RandomSVG",
        "label": "_operatorApprovals",
        "offset": 0,
        "slot": "5",
        "type": "t_mapping(t_address,t_mapping(t_address,t_bool))"
      },
      {
        "astId": 1243,
        "contract": "contracts/RandomSVG.sol:RandomSVG",
        "label": "_tokenURIs",
        "offset": 0,
        "slot": "6",
        "type": "t_mapping(t_uint256,t_string_storage)"
      },
      {
        "astId": 79,
        "contract": "contracts/RandomSVG.sol:RandomSVG",
        "label": "nonces",
        "offset": 0,
        "slot": "7",
        "type": "t_mapping(t_bytes32,t_uint256)"
      },
      {
        "astId": 2069,
        "contract": "contracts/RandomSVG.sol:RandomSVG",
        "label": "keyHash",
        "offset": 0,
        "slot": "8",
        "type": "t_bytes32"
      },
      {
        "astId": 2071,
        "contract": "contracts/RandomSVG.sol:RandomSVG",
        "label": "fee",
        "offset": 0,
        "slot": "9",
        "type": "t_uint256"
      },
      {
        "astId": 2073,
        "contract": "contracts/RandomSVG.sol:RandomSVG",
        "label": "tokenCounter",
        "offset": 0,
        "slot": "10",
        "type": "t_uint256"
      },
      {
        "astId": 2075,
        "contract": "contracts/RandomSVG.sol:RandomSVG",
        "label": "maxNumberOfPaths",
        "offset": 0,
        "slot": "11",
        "type": "t_uint256"
      },
      {
        "astId": 2077,
        "contract": "contracts/RandomSVG.sol:RandomSVG",
        "label": "maxNumberOfPathCommands",
        "offset": 0,
        "slot": "12",
        "type": "t_uint256"
      },
      {
        "astId": 2079,
        "contract": "contracts/RandomSVG.sol:RandomSVG",
        "label": "size",
        "offset": 0,
        "slot": "13",
        "type": "t_uint256"
      },
      {
        "astId": 2082,
        "contract": "contracts/RandomSVG.sol:RandomSVG",
        "label": "pathCommands",
        "offset": 0,
        "slot": "14",
        "type": "t_array(t_string_storage)dyn_storage"
      },
      {
        "astId": 2085,
        "contract": "contracts/RandomSVG.sol:RandomSVG",
        "label": "colors",
        "offset": 0,
        "slot": "15",
        "type": "t_array(t_string_storage)dyn_storage"
      },
      {
        "astId": 2089,
        "contract": "contracts/RandomSVG.sol:RandomSVG",
        "label": "requestIdToSender",
        "offset": 0,
        "slot": "16",
        "type": "t_mapping(t_bytes32,t_address)"
      },
      {
        "astId": 2093,
        "contract": "contracts/RandomSVG.sol:RandomSVG",
        "label": "requestIdToTokenId",
        "offset": 0,
        "slot": "17",
        "type": "t_mapping(t_bytes32,t_uint256)"
      },
      {
        "astId": 2097,
        "contract": "contracts/RandomSVG.sol:RandomSVG",
        "label": "tokenIdToRandomNumber",
        "offset": 0,
        "slot": "18",
        "type": "t_mapping(t_uint256,t_uint256)"
      }
    ],
    "types": {
      "t_address": {
        "encoding": "inplace",
        "label": "address",
        "numberOfBytes": "20"
      },
      "t_array(t_string_storage)dyn_storage": {
        "base": "t_string_storage",
        "encoding": "dynamic_array",
        "label": "string[]",
        "numberOfBytes": "32"
      },
      "t_bool": {
        "encoding": "inplace",
        "label": "bool",
        "numberOfBytes": "1"
      },
      "t_bytes32": {
        "encoding": "inplace",
        "label": "bytes32",
        "numberOfBytes": "32"
      },
      "t_mapping(t_address,t_bool)": {
        "encoding": "mapping",
        "key": "t_address",
        "label": "mapping(address => bool)",
        "numberOfBytes": "32",
        "value": "t_bool"
      },
      "t_mapping(t_address,t_mapping(t_address,t_bool))": {
        "encoding": "mapping",
        "key": "t_address",
        "label": "mapping(address => mapping(address => bool))",
        "numberOfBytes": "32",
        "value": "t_mapping(t_address,t_bool)"
      },
      "t_mapping(t_address,t_uint256)": {
        "encoding": "mapping",
        "key": "t_address",
        "label": "mapping(address => uint256)",
        "numberOfBytes": "32",
        "value": "t_uint256"
      },
      "t_mapping(t_bytes32,t_address)": {
        "encoding": "mapping",
        "key": "t_bytes32",
        "label": "mapping(bytes32 => address)",
        "numberOfBytes": "32",
        "value": "t_address"
      },
      "t_mapping(t_bytes32,t_uint256)": {
        "encoding": "mapping",
        "key": "t_bytes32",
        "label": "mapping(bytes32 => uint256)",
        "numberOfBytes": "32",
        "value": "t_uint256"
      },
      "t_mapping(t_uint256,t_address)": {
        "encoding": "mapping",
        "key": "t_uint256",
        "label": "mapping(uint256 => address)",
        "numberOfBytes": "32",
        "value": "t_address"
      },
      "t_mapping(t_uint256,t_string_storage)": {
        "encoding": "mapping",
        "key": "t_uint256",
        "label": "mapping(uint256 => string)",
        "numberOfBytes": "32",
        "value": "t_string_storage"
      },
      "t_mapping(t_uint256,t_uint256)": {
        "encoding": "mapping",
        "key": "t_uint256",
        "label": "mapping(uint256 => uint256)",
        "numberOfBytes": "32",
        "value": "t_uint256"
      },
      "t_string_storage": {
        "encoding": "bytes",
        "label": "string",
        "numberOfBytes": "32"
      },
      "t_uint256": {
        "encoding": "inplace",
        "label": "uint256",
        "numberOfBytes": "32"
      }
    }
  }
}