{
  "address": "0x39884ac3c2C737517D44D7Dd7F9Bc5Ebb39ad6b9",
  "abi": [
    {
      "inputs": [
        {
          "internalType": "address",
          "name": "_VRFCoordinator",
          "type": "address"
        },
        {
          "internalType": "address",
          "name": "_LinkToken",
          "type": "address"
        },
        {
          "internalType": "bytes32",
          "name": "_keyHash",
          "type": "bytes32"
        },
        {
          "internalType": "uint256",
          "name": "_fee",
          "type": "uint256"
        }
      ],
      "stateMutability": "nonpayable",
      "type": "constructor"
    },
    {
      "anonymous": false,
      "inputs": [
        {
          "indexed": true,
          "internalType": "address",
          "name": "owner",
          "type": "address"
        },
        {
          "indexed": true,
          "internalType": "address",
          "name": "approved",
          "type": "address"
        },
        {
          "indexed": true,
          "internalType": "uint256",
          "name": "tokenId",
          "type": "uint256"
        }
      ],
      "name": "Approval",
      "type": "event"
    },
    {
      "anonymous": false,
      "inputs": [
        {
          "indexed": true,
          "internalType": "address",
          "name": "owner",
          "type": "address"
        },
        {
          "indexed": true,
          "internalType": "address",
          "name": "operator",
          "type": "address"
        },
        {
          "indexed": false,
          "internalType": "bool",
          "name": "approved",
          "type": "bool"
        }
      ],
      "name": "ApprovalForAll",
      "type": "event"
    },
    {
      "anonymous": false,
      "inputs": [
        {
          "indexed": true,
          "internalType": "uint256",
          "name": "tokenId",
          "type": "uint256"
        },
        {
          "indexed": false,
          "internalType": "string",
          "name": "tokenURI",
          "type": "string"
        }
      ],
      "name": "CreatedRandomSVG",
      "type": "event"
    },
    {
      "anonymous": false,
      "inputs": [
        {
          "indexed": true,
          "internalType": "uint256",
          "name": "tokenId",
          "type": "uint256"
        },
        {
          "indexed": false,
          "internalType": "uint256",
          "name": "randomNumber",
          "type": "uint256"
        }
      ],
      "name": "CreatedUnfinishedSVG",
      "type": "event"
    },
    {
      "anonymous": false,
      "inputs": [
        {
          "indexed": true,
          "internalType": "address",
          "name": "from",
          "type": "address"
        },
        {
          "indexed": true,
          "internalType": "address",
          "name": "to",
          "type": "address"
        },
        {
          "indexed": true,
          "internalType": "uint256",
          "name": "tokenId",
          "type": "uint256"
        }
      ],
      "name": "Transfer",
      "type": "event"
    },
    {
      "anonymous": false,
      "inputs": [
        {
          "indexed": true,
          "internalType": "bytes32",
          "name": "requestId",
          "type": "bytes32"
        },
        {
          "indexed": true,
          "internalType": "uint256",
          "name": "tokenId",
          "type": "uint256"
        }
      ],
      "name": "requestedRandomSVG",
      "type": "event"
    },
    {
      "inputs": [
        {
          "internalType": "address",
          "name": "to",
          "type": "address"
        },
        {
          "internalType": "uint256",
          "name": "tokenId",
          "type": "uint256"
        }
      ],
      "name": "approve",
      "outputs": [],
      "stateMutability": "nonpayable",
      "type": "function"
    },
    {
      "inputs": [
        {
          "internalType": "address",
          "name": "owner",
          "type": "address"
        }
      ],
      "name": "balanceOf",
      "outputs": [
        {
          "internalType": "uint256",
          "name": "",
          "type": "uint256"
        }
      ],
      "stateMutability": "view",
      "type": "function"
    },
    {
      "inputs": [
        {
          "internalType": "uint256",
          "name": "",
          "type": "uint256"
        }
      ],
      "name": "colors",
      "outputs": [
        {
          "internalType": "string",
          "name": "",
          "type": "string"
        }
      ],
      "stateMutability": "view",
      "type": "function"
    },
    {
      "inputs": [],
      "name": "create",
      "outputs": [
        {
          "internalType": "bytes32",
          "name": "requestId",
          "type": "bytes32"
        }
      ],
      "stateMutability": "payable",
      "type": "function"
    },
    {
      "inputs": [],
      "name": "fee",
      "outputs": [
        {
          "internalType": "uint256",
          "name": "",
          "type": "uint256"
        }
      ],
      "stateMutability": "view",
      "type": "function"
    },
    {
      "inputs": [
        {
          "internalType": "uint256",
          "name": "_tokenId",
          "type": "uint256"
        }
      ],
      "name": "finishMint",
      "outputs": [],
      "stateMutability": "nonpayable",
      "type": "function"
    },
    {
      "inputs": [
        {
          "internalType": "string",
          "name": "_imageURI",
          "type": "string"
        }
      ],
      "name": "formatTokenURI",
      "outputs": [
        {
          "internalType": "string",
          "name": "",
          "type": "string"
        }
      ],
      "stateMutability": "pure",
      "type": "function"
    },
    {
      "inputs": [
        {
          "internalType": "uint256",
          "name": "_randomNumber",
          "type": "uint256"
        }
      ],
      "name": "generatePath",
      "outputs": [
        {
          "internalType": "string",
          "name": "pathSvg",
          "type": "string"
        }
      ],
      "stateMutability": "view",
      "type": "function"
    },
    {
      "inputs": [
        {
          "internalType": "uint256",
          "name": "_randomNumber",
          "type": "uint256"
        }
      ],
      "name": "generatePathCommand",
      "outputs": [
        {
          "internalType": "string",
          "name": "pathCommand",
          "type": "string"
        }
      ],
      "stateMutability": "view",
      "type": "function"
    },
    {
      "inputs": [
        {
          "internalType": "uint256",
          "name": "_randomNumber",
          "type": "uint256"
        }
      ],
      "name": "generateSVG",
      "outputs": [
        {
          "internalType": "string",
          "name": "finalSVG",
          "type": "string"
        }
      ],
      "stateMutability": "view",
      "type": "function"
    },
    {
      "inputs": [
        {
          "internalType": "uint256",
          "name": "tokenId",
          "type": "uint256"
        }
      ],
      "name": "getApproved",
      "outputs": [
        {
          "internalType": "address",
          "name": "",
          "type": "address"
        }
      ],
      "stateMutability": "view",
      "type": "function"
    },
    {
      "inputs": [
        {
          "internalType": "address",
          "name": "owner",
          "type": "address"
        },
        {
          "internalType": "address",
          "name": "operator",
          "type": "address"
        }
      ],
      "name": "isApprovedForAll",
      "outputs": [
        {
          "internalType": "bool",
          "name": "",
          "type": "bool"
        }
      ],
      "stateMutability": "view",
      "type": "function"
    },
    {
      "inputs": [],
      "name": "keyHash",
      "outputs": [
        {
          "internalType": "bytes32",
          "name": "",
          "type": "bytes32"
        }
      ],
      "stateMutability": "view",
      "type": "function"
    },
    {
      "inputs": [],
      "name": "maxNumberOfPathCommands",
      "outputs": [
        {
          "internalType": "uint256",
          "name": "",
          "type": "uint256"
        }
      ],
      "stateMutability": "view",
      "type": "function"
    },
    {
      "inputs": [],
      "name": "maxNumberOfPaths",
      "outputs": [
        {
          "internalType": "uint256",
          "name": "",
          "type": "uint256"
        }
      ],
      "stateMutability": "view",
      "type": "function"
    },
    {
      "inputs": [],
      "name": "name",
      "outputs": [
        {
          "internalType": "string",
          "name": "",
          "type": "string"
        }
      ],
      "stateMutability": "view",
      "type": "function"
    },
    {
      "inputs": [],
      "name": "owner",
      "outputs": [
        {
          "internalType": "address payable",
          "name": "",
          "type": "address"
        }
      ],
      "stateMutability": "view",
      "type": "function"
    },
    {
      "inputs": [
        {
          "internalType": "uint256",
          "name": "tokenId",
          "type": "uint256"
        }
      ],
      "name": "ownerOf",
      "outputs": [
        {
          "internalType": "address",
          "name": "",
          "type": "address"
        }
      ],
      "stateMutability": "view",
      "type": "function"
    },
    {
      "inputs": [
        {
          "internalType": "uint256",
          "name": "",
          "type": "uint256"
        }
      ],
      "name": "pathCommands",
      "outputs": [
        {
          "internalType": "string",
          "name": "",
          "type": "string"
        }
      ],
      "stateMutability": "view",
      "type": "function"
    },
    {
      "inputs": [],
      "name": "price",
      "outputs": [
        {
          "internalType": "uint256",
          "name": "",
          "type": "uint256"
        }
      ],
      "stateMutability": "view",
      "type": "function"
    },
    {
      "inputs": [
        {
          "internalType": "bytes32",
          "name": "requestId",
          "type": "bytes32"
        },
        {
          "internalType": "uint256",
          "name": "randomness",
          "type": "uint256"
        }
      ],
      "name": "rawFulfillRandomness",
      "outputs": [],
      "stateMutability": "nonpayable",
      "type": "function"
    },
    {
      "inputs": [
        {
          "internalType": "bytes32",
          "name": "",
          "type": "bytes32"
        }
      ],
      "name": "requestIdToSender",
      "outputs": [
        {
          "internalType": "address",
          "name": "",
          "type": "address"
        }
      ],
      "stateMutability": "view",
      "type": "function"
    },
    {
      "inputs": [
        {
          "internalType": "bytes32",
          "name": "",
          "type": "bytes32"
        }
      ],
      "name": "requestIdToTokenId",
      "outputs": [
        {
          "internalType": "uint256",
          "name": "",
          "type": "uint256"
        }
      ],
      "stateMutability": "view",
      "type": "function"
    },
    {
      "inputs": [
        {
          "internalType": "address",
          "name": "from",
          "type": "address"
        },
        {
          "internalType": "address",
          "name": "to",
          "type": "address"
        },
        {
          "internalType": "uint256",
          "name": "tokenId",
          "type": "uint256"
        }
      ],
      "name": "safeTransferFrom",
      "outputs": [],
      "stateMutability": "nonpayable",
      "type": "function"
    },
    {
      "inputs": [
        {
          "internalType": "address",
          "name": "from",
          "type": "address"
        },
        {
          "internalType": "address",
          "name": "to",
          "type": "address"
        },
        {
          "internalType": "uint256",
          "name": "tokenId",
          "type": "uint256"
        },
        {
          "internalType": "bytes",
          "name": "_data",
          "type": "bytes"
        }
      ],
      "name": "safeTransferFrom",
      "outputs": [],
      "stateMutability": "nonpayable",
      "type": "function"
    },
    {
      "inputs": [
        {
          "internalType": "address",
          "name": "operator",
          "type": "address"
        },
        {
          "internalType": "bool",
          "name": "approved",
          "type": "bool"
        }
      ],
      "name": "setApprovalForAll",
      "outputs": [],
      "stateMutability": "nonpayable",
      "type": "function"
    },
    {
      "inputs": [],
      "name": "size",
      "outputs": [
        {
          "internalType": "uint256",
          "name": "",
          "type": "uint256"
        }
      ],
      "stateMutability": "view",
      "type": "function"
    },
    {
      "inputs": [
        {
          "internalType": "bytes4",
          "name": "interfaceId",
          "type": "bytes4"
        }
      ],
      "name": "supportsInterface",
      "outputs": [
        {
          "internalType": "bool",
          "name": "",
          "type": "bool"
        }
      ],
      "stateMutability": "view",
      "type": "function"
    },
    {
      "inputs": [
        {
          "internalType": "string",
          "name": "_svg",
          "type": "string"
        }
      ],
      "name": "svgToImageURI",
      "outputs": [
        {
          "internalType": "string",
          "name": "",
          "type": "string"
        }
      ],
      "stateMutability": "pure",
      "type": "function"
    },
    {
      "inputs": [],
      "name": "symbol",
      "outputs": [
        {
          "internalType": "string",
          "name": "",
          "type": "string"
        }
      ],
      "stateMutability": "view",
      "type": "function"
    },
    {
      "inputs": [],
      "name": "tokenCounter",
      "outputs": [
        {
          "internalType": "uint256",
          "name": "",
          "type": "uint256"
        }
      ],
      "stateMutability": "view",
      "type": "function"
    },
    {
      "inputs": [
        {
          "internalType": "uint256",
          "name": "",
          "type": "uint256"
        }
      ],
      "name": "tokenIdToRandomNumber",
      "outputs": [
        {
          "internalType": "uint256",
          "name": "",
          "type": "uint256"
        }
      ],
      "stateMutability": "view",
      "type": "function"
    },
    {
      "inputs": [
        {
          "internalType": "uint256",
          "name": "tokenId",
          "type": "uint256"
        }
      ],
      "name": "tokenURI",
      "outputs": [
        {
          "internalType": "string",
          "name": "",
          "type": "string"
        }
      ],
      "stateMutability": "view",
      "type": "function"
    },
    {
      "inputs": [
        {
          "internalType": "address",
          "name": "from",
          "type": "address"
        },
        {
          "internalType": "address",
          "name": "to",
          "type": "address"
        },
        {
          "internalType": "uint256",
          "name": "tokenId",
          "type": "uint256"
        }
      ],
      "name": "transferFrom",
      "outputs": [],
      "stateMutability": "nonpayable",
      "type": "function"
    },
    {
      "inputs": [],
      "name": "withdraw",
      "outputs": [],
      "stateMutability": "payable",
      "type": "function"
    }
  ],
  "transactionHash": "0xe5b05891b5dfcd516374a7e8af11f59edeef5ae0668072f9737d384effa1437a",
  "args": [
    "0xdD3782915140c8f3b190B5D67eAc6dc5760C46E9",
    "0xa36085F69e2889c224210F603D836748e7dC0088",
    "0x6c3699283bda56ad74f6b855546325b68d482e983852a7a82979cc4807b641f4",
    "100000000000000000"
  ],
  "numDeployments": 2,
  "solcInputHash": "b62c9de4752cc01cf9febe9e30e87142",
  "bytecode": "0x60c06040523480156200001157600080fd5b506040516200551138038062005511833981810160405281019062000037919062000612565b83836040518060400160405280600981526020017f52616e646f6d53564700000000000000000000000000000000000000000000008152506040518060400160405280600581526020017f72734e46540000000000000000000000000000000000000000000000000000008152508160009080519060200190620000bd929190620003e1565b508060019080519060200190620000d6929190620003e1565b5050508173ffffffffffffffffffffffffffffffffffffffff1660a08173ffffffffffffffffffffffffffffffffffffffff1660601b815250508073ffffffffffffffffffffffffffffffffffffffff1660808173ffffffffffffffffffffffffffffffffffffffff1660601b81525050505080600981905550816008819055506000600a81905550662386f26fc10000600b8190555033600c60006101000a81548173ffffffffffffffffffffffffffffffffffffffff021916908373ffffffffffffffffffffffffffffffffffffffff160217905550600a600d819055506005600e819055506101f4600f8190555060405180604001604052806040518060400160405280600181526020017f4d0000000000000000000000000000000000000000000000000000000000000081525081526020016040518060400160405280600181526020017f4c0000000000000000000000000000000000000000000000000000000000000081525081525060109060026200025892919062000472565b506040518060c001604052806040518060400160405280600381526020017f726564000000000000000000000000000000000000000000000000000000000081525081526020016040518060400160405280600481526020017f626c75650000000000000000000000000000000000000000000000000000000081525081526020016040518060400160405280600581526020017f677265656e00000000000000000000000000000000000000000000000000000081525081526020016040518060400160405280600681526020017f79656c6c6f77000000000000000000000000000000000000000000000000000081525081526020016040518060400160405280600581526020017f626c61636b00000000000000000000000000000000000000000000000000000081525081526020016040518060400160405280600581526020017f77686974650000000000000000000000000000000000000000000000000000008152508152506011906006620003d6929190620004d9565b505050505062000779565b828054620003ef90620006c6565b90600052602060002090601f0160209004810192826200041357600085556200045f565b82601f106200042e57805160ff19168380011785556200045f565b828001600101855582156200045f579182015b828111156200045e57825182559160200191906001019062000441565b5b5090506200046e919062000540565b5090565b828054828255906000526020600020908101928215620004c6579160200282015b82811115620004c5578251829080519060200190620004b4929190620003e1565b509160200191906001019062000493565b5b509050620004d591906200055f565b5090565b8280548282559060005260206000209081019282156200052d579160200282015b828111156200052c5782518290805190602001906200051b929190620003e1565b5091602001919060010190620004fa565b5b5090506200053c91906200055f565b5090565b5b808211156200055b57600081600090555060010162000541565b5090565b5b8082111562000583576000818162000579919062000587565b5060010162000560565b5090565b5080546200059590620006c6565b6000825580601f10620005a95750620005ca565b601f016020900490600052602060002090810190620005c9919062000540565b5b50565b600081519050620005de816200072b565b92915050565b600081519050620005f58162000745565b92915050565b6000815190506200060c816200075f565b92915050565b600080600080608085870312156200062957600080fd5b60006200063987828801620005cd565b94505060206200064c87828801620005cd565b93505060406200065f87828801620005e4565b92505060606200067287828801620005fb565b91505092959194509250565b60006200068b826200069c565b9050919050565b6000819050919050565b600073ffffffffffffffffffffffffffffffffffffffff82169050919050565b6000819050919050565b60006002820490506001821680620006df57607f821691505b60208210811415620006f657620006f5620006fc565b5b50919050565b7f4e487b7100000000000000000000000000000000000000000000000000000000600052602260045260246000fd5b62000736816200067e565b81146200074257600080fd5b50565b620007508162000692565b81146200075c57600080fd5b50565b6200076a81620006bc565b81146200077657600080fd5b50565b60805160601c60a05160601c614d65620007ac6000396000818161149b01526128a5015260006128690152614d656000f3fe6080604052600436106102045760003560e01c806371aee19311610118578063b88d4fde116100a0578063c87b56dd1161006f578063c87b56dd146107e0578063d082e3811461081d578063ddca3f4314610848578063e985e9c514610873578063efc81a8c146108b057610204565b8063b88d4fde14610712578063bd11f69d1461073b578063c21bf36f14610778578063c68b49d1146107a357610204565b8063955968d4116100e7578063955968d41461061957806395d89b41146106565780639c1cd79514610681578063a035b1fe146106be578063a22cb465146106e957610204565b806371aee1931461055d5780638da5cb5b1461059a57806394985ddd146105c5578063949d225d146105ee57610204565b806333af59891161019b57806361728f391161016a57806361728f3914610452578063624194c71461047d5780636352211e146104a65780636dcee4ca146104e357806370a082311461052057610204565b806333af5989146103b75780633ccfd60b146103f457806342842e0e146103fe57806348e896ab1461042757610204565b8063219c0eee116101d7578063219c0eee146102d757806322881f881461031457806323b872dd1461035157806330d871c61461037a57610204565b806301ffc9a71461020957806306fdde0314610246578063081812fc14610271578063095ea7b3146102ae575b600080fd5b34801561021557600080fd5b50610230600480360381019061022b9190613414565b6108ce565b60405161023d919061444f565b60405180910390f35b34801561025257600080fd5b5061025b6109b0565b60405161026891906144f3565b60405180910390f35b34801561027d57600080fd5b50610298600480360381019061029391906134a7565b610a42565b6040516102a5919061438f565b60405180910390f35b3480156102ba57600080fd5b506102d560048036038101906102d0919061334a565b610ac7565b005b3480156102e357600080fd5b506102fe60048036038101906102f991906133af565b610bdf565b60405161030b919061438f565b60405180910390f35b34801561032057600080fd5b5061033b600480360381019061033691906133af565b610c12565b60405161034891906147d5565b60405180910390f35b34801561035d57600080fd5b5061037860048036038101906103739190613244565b610c2a565b005b34801561038657600080fd5b506103a1600480360381019061039c9190613466565b610c8a565b6040516103ae91906144f3565b60405180910390f35b3480156103c357600080fd5b506103de60048036038101906103d991906134a7565b610d23565b6040516103eb91906144f3565b60405180910390f35b6103fc610f15565b005b34801561040a57600080fd5b5061042560048036038101906104209190613244565b611010565b005b34801561043357600080fd5b5061043c611030565b60405161044991906147d5565b60405180910390f35b34801561045e57600080fd5b50610467611036565b604051610474919061446a565b60405180910390f35b34801561048957600080fd5b506104a4600480360381019061049f91906134a7565b61103c565b005b3480156104b257600080fd5b506104cd60048036038101906104c891906134a7565b6111ab565b6040516104da919061438f565b60405180910390f35b3480156104ef57600080fd5b5061050a600480360381019061050591906134a7565b61125d565b60405161051791906144f3565b60405180910390f35b34801561052c57600080fd5b50610547600480360381019061054291906131df565b61135f565b60405161055491906147d5565b60405180910390f35b34801561056957600080fd5b50610584600480360381019061057f9190613466565b611417565b60405161059191906144f3565b60405180910390f35b3480156105a657600080fd5b506105af611473565b6040516105bc91906143aa565b60405180910390f35b3480156105d157600080fd5b506105ec60048036038101906105e791906133d8565b611499565b005b3480156105fa57600080fd5b50610603611535565b60405161061091906147d5565b60405180910390f35b34801561062557600080fd5b50610640600480360381019061063b91906134a7565b61153b565b60405161064d91906144f3565b60405180910390f35b34801561066257600080fd5b5061066b6115e7565b60405161067891906144f3565b60405180910390f35b34801561068d57600080fd5b506106a860048036038101906106a391906134a7565b611679565b6040516106b591906147d5565b60405180910390f35b3480156106ca57600080fd5b506106d3611691565b6040516106e091906147d5565b60405180910390f35b3480156106f557600080fd5b50610710600480360381019061070b919061330e565b611697565b005b34801561071e57600080fd5b5061073960048036038101906107349190613293565b6116ad565b005b34801561074757600080fd5b50610762600480360381019061075d91906134a7565b61170f565b60405161076f91906144f3565b60405180910390f35b34801561078457600080fd5b5061078d6117bb565b60405161079a91906147d5565b60405180910390f35b3480156107af57600080fd5b506107ca60048036038101906107c591906134a7565b6117c1565b6040516107d791906144f3565b60405180910390f35b3480156107ec57600080fd5b50610807600480360381019061080291906134a7565b611974565b60405161081491906144f3565b60405180910390f35b34801561082957600080fd5b50610832611ac6565b60405161083f91906147d5565b60405180910390f35b34801561085457600080fd5b5061085d611acc565b60405161086a91906147d5565b60405180910390f35b34801561087f57600080fd5b5061089a60048036038101906108959190613208565b611ad2565b6040516108a7919061444f565b60405180910390f35b6108b8611b66565b6040516108c5919061446a565b60405180910390f35b60007f80ac58cd000000000000000000000000000000000000000000000000000000007bffffffffffffffffffffffffffffffffffffffffffffffffffffffff1916827bffffffffffffffffffffffffffffffffffffffffffffffffffffffff1916148061099957507f5b5e139f000000000000000000000000000000000000000000000000000000007bffffffffffffffffffffffffffffffffffffffffffffffffffffffff1916827bffffffffffffffffffffffffffffffffffffffffffffffffffffffff1916145b806109a957506109a882611c75565b5b9050919050565b6060600080546109bf90614aef565b80601f01602080910402602001604051908101604052809291908181526020018280546109eb90614aef565b8015610a385780601f10610a0d57610100808354040283529160200191610a38565b820191906000526020600020905b815481529060010190602001808311610a1b57829003601f168201915b5050505050905090565b6000610a4d82611cdf565b610a8c576040517f08c379a0000000000000000000000000000000000000000000000000000000008152600401610a83906146d5565b60405180910390fd5b6004600083815260200190815260200160002060009054906101000a900473ffffffffffffffffffffffffffffffffffffffff169050919050565b6000610ad2826111ab565b90508073ffffffffffffffffffffffffffffffffffffffff168373ffffffffffffffffffffffffffffffffffffffff161415610b43576040517f08c379a0000000000000000000000000000000000000000000000000000000008152600401610b3a90614775565b60405180910390fd5b8073ffffffffffffffffffffffffffffffffffffffff16610b62611d4b565b73ffffffffffffffffffffffffffffffffffffffff161480610b915750610b9081610b8b611d4b565b611ad2565b5b610bd0576040517f08c379a0000000000000000000000000000000000000000000000000000000008152600401610bc790614615565b60405180910390fd5b610bda8383611d53565b505050565b60126020528060005260406000206000915054906101000a900473ffffffffffffffffffffffffffffffffffffffff1681565b60136020528060005260406000206000915090505481565b610c3b610c35611d4b565b82611e0c565b610c7a576040517f08c379a0000000000000000000000000000000000000000000000000000000008152600401610c7190614795565b60405180910390fd5b610c85838383611eea565b505050565b606060006040518060400160405280601a81526020017f646174613a696d6167652f7376672b786d6c3b6261736536342c00000000000081525090506000610cf084604051602001610cdc91906141d0565b604051602081830303815290604052612146565b905060008282604051602001610d079291906141e7565b6040516020818303038152906040529050809350505050919050565b606060006001600e5484610d379190614b7e565b610d4191906148c4565b90506040518060400160405280600981526020017f3c7061746820643d270000000000000000000000000000000000000000000000815250915060005b81811015610e095760008482600f54610d9791906148c4565b604051602001610da8929190614363565b6040516020818303038152906040528051906020012060001c90506000610dce826117c1565b90508481604051602001610de39291906141e7565b604051602081830303815290604052945050508080610e0190614b21565b915050610d7e565b5060006011808054905085610e1e9190614b7e565b81548110610e55577f4e487b7100000000000000000000000000000000000000000000000000000000600052603260045260246000fd5b906000526020600020018054610e6a90614aef565b80601f0160208091040260200160405190810160405280929190818152602001828054610e9690614aef565b8015610ee35780601f10610eb857610100808354040283529160200191610ee3565b820191906000526020600020905b815481529060010190602001808311610ec657829003601f168201915b505050505090508281604051602001610efd929190614252565b60405160208183030381529060405292505050919050565b600c60009054906101000a900473ffffffffffffffffffffffffffffffffffffffff1673ffffffffffffffffffffffffffffffffffffffff163373ffffffffffffffffffffffffffffffffffffffff1614610fa5576040517f08c379a0000000000000000000000000000000000000000000000000000000008152600401610f9c906145f5565b60405180910390fd5b600c60009054906101000a900473ffffffffffffffffffffffffffffffffffffffff1673ffffffffffffffffffffffffffffffffffffffff166108fc479081150290604051600060405180830381858888f1935050505015801561100d573d6000803e3d6000fd5b50565b61102b838383604051806020016040528060008152506116ad565b505050565b600e5481565b60085481565b600061104782611974565b511115611089576040517f08c379a000000000000000000000000000000000000000000000000000000000815260040161108090614755565b60405180910390fd5b80600a54116110cd576040517f08c379a00000000000000000000000000000000000000000000000000000000081526004016110c4906145d5565b60405180910390fd5b6000601460008381526020019081526020016000205411611123576040517f08c379a000000000000000000000000000000000000000000000000000000000815260040161111a90614535565b60405180910390fd5b60006014600083815260200190815260200160002054905060006111468261125d565b9050600061115382610c8a565b9050600061116082611417565b905061116c85826122e5565b847f15a6487b7915a7116ce2a61d43b17e9b47484b1931f3c79f2f3d139b307b38938260405161119c91906144f3565b60405180910390a25050505050565b6000806002600084815260200190815260200160002060009054906101000a900473ffffffffffffffffffffffffffffffffffffffff169050600073ffffffffffffffffffffffffffffffffffffffff168173ffffffffffffffffffffffffffffffffffffffff161415611254576040517f08c379a000000000000000000000000000000000000000000000000000000000815260040161124b90614655565b60405180910390fd5b80915050919050565b606060006001600d54846112719190614b7e565b61127b91906148c4565b9050611288600f54612359565b611293600f54612359565b6040516020016112a49291906142fc565b604051602081830303815290604052915060005b8181101561133657600084826040516020016112d5929190614363565b6040516020818303038152906040528051906020012060001c905060006112fb82610d23565b905084816040516020016113109291906141e7565b60405160208183030381529060405294505050808061132e90614b21565b9150506112b8565b5081604051602001611348919061428c565b604051602081830303815290604052915050919050565b60008073ffffffffffffffffffffffffffffffffffffffff168273ffffffffffffffffffffffffffffffffffffffff1614156113d0576040517f08c379a00000000000000000000000000000000000000000000000000000000081526004016113c790614635565b60405180910390fd5b600360008373ffffffffffffffffffffffffffffffffffffffff1673ffffffffffffffffffffffffffffffffffffffff168152602001908152602001600020549050919050565b606060006114438360405160200161142f91906142ae565b604051602081830303815290604052612146565b90506000816040516020016114589190614341565b60405160208183030381529060405290508092505050919050565b600c60009054906101000a900473ffffffffffffffffffffffffffffffffffffffff1681565b7f000000000000000000000000000000000000000000000000000000000000000073ffffffffffffffffffffffffffffffffffffffff163373ffffffffffffffffffffffffffffffffffffffff1614611527576040517f08c379a000000000000000000000000000000000000000000000000000000000815260040161151e90614735565b60405180910390fd5b611531828261252e565b5050565b600f5481565b6010818154811061154b57600080fd5b90600052602060002001600091509050805461156690614aef565b80601f016020809104026020016040519081016040528092919081815260200182805461159290614aef565b80156115df5780601f106115b4576101008083540402835291602001916115df565b820191906000526020600020905b8154815290600101906020018083116115c257829003601f168201915b505050505081565b6060600180546115f690614aef565b80601f016020809104026020016040519081016040528092919081815260200182805461162290614aef565b801561166f5780601f106116445761010080835404028352916020019161166f565b820191906000526020600020905b81548152906001019060200180831161165257829003601f168201915b5050505050905090565b60146020528060005260406000206000915090505481565b600b5481565b6116a96116a2611d4b565b83836125de565b5050565b6116be6116b8611d4b565b83611e0c565b6116fd576040517f08c379a00000000000000000000000000000000000000000000000000000000081526004016116f490614795565b60405180910390fd5b6117098484848461274b565b50505050565b6011818154811061171f57600080fd5b90600052602060002001600091509050805461173a90614aef565b80601f016020809104026020016040519081016040528092919081815260200182805461176690614aef565b80156117b35780601f10611788576101008083540402835291602001916117b3565b820191906000526020600020905b81548152906001019060200180831161179657829003601f168201915b505050505081565b600d5481565b606060108080549050836117d59190614b7e565b8154811061180c577f4e487b7100000000000000000000000000000000000000000000000000000000600052603260045260246000fd5b90600052602060002001805461182190614aef565b80601f016020809104026020016040519081016040528092919081815260200182805461184d90614aef565b801561189a5780601f1061186f5761010080835404028352916020019161189a565b820191906000526020600020905b81548152906001019060200180831161187d57829003601f168201915b505050505090506000600f54836002600f546118b69190614982565b6040516020016118c7929190614363565b6040516020818303038152906040528051906020012060001c6118ea9190614b7e565b90506000600f54846003600f546119019190614982565b604051602001611912929190614363565b6040516020818303038152906040528051906020012060001c6119359190614b7e565b90508261194183612359565b61194a83612359565b60405160200161195c9392919061420b565b60405160208183030381529060405292505050919050565b606061197f82611cdf565b6119be576040517f08c379a00000000000000000000000000000000000000000000000000000000081526004016119b5906146b5565b60405180910390fd5b60006006600084815260200190815260200160002080546119de90614aef565b80601f0160208091040260200160405190810160405280929190818152602001828054611a0a90614aef565b8015611a575780601f10611a2c57610100808354040283529160200191611a57565b820191906000526020600020905b815481529060010190602001808311611a3a57829003601f168201915b505050505090506000611a686127a7565b9050600081511415611a7e578192505050611ac1565b600082511115611ab3578082604051602001611a9b9291906141e7565b60405160208183030381529060405292505050611ac1565b611abc846127be565b925050505b919050565b600a5481565b60095481565b6000600560008473ffffffffffffffffffffffffffffffffffffffff1673ffffffffffffffffffffffffffffffffffffffff16815260200190815260200160002060008373ffffffffffffffffffffffffffffffffffffffff1673ffffffffffffffffffffffffffffffffffffffff16815260200190815260200160002060009054906101000a900460ff16905092915050565b6000600b54341015611bad576040517f08c379a0000000000000000000000000000000000000000000000000000000008152600401611ba4906147b5565b60405180910390fd5b611bbb600854600954612865565b9050336012600083815260200190815260200160002060006101000a81548173ffffffffffffffffffffffffffffffffffffffff021916908373ffffffffffffffffffffffffffffffffffffffff1602179055506000600a5490508060136000848152602001908152602001600020819055506001600a54611c3d91906148c4565b600a8190555080827fb97343f1f2afc4959f818046ccae28fd7b05fcd2b7a7dc651cbb52a096cae03560405160405180910390a35090565b60007f01ffc9a7000000000000000000000000000000000000000000000000000000007bffffffffffffffffffffffffffffffffffffffffffffffffffffffff1916827bffffffffffffffffffffffffffffffffffffffffffffffffffffffff1916149050919050565b60008073ffffffffffffffffffffffffffffffffffffffff166002600084815260200190815260200160002060009054906101000a900473ffffffffffffffffffffffffffffffffffffffff1673ffffffffffffffffffffffffffffffffffffffff1614159050919050565b600033905090565b816004600083815260200190815260200160002060006101000a81548173ffffffffffffffffffffffffffffffffffffffff021916908373ffffffffffffffffffffffffffffffffffffffff160217905550808273ffffffffffffffffffffffffffffffffffffffff16611dc6836111ab565b73ffffffffffffffffffffffffffffffffffffffff167f8c5be1e5ebec7d5bd14f71427d1e84f3dd0314c0f7b2291e5b200ac8c7c3b92560405160405180910390a45050565b6000611e1782611cdf565b611e56576040517f08c379a0000000000000000000000000000000000000000000000000000000008152600401611e4d906145b5565b60405180910390fd5b6000611e61836111ab565b90508073ffffffffffffffffffffffffffffffffffffffff168473ffffffffffffffffffffffffffffffffffffffff161480611ed057508373ffffffffffffffffffffffffffffffffffffffff16611eb884610a42565b73ffffffffffffffffffffffffffffffffffffffff16145b80611ee15750611ee08185611ad2565b5b91505092915050565b8273ffffffffffffffffffffffffffffffffffffffff16611f0a826111ab565b73ffffffffffffffffffffffffffffffffffffffff1614611f60576040517f08c379a0000000000000000000000000000000000000000000000000000000008152600401611f57906146f5565b60405180910390fd5b600073ffffffffffffffffffffffffffffffffffffffff168273ffffffffffffffffffffffffffffffffffffffff161415611fd0576040517f08c379a0000000000000000000000000000000000000000000000000000000008152600401611fc790614575565b60405180910390fd5b611fdb8383836129c7565b611fe6600082611d53565b6001600360008573ffffffffffffffffffffffffffffffffffffffff1673ffffffffffffffffffffffffffffffffffffffff168152602001908152602001600020600082825461203691906149dc565b925050819055506001600360008473ffffffffffffffffffffffffffffffffffffffff1673ffffffffffffffffffffffffffffffffffffffff168152602001908152602001600020600082825461208d91906148c4565b92505081905550816002600083815260200190815260200160002060006101000a81548173ffffffffffffffffffffffffffffffffffffffff021916908373ffffffffffffffffffffffffffffffffffffffff160217905550808273ffffffffffffffffffffffffffffffffffffffff168473ffffffffffffffffffffffffffffffffffffffff167fddf252ad1be2c89b69c2b068fc378daa952ba7f163c4a11628f55a4df523b3ef60405160405180910390a4505050565b6060600082511415612169576040518060200160405280600081525090506122e0565b6000604051806060016040528060408152602001614cf0604091399050600060036002855161219891906148c4565b6121a29190614951565b60046121ae9190614982565b905060006020826121bf91906148c4565b67ffffffffffffffff8111156121fe577f4e487b7100000000000000000000000000000000000000000000000000000000600052604160045260246000fd5b6040519080825280601f01601f1916602001820160405280156122305781602001600182028036833780820191505090505b509050818152600183018586518101602084015b8183101561229f576003830192508251603f8160121c168501518253600182019150603f81600c1c168501518253600182019150603f8160061c168501518253600182019150603f8116850151825360018201915050612244565b6003895106600181146122b957600281146122c9576122d4565b613d3d60f01b60028303526122d4565b603d60f81b60018303525b50505050508093505050505b919050565b6122ee82611cdf565b61232d576040517f08c379a000000000000000000000000000000000000000000000000000000000815260040161232490614675565b60405180910390fd5b80600660008481526020019081526020016000209080519060200190612354929190612fd9565b505050565b606060008214156123a1576040518060400160405280600181526020017f30000000000000000000000000000000000000000000000000000000000000008152509050612529565b600082905060005b600082146123d35780806123bc90614b21565b915050600a826123cc9190614951565b91506123a9565b60008167ffffffffffffffff811115612415577f4e487b7100000000000000000000000000000000000000000000000000000000600052604160045260246000fd5b6040519080825280601f01601f1916602001820160405280156124475781602001600182028036833780820191505090505b50905060008290505b600086146125215760018161246591906149dc565b90506000600a80886124779190614951565b6124819190614982565b8761248c91906149dc565b6030612498919061491a565b905060008160f81b9050808484815181106124dc577f4e487b7100000000000000000000000000000000000000000000000000000000600052603260045260246000fd5b60200101907effffffffffffffffffffffffffffffffffffffffffffffffffffffffffffff1916908160001a905350600a886125189190614951565b97505050612450565b819450505050505b919050565b60006012600084815260200190815260200160002060009054906101000a900473ffffffffffffffffffffffffffffffffffffffff16905060006013600085815260200190815260200160002054905061258882826129cc565b826014600083815260200190815260200160002081905550807fc58c9f48f62f00d6dbb43335e84043f12dbf76dc70abcdd19909664404ca788c846040516125d091906147d5565b60405180910390a250505050565b8173ffffffffffffffffffffffffffffffffffffffff168373ffffffffffffffffffffffffffffffffffffffff16141561264d576040517f08c379a000000000000000000000000000000000000000000000000000000000815260040161264490614595565b60405180910390fd5b80600560008573ffffffffffffffffffffffffffffffffffffffff1673ffffffffffffffffffffffffffffffffffffffff16815260200190815260200160002060008473ffffffffffffffffffffffffffffffffffffffff1673ffffffffffffffffffffffffffffffffffffffff16815260200190815260200160002060006101000a81548160ff0219169083151502179055508173ffffffffffffffffffffffffffffffffffffffff168373ffffffffffffffffffffffffffffffffffffffff167f17307eab39ab6107e8899845ad3d59bd9653f200f220920489ca2b5937696c318360405161273e919061444f565b60405180910390a3505050565b612756848484611eea565b612762848484846129ea565b6127a1576040517f08c379a000000000000000000000000000000000000000000000000000000000815260040161279890614515565b60405180910390fd5b50505050565b606060405180602001604052806000815250905090565b60606127c982611cdf565b612808576040517f08c379a00000000000000000000000000000000000000000000000000000000081526004016127ff90614715565b60405180910390fd5b60006128126127a7565b90506000815111612832576040518060200160405280600081525061285d565b8061283c84612b81565b60405160200161284d9291906141e7565b6040516020818303038152906040525b915050919050565b60007f000000000000000000000000000000000000000000000000000000000000000073ffffffffffffffffffffffffffffffffffffffff16634000aea07f0000000000000000000000000000000000000000000000000000000000000000848660006040516020016128d9929190614485565b6040516020818303038152906040526040518463ffffffff1660e01b815260040161290693929190614411565b602060405180830381600087803b15801561292057600080fd5b505af1158015612934573d6000803e3d6000fd5b505050506040513d601f19601f820116820180604052508101906129589190613386565b50600061297b846000306007600089815260200190815260200160002054612d2e565b90506001600760008681526020019081526020016000205461299d91906148c4565b60076000868152602001908152602001600020819055506129be8482612d6a565b91505092915050565b505050565b6129e6828260405180602001604052806000815250612d9d565b5050565b6000612a0b8473ffffffffffffffffffffffffffffffffffffffff16612df8565b15612b74578373ffffffffffffffffffffffffffffffffffffffff1663150b7a02612a34611d4b565b8786866040518563ffffffff1660e01b8152600401612a5694939291906143c5565b602060405180830381600087803b158015612a7057600080fd5b505af1925050508015612aa157506040513d601f19601f82011682018060405250810190612a9e919061343d565b60015b612b24573d8060008114612ad1576040519150601f19603f3d011682016040523d82523d6000602084013e612ad6565b606091505b50600081511415612b1c576040517f08c379a0000000000000000000000000000000000000000000000000000000008152600401612b1390614515565b60405180910390fd5b805181602001fd5b63150b7a0260e01b7bffffffffffffffffffffffffffffffffffffffffffffffffffffffff1916817bffffffffffffffffffffffffffffffffffffffffffffffffffffffff191614915050612b79565b600190505b949350505050565b60606000821415612bc9576040518060400160405280600181526020017f30000000000000000000000000000000000000000000000000000000000000008152509050612d29565b600082905060005b60008214612bfb578080612be490614b21565b915050600a82612bf49190614951565b9150612bd1565b60008167ffffffffffffffff811115612c3d577f4e487b7100000000000000000000000000000000000000000000000000000000600052604160045260246000fd5b6040519080825280601f01601f191660200182016040528015612c6f5781602001600182028036833780820191505090505b5090505b60008514612d2257600182612c8891906149dc565b9150600a85612c979190614b7e565b6030612ca391906148c4565b60f81b818381518110612cdf577f4e487b7100000000000000000000000000000000000000000000000000000000600052603260045260246000fd5b60200101907effffffffffffffffffffffffffffffffffffffffffffffffffffffffffffff1916908160001a905350600a85612d1b9190614951565b9450612c73565b8093505050505b919050565b600084848484604051602001612d4794939291906144ae565b6040516020818303038152906040528051906020012060001c9050949350505050565b60008282604051602001612d7f9291906141a4565b60405160208183030381529060405280519060200120905092915050565b612da78383612e0b565b612db460008484846129ea565b612df3576040517f08c379a0000000000000000000000000000000000000000000000000000000008152600401612dea90614515565b60405180910390fd5b505050565b600080823b905060008111915050919050565b600073ffffffffffffffffffffffffffffffffffffffff168273ffffffffffffffffffffffffffffffffffffffff161415612e7b576040517f08c379a0000000000000000000000000000000000000000000000000000000008152600401612e7290614695565b60405180910390fd5b612e8481611cdf565b15612ec4576040517f08c379a0000000000000000000000000000000000000000000000000000000008152600401612ebb90614555565b60405180910390fd5b612ed0600083836129c7565b6001600360008473ffffffffffffffffffffffffffffffffffffffff1673ffffffffffffffffffffffffffffffffffffffff1681526020019081526020016000206000828254612f2091906148c4565b92505081905550816002600083815260200190815260200160002060006101000a81548173ffffffffffffffffffffffffffffffffffffffff021916908373ffffffffffffffffffffffffffffffffffffffff160217905550808273ffffffffffffffffffffffffffffffffffffffff16600073ffffffffffffffffffffffffffffffffffffffff167fddf252ad1be2c89b69c2b068fc378daa952ba7f163c4a11628f55a4df523b3ef60405160405180910390a45050565b828054612fe590614aef565b90600052602060002090601f016020900481019282613007576000855561304e565b82601f1061302057805160ff191683800117855561304e565b8280016001018555821561304e579182015b8281111561304d578251825591602001919060010190613032565b5b50905061305b919061305f565b5090565b5b80821115613078576000816000905550600101613060565b5090565b600061308f61308a84614821565b6147f0565b9050828152602081018484840111156130a757600080fd5b6130b2848285614aad565b509392505050565b60006130cd6130c884614851565b6147f0565b9050828152602081018484840111156130e557600080fd5b6130f0848285614aad565b509392505050565b60008135905061310781614c7c565b92915050565b60008135905061311c81614c93565b92915050565b60008151905061313181614c93565b92915050565b60008135905061314681614caa565b92915050565b60008135905061315b81614cc1565b92915050565b60008151905061317081614cc1565b92915050565b600082601f83011261318757600080fd5b813561319784826020860161307c565b91505092915050565b600082601f8301126131b157600080fd5b81356131c18482602086016130ba565b91505092915050565b6000813590506131d981614cd8565b92915050565b6000602082840312156131f157600080fd5b60006131ff848285016130f8565b91505092915050565b6000806040838503121561321b57600080fd5b6000613229858286016130f8565b925050602061323a858286016130f8565b9150509250929050565b60008060006060848603121561325957600080fd5b6000613267868287016130f8565b9350506020613278868287016130f8565b9250506040613289868287016131ca565b9150509250925092565b600080600080608085870312156132a957600080fd5b60006132b7878288016130f8565b94505060206132c8878288016130f8565b93505060406132d9878288016131ca565b925050606085013567ffffffffffffffff8111156132f657600080fd5b61330287828801613176565b91505092959194509250565b6000806040838503121561332157600080fd5b600061332f858286016130f8565b92505060206133408582860161310d565b9150509250929050565b6000806040838503121561335d57600080fd5b600061336b858286016130f8565b925050602061337c858286016131ca565b9150509250929050565b60006020828403121561339857600080fd5b60006133a684828501613122565b91505092915050565b6000602082840312156133c157600080fd5b60006133cf84828501613137565b91505092915050565b600080604083850312156133eb57600080fd5b60006133f985828601613137565b925050602061340a858286016131ca565b9150509250929050565b60006020828403121561342657600080fd5b60006134348482850161314c565b91505092915050565b60006020828403121561344f57600080fd5b600061345d84828501613161565b91505092915050565b60006020828403121561347857600080fd5b600082013567ffffffffffffffff81111561349257600080fd5b61349e848285016131a0565b91505092915050565b6000602082840312156134b957600080fd5b60006134c7848285016131ca565b91505092915050565b6134d981614a22565b82525050565b6134e881614a10565b82525050565b6134f781614a34565b82525050565b61350681614a40565b82525050565b61351d61351882614a40565b614b6a565b82525050565b600061352e82614881565b6135388185614897565b9350613548818560208601614abc565b61355181614c6b565b840191505092915050565b60006135678261488c565b61357181856148a8565b9350613581818560208601614abc565b61358a81614c6b565b840191505092915050565b60006135a08261488c565b6135aa81856148b9565b93506135ba818560208601614abc565b80840191505092915050565b60006135d36032836148a8565b91507f4552433732313a207472616e7366657220746f206e6f6e20455243373231526560008301527f63656976657220696d706c656d656e74657200000000000000000000000000006020830152604082019050919050565b60006136396042836148a8565b91507f596f75206e65656420746f207761697420666f722074686520436861696e6c6960008301527f6e6b2056524620746f2067656e657261746520612072616e646f6d206e756d6260208301527f65720000000000000000000000000000000000000000000000000000000000006040830152606082019050919050565b60006136c5601c836148a8565b91507f4552433732313a20746f6b656e20616c7265616479206d696e746564000000006000830152602082019050919050565b60006137056014836148b9565b91507f7b226e616d65223a2022535647204e4654222c200000000000000000000000006000830152601482019050919050565b60006137456024836148a8565b91507f4552433732313a207472616e7366657220746f20746865207a65726f2061646460008301527f72657373000000000000000000000000000000000000000000000000000000006020830152604082019050919050565b60006137ab6019836148a8565b91507f4552433732313a20617070726f766520746f2063616c6c6572000000000000006000830152602082019050919050565b60006137eb602c836148a8565b91507f4552433732313a206f70657261746f7220717565727920666f72206e6f6e657860008301527f697374656e7420746f6b656e00000000000000000000000000000000000000006020830152604082019050919050565b6000613851601d836148b9565b91507f272066696c6c3d277472616e73706172656e7427207374726f6b653d270000006000830152601d82019050919050565b60006138916023836148a8565b91507f74686520746f6b656e496420686173206e6f74206265656e206d696e7465642060008301527f79657400000000000000000000000000000000000000000000000000000000006020830152604082019050919050565b60006138f76026836148a8565b91507f596f7520617265206e6f7420746865206f776e6572206f66207468697320636f60008301527f6e747261637400000000000000000000000000000000000000000000000000006020830152604082019050919050565b600061395d6001836148b9565b91507f20000000000000000000000000000000000000000000000000000000000000006000830152600182019050919050565b600061399d6003836148b9565b91507f272f3e00000000000000000000000000000000000000000000000000000000006000830152600382019050919050565b60006139dd6038836148a8565b91507f4552433732313a20617070726f76652063616c6c6572206973206e6f74206f7760008301527f6e6572206e6f7220617070726f76656420666f7220616c6c00000000000000006020830152604082019050919050565b6000613a43602a836148a8565b91507f4552433732313a2062616c616e636520717565727920666f7220746865207a6560008301527f726f2061646472657373000000000000000000000000000000000000000000006020830152604082019050919050565b6000613aa96029836148a8565b91507f4552433732313a206f776e657220717565727920666f72206e6f6e657869737460008301527f656e7420746f6b656e00000000000000000000000000000000000000000000006020830152604082019050919050565b6000613b0f602e836148a8565b91507f45524337323155524953746f726167653a2055524920736574206f66206e6f6e60008301527f6578697374656e7420746f6b656e0000000000000000000000000000000000006020830152604082019050919050565b6000613b756002836148b9565b91507f227d0000000000000000000000000000000000000000000000000000000000006000830152600282019050919050565b6000613bb56020836148a8565b91507f4552433732313a206d696e7420746f20746865207a65726f20616464726573736000830152602082019050919050565b6000613bf56031836148a8565b91507f45524337323155524953746f726167653a2055524920717565727920666f722060008301527f6e6f6e6578697374656e7420746f6b656e0000000000000000000000000000006020830152604082019050919050565b6000613c5b602c836148a8565b91507f4552433732313a20617070726f76656420717565727920666f72206e6f6e657860008301527f697374656e7420746f6b656e00000000000000000000000000000000000000006020830152604082019050919050565b6000613cc16029836148a8565b91507f4552433732313a207472616e73666572206f6620746f6b656e2074686174206960008301527f73206e6f74206f776e00000000000000000000000000000000000000000000006020830152604082019050919050565b6000613d276030836148b9565b91507f3c73766720786d6c6e733d27687474703a2f2f7777772e77332e6f72672f323060008301527f30302f73766727206865696768743d27000000000000000000000000000000006020830152603082019050919050565b6000613d8d602f836148a8565b91507f4552433732314d657461646174613a2055524920717565727920666f72206e6f60008301527f6e6578697374656e7420746f6b656e00000000000000000000000000000000006020830152604082019050919050565b6000613df3601f836148a8565b91507f4f6e6c7920565246436f6f7264696e61746f722063616e2066756c66696c6c006000830152602082019050919050565b6000613e336012836148b9565b91507f2261747472696275746573223a2022222c2000000000000000000000000000006000830152601282019050919050565b6000613e736027836148b9565b91507f226465736372697074696f6e223a2022416e204e4654206261736564206f6e2060008301527f53564721222c20000000000000000000000000000000000000000000000000006020830152602782019050919050565b6000613ed96030836148a8565b91507f54686520746f6b656e55524920697320616c726561647920616c6c207365742060008301527f666f72207468697320746f6b656e4964000000000000000000000000000000006020830152604082019050919050565b6000613f3f6021836148a8565b91507f4552433732313a20617070726f76616c20746f2063757272656e74206f776e6560008301527f72000000000000000000000000000000000000000000000000000000000000006020830152604082019050919050565b6000613fa5601d836148b9565b91507f646174613a6170706c69636174696f6e2f6a736f6e3b6261736536342c0000006000830152601d82019050919050565b6000613fe56031836148a8565b91507f4552433732313a207472616e736665722063616c6c6572206973206e6f74206f60008301527f776e6572206e6f7220617070726f7665640000000000000000000000000000006020830152604082019050919050565b600061404b6015836148a8565b91507f4e65656420746f2073656e64206d6f72652045544800000000000000000000006000830152602082019050919050565b600061408b6002836148b9565b91507f273e0000000000000000000000000000000000000000000000000000000000006000830152600282019050919050565b60006140cb600a836148b9565b91507f22696d616765223a2022000000000000000000000000000000000000000000006000830152600a82019050919050565b600061410b6006836148b9565b91507f3c2f7376673e00000000000000000000000000000000000000000000000000006000830152600682019050919050565b600061414b6009836148b9565b91507f272077696474683d2700000000000000000000000000000000000000000000006000830152600982019050919050565b61418781614a96565b82525050565b61419e61419982614a96565b614b74565b82525050565b60006141b0828561350c565b6020820191506141c0828461418d565b6020820191508190509392505050565b60006141dc8284613595565b915081905092915050565b60006141f38285613595565b91506141ff8284613595565b91508190509392505050565b60006142178286613595565b91506142238285613595565b915061422e82613950565b915061423a8284613595565b915061424582613950565b9150819050949350505050565b600061425e8285613595565b915061426982613844565b91506142758284613595565b915061428082613990565b91508190509392505050565b60006142988284613595565b91506142a3826140fe565b915081905092915050565b60006142b9826136f8565b91506142c482613e66565b91506142cf82613e26565b91506142da826140be565b91506142e68284613595565b91506142f182613b68565b915081905092915050565b600061430782613d1a565b91506143138285613595565b915061431e8261413e565b915061432a8284613595565b91506143358261407e565b91508190509392505050565b600061434c82613f98565b91506143588284613595565b915081905092915050565b600061436f828561418d565b60208201915061437f828461418d565b6020820191508190509392505050565b60006020820190506143a460008301846134df565b92915050565b60006020820190506143bf60008301846134d0565b92915050565b60006080820190506143da60008301876134df565b6143e760208301866134df565b6143f4604083018561417e565b81810360608301526144068184613523565b905095945050505050565b600060608201905061442660008301866134df565b614433602083018561417e565b81810360408301526144458184613523565b9050949350505050565b600060208201905061446460008301846134ee565b92915050565b600060208201905061447f60008301846134fd565b92915050565b600060408201905061449a60008301856134fd565b6144a7602083018461417e565b9392505050565b60006080820190506144c360008301876134fd565b6144d0602083018661417e565b6144dd60408301856134df565b6144ea606083018461417e565b95945050505050565b6000602082019050818103600083015261450d818461355c565b905092915050565b6000602082019050818103600083015261452e816135c6565b9050919050565b6000602082019050818103600083015261454e8161362c565b9050919050565b6000602082019050818103600083015261456e816136b8565b9050919050565b6000602082019050818103600083015261458e81613738565b9050919050565b600060208201905081810360008301526145ae8161379e565b9050919050565b600060208201905081810360008301526145ce816137de565b9050919050565b600060208201905081810360008301526145ee81613884565b9050919050565b6000602082019050818103600083015261460e816138ea565b9050919050565b6000602082019050818103600083015261462e816139d0565b9050919050565b6000602082019050818103600083015261464e81613a36565b9050919050565b6000602082019050818103600083015261466e81613a9c565b9050919050565b6000602082019050818103600083015261468e81613b02565b9050919050565b600060208201905081810360008301526146ae81613ba8565b9050919050565b600060208201905081810360008301526146ce81613be8565b9050919050565b600060208201905081810360008301526146ee81613c4e565b9050919050565b6000602082019050818103600083015261470e81613cb4565b9050919050565b6000602082019050818103600083015261472e81613d80565b9050919050565b6000602082019050818103600083015261474e81613de6565b9050919050565b6000602082019050818103600083015261476e81613ecc565b9050919050565b6000602082019050818103600083015261478e81613f32565b9050919050565b600060208201905081810360008301526147ae81613fd8565b9050919050565b600060208201905081810360008301526147ce8161403e565b9050919050565b60006020820190506147ea600083018461417e565b92915050565b6000604051905081810181811067ffffffffffffffff8211171561481757614816614c3c565b5b8060405250919050565b600067ffffffffffffffff82111561483c5761483b614c3c565b5b601f19601f8301169050602081019050919050565b600067ffffffffffffffff82111561486c5761486b614c3c565b5b601f19601f8301169050602081019050919050565b600081519050919050565b600081519050919050565b600082825260208201905092915050565b600082825260208201905092915050565b600081905092915050565b60006148cf82614a96565b91506148da83614a96565b9250827fffffffffffffffffffffffffffffffffffffffffffffffffffffffffffffffff0382111561490f5761490e614baf565b5b828201905092915050565b600061492582614aa0565b915061493083614aa0565b92508260ff0382111561494657614945614baf565b5b828201905092915050565b600061495c82614a96565b915061496783614a96565b92508261497757614976614bde565b5b828204905092915050565b600061498d82614a96565b915061499883614a96565b9250817fffffffffffffffffffffffffffffffffffffffffffffffffffffffffffffffff04831182151516156149d1576149d0614baf565b5b828202905092915050565b60006149e782614a96565b91506149f283614a96565b925082821015614a0557614a04614baf565b5b828203905092915050565b6000614a1b82614a76565b9050919050565b6000614a2d82614a76565b9050919050565b60008115159050919050565b6000819050919050565b60007fffffffff0000000000000000000000000000000000000000000000000000000082169050919050565b600073ffffffffffffffffffffffffffffffffffffffff82169050919050565b6000819050919050565b600060ff82169050919050565b82818337600083830152505050565b60005b83811015614ada578082015181840152602081019050614abf565b83811115614ae9576000848401525b50505050565b60006002820490506001821680614b0757607f821691505b60208210811415614b1b57614b1a614c0d565b5b50919050565b6000614b2c82614a96565b91507fffffffffffffffffffffffffffffffffffffffffffffffffffffffffffffffff821415614b5f57614b5e614baf565b5b600182019050919050565b6000819050919050565b6000819050919050565b6000614b8982614a96565b9150614b9483614a96565b925082614ba457614ba3614bde565b5b828206905092915050565b7f4e487b7100000000000000000000000000000000000000000000000000000000600052601160045260246000fd5b7f4e487b7100000000000000000000000000000000000000000000000000000000600052601260045260246000fd5b7f4e487b7100000000000000000000000000000000000000000000000000000000600052602260045260246000fd5b7f4e487b7100000000000000000000000000000000000000000000000000000000600052604160045260246000fd5b6000601f19601f8301169050919050565b614c8581614a10565b8114614c9057600080fd5b50565b614c9c81614a34565b8114614ca757600080fd5b50565b614cb381614a40565b8114614cbe57600080fd5b50565b614cca81614a4a565b8114614cd557600080fd5b50565b614ce181614a96565b8114614cec57600080fd5b5056fe4142434445464748494a4b4c4d4e4f505152535455565758595a6162636465666768696a6b6c6d6e6f707172737475767778797a303132333435363738392b2fa264697066735822122024b83b232e14a463a9e5ca0f9b2babf900a05383ed76385f5b6bacab72c0768464736f6c63430008000033",
  "devdoc": {
    "kind": "dev",
    "methods": {
      "approve(address,uint256)": {
        "details": "See {IERC721-approve}."
      },
      "balanceOf(address)": {
        "details": "See {IERC721-balanceOf}."
      },
      "getApproved(uint256)": {
        "details": "See {IERC721-getApproved}."
      },
      "isApprovedForAll(address,address)": {
        "details": "See {IERC721-isApprovedForAll}."
      },
      "name()": {
        "details": "See {IERC721Metadata-name}."
      },
      "ownerOf(uint256)": {
        "details": "See {IERC721-ownerOf}."
      },
      "safeTransferFrom(address,address,uint256)": {
        "details": "See {IERC721-safeTransferFrom}."
      },
      "safeTransferFrom(address,address,uint256,bytes)": {
        "details": "See {IERC721-safeTransferFrom}."
      },
      "setApprovalForAll(address,bool)": {
        "details": "See {IERC721-setApprovalForAll}."
      },
      "supportsInterface(bytes4)": {
        "details": "See {IERC165-supportsInterface}."
      },
      "symbol()": {
        "details": "See {IERC721Metadata-symbol}."
      },
      "tokenURI(uint256)": {
        "details": "See {IERC721Metadata-tokenURI}."
      },
      "transferFrom(address,address,uint256)": {
        "details": "See {IERC721-transferFrom}."
      }
    },
    "version": 1
  },
  "userdoc": {
    "kind": "user",
    "methods": {},
    "version": 1
  },
  "storageLayout": {
    "storage": [
      {
        "astId": 291,
        "contract": "contracts/RandomSVG.sol:RandomSVG",
        "label": "_name",
        "offset": 0,
        "slot": "0",
        "type": "t_string_storage"
      },
      {
        "astId": 293,
        "contract": "contracts/RandomSVG.sol:RandomSVG",
        "label": "_symbol",
        "offset": 0,
        "slot": "1",
        "type": "t_string_storage"
      },
      {
        "astId": 297,
        "contract": "contracts/RandomSVG.sol:RandomSVG",
        "label": "_owners",
        "offset": 0,
        "slot": "2",
        "type": "t_mapping(t_uint256,t_address)"
      },
      {
        "astId": 301,
        "contract": "contracts/RandomSVG.sol:RandomSVG",
        "label": "_balances",
        "offset": 0,
        "slot": "3",
        "type": "t_mapping(t_address,t_uint256)"
      },
      {
        "astId": 305,
        "contract": "contracts/RandomSVG.sol:RandomSVG",
        "label": "_tokenApprovals",
        "offset": 0,
        "slot": "4",
        "type": "t_mapping(t_uint256,t_address)"
      },
      {
        "astId": 311,
        "contract": "contracts/RandomSVG.sol:RandomSVG",
        "label": "_operatorApprovals",
        "offset": 0,
        "slot": "5",
        "type": "t_mapping(t_address,t_mapping(t_address,t_bool))"
      },
      {
        "astId": 1243,
        "contract": "contracts/RandomSVG.sol:RandomSVG",
        "label": "_tokenURIs",
        "offset": 0,
        "slot": "6",
        "type": "t_mapping(t_uint256,t_string_storage)"
      },
      {
        "astId": 79,
        "contract": "contracts/RandomSVG.sol:RandomSVG",
        "label": "nonces",
        "offset": 0,
        "slot": "7",
        "type": "t_mapping(t_bytes32,t_uint256)"
      },
      {
        "astId": 2069,
        "contract": "contracts/RandomSVG.sol:RandomSVG",
        "label": "keyHash",
        "offset": 0,
        "slot": "8",
        "type": "t_bytes32"
      },
      {
        "astId": 2071,
        "contract": "contracts/RandomSVG.sol:RandomSVG",
        "label": "fee",
        "offset": 0,
        "slot": "9",
        "type": "t_uint256"
      },
      {
        "astId": 2073,
        "contract": "contracts/RandomSVG.sol:RandomSVG",
        "label": "tokenCounter",
        "offset": 0,
        "slot": "10",
        "type": "t_uint256"
      },
      {
        "astId": 2075,
        "contract": "contracts/RandomSVG.sol:RandomSVG",
        "label": "price",
        "offset": 0,
        "slot": "11",
        "type": "t_uint256"
      },
      {
        "astId": 2077,
        "contract": "contracts/RandomSVG.sol:RandomSVG",
        "label": "owner",
        "offset": 0,
        "slot": "12",
        "type": "t_address_payable"
      },
      {
        "astId": 2079,
        "contract": "contracts/RandomSVG.sol:RandomSVG",
        "label": "maxNumberOfPaths",
        "offset": 0,
        "slot": "13",
        "type": "t_uint256"
      },
      {
        "astId": 2081,
        "contract": "contracts/RandomSVG.sol:RandomSVG",
        "label": "maxNumberOfPathCommands",
        "offset": 0,
        "slot": "14",
        "type": "t_uint256"
      },
      {
        "astId": 2083,
        "contract": "contracts/RandomSVG.sol:RandomSVG",
        "label": "size",
        "offset": 0,
        "slot": "15",
        "type": "t_uint256"
      },
      {
        "astId": 2086,
        "contract": "contracts/RandomSVG.sol:RandomSVG",
        "label": "pathCommands",
        "offset": 0,
        "slot": "16",
        "type": "t_array(t_string_storage)dyn_storage"
      },
      {
        "astId": 2089,
        "contract": "contracts/RandomSVG.sol:RandomSVG",
        "label": "colors",
        "offset": 0,
        "slot": "17",
        "type": "t_array(t_string_storage)dyn_storage"
      },
      {
        "astId": 2093,
        "contract": "contracts/RandomSVG.sol:RandomSVG",
        "label": "requestIdToSender",
        "offset": 0,
        "slot": "18",
        "type": "t_mapping(t_bytes32,t_address)"
      },
      {
        "astId": 2097,
        "contract": "contracts/RandomSVG.sol:RandomSVG",
        "label": "requestIdToTokenId",
        "offset": 0,
        "slot": "19",
        "type": "t_mapping(t_bytes32,t_uint256)"
      },
      {
        "astId": 2101,
        "contract": "contracts/RandomSVG.sol:RandomSVG",
        "label": "tokenIdToRandomNumber",
        "offset": 0,
        "slot": "20",
        "type": "t_mapping(t_uint256,t_uint256)"
      }
    ],
    "types": {
      "t_address": {
        "encoding": "inplace",
        "label": "address",
        "numberOfBytes": "20"
      },
      "t_address_payable": {
        "encoding": "inplace",
        "label": "address payable",
        "numberOfBytes": "20"
      },
      "t_array(t_string_storage)dyn_storage": {
        "base": "t_string_storage",
        "encoding": "dynamic_array",
        "label": "string[]",
        "numberOfBytes": "32"
      },
      "t_bool": {
        "encoding": "inplace",
        "label": "bool",
        "numberOfBytes": "1"
      },
      "t_bytes32": {
        "encoding": "inplace",
        "label": "bytes32",
        "numberOfBytes": "32"
      },
      "t_mapping(t_address,t_bool)": {
        "encoding": "mapping",
        "key": "t_address",
        "label": "mapping(address => bool)",
        "numberOfBytes": "32",
        "value": "t_bool"
      },
      "t_mapping(t_address,t_mapping(t_address,t_bool))": {
        "encoding": "mapping",
        "key": "t_address",
        "label": "mapping(address => mapping(address => bool))",
        "numberOfBytes": "32",
        "value": "t_mapping(t_address,t_bool)"
      },
      "t_mapping(t_address,t_uint256)": {
        "encoding": "mapping",
        "key": "t_address",
        "label": "mapping(address => uint256)",
        "numberOfBytes": "32",
        "value": "t_uint256"
      },
      "t_mapping(t_bytes32,t_address)": {
        "encoding": "mapping",
        "key": "t_bytes32",
        "label": "mapping(bytes32 => address)",
        "numberOfBytes": "32",
        "value": "t_address"
      },
      "t_mapping(t_bytes32,t_uint256)": {
        "encoding": "mapping",
        "key": "t_bytes32",
        "label": "mapping(bytes32 => uint256)",
        "numberOfBytes": "32",
        "value": "t_uint256"
      },
      "t_mapping(t_uint256,t_address)": {
        "encoding": "mapping",
        "key": "t_uint256",
        "label": "mapping(uint256 => address)",
        "numberOfBytes": "32",
        "value": "t_address"
      },
      "t_mapping(t_uint256,t_string_storage)": {
        "encoding": "mapping",
        "key": "t_uint256",
        "label": "mapping(uint256 => string)",
        "numberOfBytes": "32",
        "value": "t_string_storage"
      },
      "t_mapping(t_uint256,t_uint256)": {
        "encoding": "mapping",
        "key": "t_uint256",
        "label": "mapping(uint256 => uint256)",
        "numberOfBytes": "32",
        "value": "t_uint256"
      },
      "t_string_storage": {
        "encoding": "bytes",
        "label": "string",
        "numberOfBytes": "32"
      },
      "t_uint256": {
        "encoding": "inplace",
        "label": "uint256",
        "numberOfBytes": "32"
      }
    }
  }
}